:020000040800F2
:100000000000022045700008D5690008D969000881
:10001000DD690008E1690008E569000800000000EA
:10002000000000000000000000000000415900082E
:10003000E969000800000000D1590008355A00089D
:10004000957000089570000895700008957000087C
:1000500095700008ED69000895700008957000081B
:10006000957000089570000895700008957000085C
:10007000957000089570000895700008957000084C
:10008000957000089570000895700008957000083C
:10009000F1690008FD690008957000089570000876
:1000A000957000089570000895700008957000081C
:1000B00095700008096A000895700008256A000814
:1000C00095700008957000089570000895700008FC
:1000D00095700008957000089570000895700008EC
:1000E00095700008957000089570000895700008DC
:1000F00095700008957000089570000895700008CC
:1001000095700008957000089570000895700008BB
:1001100095700008957000089570000895700008AB
:10012000957000089570000895700008957000089B
:1001300095700008000000000000000095700008A5
:10014000957000089570000895700008316A0008E5
:10015000957000089570000895700008957000086B
:10016000957000089570000895700008957000085B
:100170009570000895700008000000000000000065
:0801800095700008957000085D
:1001900010B5054C237833B9044B13B10448AFF3C1
:1001A00000800123237010BDE80100200000000042
:1001B00090A8000808B5034B1BB103490348AFF3EF
:1001C000008008BD00000000EC01002090A800089D
:1001D000034613F8012B002AFBD1181A0138704787
:1001E00053B94AB9002908BF00281CBF4FF0FF319E
:1001F0004FF0FF3000F072B9ADF1080C6DE904CE9C
:1002000000F006F8DDF804E0DDE9022304B07047F1
:100210002DE9F047089E04468846002B4BD18A42C0
:10022000154667D9B2FA82F24AB1C2F1200701FA43
:1002300002F320FA07F7954047EA030894404FEA93
:10024000154E230CB8FBFEF71FFA85FC0EFB178832
:1002500043EA084307FB0CF1994209D9EB1807F16F
:10026000FF3080F01B81994240F21881023F2B44FD
:100270005B1AA4B2B3FBFEF00EFB103344EA034456
:1002800000FB0CFCA44509D92C1900F1FF3380F0C8
:100290000781A44540F2048102382C4440EA07401B
:1002A000A4EB0C0400271EB1D4400023C6E9004390
:1002B0003946BDE8F0878B4209D9002E00F0EB806B
:1002C0000027C6E9000138463946BDE8F087B3FA91
:1002D00083F7002F47D18B4202D3824200F2FA808B
:1002E000841A61EB030301209846002EE0D0C6E992
:1002F0000048DDE702B9FFDEB2FA82F2002A40F0E0
:100300008F80491B4FEA154E1FFA85F80127B1FB74
:10031000FEFC230C0EFB1C1143EA014308FB0CF10D
:10032000994207D9EB180CF1FF3002D2994200F242
:10033000CD808446591AA3B2B1FBFEF00EFB101417
:1003400043EA044408FB00F8A04507D92C1900F142
:10035000FF3302D2A04500F2B6801846A4EB080491
:1003600040EA0C409FE7C7F1200CBB4022FA0CFE8C
:100370004EEA030E01FA07F420FA0CF521FA0CF309
:100380004FEA1E482543B3FBF8F92C0C08FB193340
:100390001FFA8EFA44EA034309FB0AF49C4202FA6C
:1003A00007F200FA07F10BD91EEB030309F1FF3046
:1003B00080F087809C4240F28480A9F10209734456
:1003C0001B1BADB2B3FBF8F008FB103345EA034446
:1003D00000FB0AFAA24508D91EEB040400F1FF3322
:1003E0006BD2A24569D90238744440EA0940A0FBA7
:1003F0000289A4EB0A044C45C2464B4654D351D063
:10040000002E69D0B1EB0A0564EB030404FA0CFC7E
:10041000FD40FC404CEA0505C6E90054002747E7CB
:10042000C2F1200320FA03F7954001FA02F021FA05
:1004300003F34FEA154E3843010CB3FBFEF71FFAE6
:1004400085F80EFB173341EA034107FB08F38B42A3
:1004500004FA02F407D9691807F1FF3C2FD28B4246
:100460002DD9023F2944CB1A81B2B3FBFEF00EFB1B
:10047000103341EA034100FB08F38B4207D96918A6
:1004800000F1FF3C17D28B4215D902382944C91A12
:1004900040EA07473BE73746304609E70746E7E6C5
:1004A0001846FBE64145ABD2B8EB020A69EB0E02F7
:1004B00001381346A4E76046E9E7184695E7674622
:1004C000D1E781467CE702382C4447E7ACF1020CC7
:1004D0002B442FE7384608E73746E9E6704700BF68
:1004E00008B50B4B1A6842F400721A601A6842F49D
:1004F00080621A601A6842F480721A60032000F069
:100500008DFB002006F026FA06F070F9002008BDE9
:10051000003C0240034A044B11681B780B441360F3
:10052000704700BF2C4D002000000020014B1868D0
:10053000704700BF2C4D002038B50446FFF7F6FF8A
:10054000631C054602D0044B1B781C44FFF7EEFFEA
:10055000401BA042FAD338BD0000002000287CD008
:1005600038B590F820300446002B73D02268136809
:1005700023F002031360FFF7D9FF054604E0FFF7FD
:10058000D5FF401B0A285CD823685A689107F6D427
:100590001A6842F001021A60FFF7C8FF054604E03E
:1005A000FFF7C4FF401B0A284BD823685A68D207BC
:1005B000F6D5227E012A1A680CBF42F0800222F092
:1005C00080021A60627E012A1A680CBF42F0400263
:1005D00022F040021A60A27E012A1A680CBF42F083
:1005E000200222F020021A60E27E012A1A680CBF63
:1005F00022F0100242F010021A60227F012A1A68CB
:100600000CBF42F0080222F008021A60627F012A41
:100610001A680CBF42F0040222F004021A60D4E906
:100620000221D4E904500A4361682A430243013994
:100630000A4301250021DA610846616284F82050EE
:1006400038BD636A052243F400336362012084F8F5
:10065000202038BD06F0F6F888E70120704700BF7B
:1006600090F82030013B012B05D9436A43F48023E5
:100670004362012070473C4BD3F8002242F0010254
:10068000F0B4C3F80022D3F8002222F47C52C3F85D
:100690000022D3F80022486A42EA0022C3F800226E
:1006A0004A69D3F81C52012402F01F0004FA00F03A
:1006B000C4432540C3F81C52CD69002D3AD0012D0A
:1006C00015D1D3F80C520543C3F80C52D2000F6871
:1006D0008D888E688B8902F1804202F5C84245EA16
:1006E000074543EA0643C2F84052C2F844328B69D8
:1006F0001D4A9BBBD2F804322340C2F804320B6976
:100700002BBB194BD3F814221440C3F814420B6AC4
:10071000012B05D1144AD2F81C321843C2F81C022E
:10072000114AD2F8003223F001030020C2F800324F
:10073000F0BC7047D3F80C522540C3F80C52D200DD
:1007400002F18042CF688D888E680B88C5E7064A23
:10075000D2F814320343C2F81432D8E7D2F8043284
:100760000343C2F80432CAE70064004038B590F889
:100770002030012B05D0436A43F40023436201205B
:1007800038BD0268022380F82030136823F001038B
:1007900013600446FFF7CAFE054604E0FFF7C6FEF5
:1007A000401B0A2807D823685B6813F00103F5D1C2
:1007B0006362184638BD636A052243F400336362FE
:1007C000012084F8202038BD70B490F820400568DE
:1007D000013C012CAE6806D9436A43F4802343628E
:1007E000012070BC704716F0E05F2ED0C6F30166A2
:1007F000032E31D00120B04018608B6893BB0C6889
:10080000C86806F118031B0140EA4450E850087D0F
:1008100009693601AB190128C3F8841105D1D3F851
:10082000841141F48071C3F8841135445168C5F8CE
:100830008C111268C5F88821D3F8802142F001029A
:100840000020C3F8802170BC7047436A43F4001352
:10085000436270BC01207047436A43F40003436263
:100860000120BEE7C8684C68034306F11800000188
:1008700043EAC4032B50CAE72DE9F04190F8204029
:10088000013C012C06D9436A43F4802343620120D2
:10089000BDE8F0810568002958D02C69A40758D01C
:1008A0000C012E19D6F8B07107F004079760002FDD
:1008B0005CD1D6F8B0717F0D1760D6F8B0E1D6F8EC
:1008C000B4C1D6F8B471D6F8B46125440EF0020E66
:1008D000D5F8B881C7F307270CF00F05360CC2E92D
:1008E00003E5C2E9056783F8008002682244D2F874
:1008F000B821120A5A7002682244D2F8B821120CA8
:100900009A7002682244D2F8B821120EDA70026896
:100910002244D2F8BC211A7102682244D2F8BC21C8
:10092000120A5A7102682244D2F8BC21120C9A7140
:1009300002681444D4F8BC21120EDA71026879B945
:10094000D36843F020030846D360A1E7EC68A6070C
:10095000A6D1436A43F4001343620120BDE8F0814D
:10096000136943F020031361002091E7D6F8B071BA
:10097000FF085760A1E700BF90F82030013B012B32
:1009800005D9436A43F4802343620120704702681B
:100990005369194351610020704700BF704700BF81
:1009A000704700BF704700BF704700BF704700BF6F
:1009B000704700BF704700BF704700BF704700BF5F
:1009C000704700BF704700BF704700BF2DE9F84F68
:1009D00003685C69D3F804809F68D3F80CB0D3F83F
:1009E0001090D3F818A014F00106054625D017F092
:1009F000010640F09C804FF400524FF48041F8050E
:100A00000DD52B684FF480709860BB0500F1C7804E
:100A1000780500F1D7803A0540F1E8800E46FB03E7
:100A20000BD52B684FF48032B8039A6000F1B38085
:100A3000790340F1C98046F40046230702D51BF034
:100A4000100F6ED1670702D51BF0080F7FD1A007EA
:100A500004D52B68DB68990740F08E80620602D5CA
:100A600019F0100F57D1A30603D519F0080F40F065
:100A70008780E70604D52B681B69980740F08780BC
:100A8000A10302D518F0100F68D1E20302D518F0C7
:100A9000080F6AD1230435D518F0040F2B682FD026
:100AA000E70504D51AF0010F18BF46F00106A005AE
:100AB00004D51AF0020F18BF46F00206610504D5EE
:100AC0001AF0040F18BF46F00406220518D51AF0D4
:100AD000700A15D0BAF1300F00F0968079D9BAF1CA
:100AE000500F00F08E80BAF1600F00F09080BAF1E4
:100AF000400F01D146F040069A6922F070029A61D7
:100B000004225A602EB16B6A1E436E622846FFF7BC
:100B10005BFFBDE8F88F2B68102246F480661A61EF
:100B2000A1E72B68102246F40076DA608AE70122FA
:100B30009A60BB0737D47E073DD417F0080659D01A
:100B40004FF440524FF4A0414FF4805657E72B68C2
:100B50000822DA602846FFF72DFF78E72B6810227D
:100B60005A602846FFF72CFF8FE72B6808225A604F
:100B70002846FFF727FF8DE7284605F02FFB6DE796
:100B80002B6808221A612846FFF718FF71E72846EC
:100B9000FFF712FF74E72846FFF704FF4DE72846EA
:100BA000FFF7FEFE3BE7FFF7F9FE00264FF4005289
:100BB0004FF4804123E74FF420524FF490414FF41B
:100BC00000661CE716462AE73A030BD546F4803642
:100BD00033E7BAF1100F1DD0BAF1200F8CD146F0D7
:100BE000100689E72846FFF7E3FE26E72846FFF7C9
:100BF000DDFE14E7FFF7D8FE4FF400524FF48041BA
:100C0000FDE646F0800677E746F0200674E746F4F6
:100C1000807671E746F008066EE700BF074AD368A2
:100C20004FF6FF010B40000243F0BF6300F4E060A9
:100C300043F400330343D360704700BF00ED00E08E
:100C4000184BDB68C3F3022330B4C3F10705042D4E
:100C500003F1040428BF0425062C19D9033B4FF0E7
:100C6000FF349C4022EA04044FF0FF32AA4021EAFC
:100C7000020101FA03F2224312010028D2B20ADB78
:100C800000F1604000F5614080F8002330BC7047FF
:100C900000242346E8E7044B00F00F0003441A76D3
:100CA00030BC704700ED00E0FCEC00E0002807DB02
:100CB00000F01F0101234009024A8B4042F8203016
:100CC000704700BF00E100E090F83530022B03D000
:100CD00080234365012070470268052380F8353082
:100CE000136823F0010313600020704790F835006B
:100CF000704700BF2DE9F04FD1F80080DFF8F4E134
:100D000083B0002403E00134102C00F08C80012318
:100D1000A34008EA03029342F5D1D1E9016526F028
:100D200010094FEA440C032309F1FF3703FA0CF3CF
:100D3000012F6FEA030305FA0CF577D9C7681F4046
:100D40003D43C560076806F003051F4005FA0CF334
:100D50003B430360F300D6D55F4D002301936B6CDA
:100D600043F480436B646D6C24F0030305F4804509
:100D700003F18043019503F59C3304F003054FEA2A
:100D80008509564D019FD3F808C00F2707FA09F7C8
:100D9000A8422CEA07071FD005F58065A84276D047
:100DA0004F4DA84279D04F4DA8427CD04E4DA8421D
:100DB0007FD04E4DA84200F082804D4DA84200F0F9
:100DC0008480DFF834C160450CBF4FF0070C4FF052
:100DD000080C0CFA09F52F439F60DEF80030D5436C
:100DE000F70354BF2B401343CEF80030DEF8043035
:100DF000B70354BF2B401343CEF80430DEF808305D
:100E0000F70254BF2B401343CEF80830DEF80C3005
:100E1000B60204F1010454BF2B401343102CCEF84A
:100E20000C307FF474AF03B0BDE8F08F876807EA39
:100E3000030ACF6807FA0CF747EA0A078760D0F879
:100E400004A0C6F300172AEA020AA74047EA0A07E5
:100E50004760C7681F403D43B9F1020FC5607FF48A
:100E600071AF4FEAD40900EB890904F00707D9F8FC
:100E70002050BF004FF00F0B0BFA07FB25EA0B0ABF
:100E80000D69BD4045EA0A05C9F820505AE74FF000
:100E9000010C0CFA09F52F439EE74FF0020C0CFAF7
:100EA00009F52F4398E74FF0030C0CFA09F52F438F
:100EB00092E74FF0040C0CFA09F52F438CE74FF042
:100EC000050C0CFA09F52F4386E74FF0060C0CFAD7
:100ED00009F52F4380E700BF0038024000000240C0
:100EE00000080240000C02400010024000140240C2
:100EF00000180240003C0140001C024002B90904F5
:100F000081617047436931EA030308BF09048161C5
:100F1000704700BF036D5BB9C36C0268012B836C23
:100F20000DD0C3F307231361036D013303657047CD
:100F3000036D012B09D0036D022B0ED07047DBB27D
:100F40001361036D023303657047836C0268DBB283
:100F50001361036D01330365704790F83D30222B18
:100F60000ED090F83D30212BE8D1426A036812F888
:100F7000011B1961438D4262013B9BB24385DDE752
:100F80000268136843F48073136070472DE9F042E0
:100F9000044600688946016841F480610160016887
:100FA00082B041F48071089D016016461F466B1C9B
:100FB0005AD14369D907FCD55FFA89F909F0FE03D4
:100FC0000361691C14D04369990714D443695B0514
:100FD0006ED4FFF7ABFA099BC01A8542C0F0E880D7
:100FE000002D00F0E5802068EBE743695B055FD4E6
:100FF00043699A07F9D500230193436901938369F3
:101000000193019B6B1C03D084E043695A0567D4AC
:1010100043691906F9D5012F40F08D80F6B20661BB
:101020006B1C03D094E043695E0559D443691F06E5
:10103000F9D5036843F4807303606B1C40F0A8800B
:101040004369DF07FCD549F00109C0F810906A1C1C
:1010500003D0CAE043695B052AD44369DB4313F03C
:101060000203F7D118461CE04369DA07A4D4FFF75E
:101070005DFA099BC01A8542206801D3002D96D1E4
:1010800000222023226384F83D3084F83E20236C24
:1010900084F83C2043F0200323640368DA0503D47A
:1010A000032002B0BDE8F0824FF400732364F7E739
:1010B0000368002243F400736FF48065202103600D
:1010C0004561226384F83D1084F83E20236C84F847
:1010D0003C2043F004032364012002B0BDE8F08209
:1010E000002220236FF480614161226384F83D3047
:1010F00084F83E20236C84F83C2043F004032364EE
:10110000236C042BE8D12268136843F40073136046
:101110000120C6E743691B063FF57DAF43695A05C9
:10112000DED4FFF703FA099BC01A85424FD3002D86
:101130004DD0206866E7330A03616A1C03D017E0CC
:1011400043695F05CCD443691B063FF567AFF7E7FA
:10115000436919063FF56DAF43695A05C0D4FFF7DF
:10116000E5F9099BC01A854231D385B3206857E75A
:10117000436919063FF552AF43695905B0D4FFF7EB
:10118000D5F9099BC01A854221D305B32068D4E75D
:101190004369DE073FF557AFFFF7C8F9099BC01A4F
:1011A00085422068FFF46CAF002D7FF446AF67E7FF
:1011B00000222023226384F83D3084F83E20236CF3
:1011C00084F83C2043F020032364012069E70022D7
:1011D0002023226384F83D3084F83E20236C84F879
:1011E0003C2043F0200323648AE74369DB4313F088
:1011F00002033FF437AF436959053FF559AFFFF795
:1012000095F9099BC01A8542D2D3002DD0D0206811
:101210001DE700BF002800F09F80F8B590F83D3032
:10122000044603F0FF02002B00F08F802368242285
:1012300084F83D201A6822F001021A601A6842F40C
:1012400000421A601A6822F400421A6002F008F99B
:1012500061684B4B99424BD84A4B98427AD92268E5
:10126000494B5568A3FB00639B0C25F03F051D43CC
:101270005560156A013325F03F052B431362D5698C
:101280004900431EB3FBF1F30133C3F30B0325F411
:101290004F45042B38BF042325F0FF052B43D361B2
:1012A000D4E907351068216920F0C0002B430343BF
:1012B00013609068E568636920F4034020F0FF0044
:1012C000294301439160D168A06921F0FF010343E4
:1012D0000B43D3601168002341F001012025116008
:1012E0001846236484F83D50236384F83E30F8BDEB
:1012F000264B98422ED92268234B5668244FA3FBD5
:1013000000539D0C26F03F062E434FF49673566013
:1013100003FB05F3A7FB0353156AA6689B0925F099
:101320003F0501332B431362D56925F44F4501383E
:1013300025F0FF0596B901EB4101B0FBF1F001305A
:10134000C0F30B00C0B90123A8E780F83C2005F0EA
:10135000BFFA6BE70120F8BD0120704701EB810166
:1013600001EB8101B0FBF1F00130C0F30B0000286C
:10137000E9D040F4404391E740F400438EE700BFDA
:10138000A08601007F841E0083DE1B43FF083D0012
:10139000D34D62102DE9F047044682B099460F46BE
:1013A00090460A9DFFF7C2F894F83D30202B03D0F9
:1013B000022002B0BDE8F087064605E0FFF7B6F868
:1013C000801B192800F2E18023689A69D24312F049
:1013D000020AF3D094F83C20012AE9D01A680121CE
:1013E000D20784F83C1002D41A680A431A601A68BB
:1013F000A04822F400621A60212284F83D201022C5
:1014000084F83E2000222264A4F82A90618DE062D4
:10141000E26AC4F82480082A218571D0012A6FD09D
:1014200082426DD0226B122A6AD0681C40F08B80F9
:101430005A69D107FCD52269B2F5804F40F0C980C6
:1014400007F0FE071F616F1C04D0E9E05A695105DF
:1014500000F1A9805A699007F8D5002201925A69D3
:1014600001929A690192019A228D002A00F0E78088
:10147000681C03D049E05A6952052AD45A691106FA
:10148000F9D5676AB4F828C038460CF1FF3110F876
:10149000012B1A61628D6062013A92B262855869CD
:1014A00089B2400721850CD559B17A781A61628DCD
:1014B000013AACF1020C023792B2A4F828C067627C
:1014C00062856F1C30D15A695007CDD45A695105D5
:1014D000F9D500226FF4806020215861226384F8DE
:1014E0003D1084F83E20236C84F83C2043F0040334
:1014F0002364236C042B7ED0012002B0BDE8F0876A
:101500001A6842F480721A608FE75A691706B8D4D5
:101510005A695705DDD4FFF709F8801B854271D35E
:10152000002D6FD02368A3E75A6952079CD45A69EB
:101530005205CED4FEF7FAFF801B854262D3002D00
:1015400060D02368BDE75A69D2073FF574AFFEF754
:10155000EDFF801B8542236802D3002D7FF465AF29
:1015600000212022216384F83D2084F83E10226C63
:1015700084F83C1042F0200222641B68DD05BBD5D4
:101580004FF400732364012013E72023C4F830A034
:1015900084F83D3084F83EA0236C84F83CA043F0EE
:1015A0002003236404E71968002220206FF480657B
:1015B00041F4007119605D61226384F83D0084F894
:1015C0003E20236C84F83C2043F004032364012074
:1015D000EFE6FA1102F0060242F0F0021A61691C0D
:1015E00003D039E05A695005DDD45A691207F9D59C
:1015F000FFB21F6127E72268136843F4007313608A
:101600000120D6E600222023226384F83D3084F8AE
:101610003E20236C84F83C2043F02003236468E7D9
:101620005A6992073FF519AF5A695205BBD4FEF7C4
:101630007DFF801B85421FD3F5B1236803E719683E
:10164000202541F400711960104684F83D5084F85B
:101650003C2084F83E20ACE65A691107C8D45A6988
:101660005005A0D4FEF762FF801B854204D31DB154
:101670002368B4E70000FFFF00222023226384F8E0
:101680003D3084F83E20236C84F83C2043F0200356
:10169000236431E72DE9F04F044687B099460F46A1
:1016A0009046BDF844A0129DFEF740FF94F83D30EF
:1016B000202B04D00227384607B0BDE8F08F06463D
:1016C00004E0FEF733FF801B19284AD8226893698B
:1016D000DB4313F0020BF4D094F83C30012BE9D03B
:1016E00013680121DB0784F83C1002D413680B4314
:1016F00013601368A24823F400631360222384F864
:101700003D304022002384F83E202364A4F82AA020
:10171000B4F82AC0109B63623946CDE900564B46A7
:10172000E0624246A4F828C02046FFF72FFC074697
:10173000A8B9228D236812BB02905A6902929A6955
:101740000292029A1A6842F400721A600023202260
:1017500084F83D2084F83C3084F83E30ABE7012724
:10176000A9E72023C4F830B084F83D3084F83EB0B7
:10177000236C84F83CB043F0200323649AE7012AE9
:1017800000F09180022A00F0FD80059059690591D2
:10179000996905910599032A48D8012A00F0BC806F
:1017A000022A74D0681C40F08D805A695107FCD51C
:1017B0001A68616A22F480621A601B690B70638D7B
:1017C000616A228D013B9BB20131013A63856162FE
:1017D0002285681C226840F0818053695907FCD536
:1017E0001368616A43F40073136013690B70638DAF
:1017F000606A218D2268013B9BB26385126900F10A
:10180000010C4B1EC4F824C023854270228D638DC9
:10181000616A013A013B92B29BB201312285638534
:101820006162002A92D0032A2368B6D955B998E09C
:101830005A69D20600F18280FEF778FE801B85424D
:1018400058D323685A695106F2D5626A1B6913702E
:10185000618D2368228D606A013989B26185596979
:10186000013A92B200F1010C49072285C4F824C064
:10187000D7D51B694370C9E75A6952070CD4FEF7E4
:1018800055FE801B854235D3002D33D02368681C5C
:10189000F2D15A695107FCD51A68616A42F40072A4
:1018A0001A601B69A2E7196821F48061196003902E
:1018B00059690391996903910399196841F4007179
:1018C000196068E75A6952073FF572AFFEF72EFEBE
:1018D000801B85420ED36DB1236863E753695B07B4
:1018E0003FF57EAFFEF722FE801B854202D3002D1E
:1018F0007FF46FAF00222023226384F83D3084F808
:101900003E20236C84F83C20012743F02003384616
:10191000236407B0BDE8F08F4DB92CE05A69D106B9
:101920000CD4FEF703FE801B8542E3D323685A697B
:101930005006F3D5626A1B69137067E700226FF0E7
:10194000100020215861226384F83D1084F83E2065
:10195000236C84F83C2001273846236407B0BDE897
:10196000F08F5A6950063FF570AF5A69D006E5D43A
:10197000FEF7DCFDBEE75A695206F6D5DAE700BF8E
:101980000000FFFF196821F480611960196841F4B3
:10199000006119600490596904919969049104994E
:1019A000F9E600BF704700BF704700BF704700BF37
:1019B000704700BF704700BF704700BF704700BF4F
:1019C000704700BF704700BF704700BF836BD3E90B
:1019D0000D0170B593F83D401A68E6B240B300249B
:1019E000C463F1B11568CC6325F4806515605C852E
:1019F000046500200865116821F00101116093F869
:101A00003D10602929D006F02804282C18D0202168
:101A1000002283F83D1083F83E201846FFF7D2FFDE
:101A200070BD146824F48064146059850165E2E790
:101A3000F1B11468C86324F4806414605885D8E751
:101A4000116841F0010111601168002041F48061CA
:101A50001160186383F83D40DFE70022202183F8FE
:101A60003D10184683F83E201A64FFF7ADFF70BDA5
:101A7000106820F4806010605985BCE770B5036879
:101A800004465868E56A94F83E2094F83D10D2B2B6
:101A9000102A8CB020D0402A1ED0226CC9B2002A55
:101AA00000F0BB805A690026C2F34005002D78D0B3
:101AB00085057BD5226C02B19E6994F83D2002F029
:101AC0002802282A00F01C826FF0020100225961CE
:101AD00084F83C200CB070BD99695A69D6073AD495
:101AE000B5F52A0FF6D0B5F12A4FF3D0160740F11D
:101AF0009A80850500F1F58111F0040F596800F016
:101B0000FF800905E6D41606C2F3800140F1A081EA
:101B1000450540F19D81002940F09D8194F83D20CC
:101B2000208D94F83E10E56AD2B2C9B2002840F088
:101B30007883212A00F018844029CBD1222AC9D1E8
:101B4000628D92B2002A00F0098494F83E20402A67
:101B500040F0B6808DE1850562D5E26AB2F52A0FC4
:101B600000F0E981E26AB2F12A4F04BF0822E26282
:101B700094F83E20402A00F0D7812269B2F5804FC8
:101B800000F09781226D002A00F0D881226D012A91
:101B9000A0D1626CD21102F0060242F0F1021A6189
:101BA00098E7D60602D5860500F1D78001F0F70147
:101BB0002129C2F380054ED0510640F18B804205A9
:101BC00040F18880002D40F0888094F83D10628DAF
:101BD00092B2C9B2002A3FF47DAF626A1B691370EA
:101BE000638D626A013B9BB26385638D01329BB258
:101BF0006262002B7FF46EAF2A297FF46BAF2268FC
:101C00005368222523F480632821536020462563EE
:101C100084F83D10FFF7CCFE5CE79E695A6943E704
:101C200015073FF569AF96077FF566AF85057FF528
:101C300063AF94F83E20E06A256B94F83D102229AA
:101C4000D2B200F00B8200220A925A690A929B6972
:101C50000A930A9B3EE7120627D5460525D53DBBCC
:101C600094F83D00628D92B2C0B2002A3FF432AFC8
:101C7000656A15F8012B1A61628D6562013A92B2AC
:101C80006285628D92B2002A7FF424AF29287FF406
:101C900021AF5A68282522F480625A6020462163C9
:101CA00084F83D50FFF782FE14E7002D3FF412AF99
:101CB00080057FF50FAF628D92B2002A3FF40AAF24
:101CC000626A12F8011B1961638D6262013B9BB26B
:101CD0006385FFE6002D3FF4FDAE86057FF5FAAE85
:101CE000628D92B2002A3FF4F5AE626A1B691370EE
:101CF000638D626A013B9BB2013263856262E9E6F1
:101D00000E053FF5E7AE5506C2F3800140F1B780FE
:101D1000420540F1B480002940F0B48094F83D20A1
:101D2000222A7FF4D7AE628D92B2032A40F2E98272
:101D3000626A1B691370638D626A013B9BB26385A3
:101D4000638D9BB20132032B62627FF4C3AE2268C3
:101D5000536823F480635360BCE694F83D105A68DE
:101D600022F4E0625A600B955A690B921A6842F0AD
:101D700001021A600B9A1A6822F480621A605A688B
:101D8000CDB2110521D505F0F702222A00F04181DC
:101D9000606B0268526892B26285628D92B21AB12B
:101DA000226C42F0040222645A6822F400625A60F3
:101DB000FEF79CFF012808D0606BA64B0365FEF779
:101DC00083FF10B1606B036D9847638D9BB213B3B3
:101DD00023685A6952070AD5626A1B691370628DBB
:101DE000616A2368013A92B20131628561625A697F
:101DF000560609D5626A1B691370638D626A013BDE
:101E00009BB2013263856262638D9BB21BB1236C0E
:101E100043F004032364236C002B40F09D802A2DA3
:101E200000F04F8194F83D30282B00F0E080236BC8
:101E3000222B02D0222D7FF44DAE002320222363DB
:101E4000204684F83D2084F83E30FFF7B1FD41E69E
:101E500000293FF43FAE82057FF53CAEE16A94F87D
:101E60003D20212A00F06E8194F83E30402B7FF413
:101E700031AE20460CB0BDE87040FFF74BB80029EA
:101E80003FF428AE86057FF525AEE06A628D616A73
:101E900092B2042A00F07B81628D92B2032A00F094
:101EA000B181628D92B2022A00F0D4811B690B705D
:101EB0001EE794F83D20212A626C16BF42F0010211
:101EC00002F0FE02D2B21A61626B002A00F0E380D7
:101ED000D26B002A00F0DF805A6842F400625A6038
:101EE000F8E5626C616BD2B21A61002900F08C8057
:101EF000CA6B002AF0D1A26BD26B002AECD1E9E5C3
:101F00005A6822F480625A606FEA960133064FF0F5
:101F1000000301F0010154BFA289228B84F83C30F8
:101F20002046FFF747FDD5E5226D7AB9626C02F0D5
:101F3000FE021A61CEE50122E26219E6626CD2115C
:101F400002F0060242F0F0021A61C3E5626C42F050
:101F50000102D2B21A61BDE594F83D2094F83E101A
:101F600023681029D2B200F0B98002F02801282994
:101F700000F0AF805968090504D4602A02D02022FD
:101F800084F83D200022226384F83E205A6812F42F
:101F9000006200F085805A68606B22F400625A602B
:101FA00090F83530012B00F00F812A4B0365FEF7C6
:101FB0008BFE50B12268606B1368016D23F0010342
:101FC0002025136084F83D508847236C180704D0FF
:101FD0002268536823F4E063536094F83D30226C28
:101FE0005107DBB27FF576AD282B7FF473AD1A4B2A
:101FF000E362202200232363204684F83D2084F8F6
:102000003E30FFF7D9FC65E5A26B002A7FF470AF84
:1020100060E5A06B0268526892B26285628D92B2EE
:102020001AB1226C42F0040222645A6822F400625F
:102030005A60FEF75BFE01283FF4C7AEA06B054B6C
:102040000365FEF741FE00283FF4BFAEA06B036DB1
:102050009847BAE6CD1900080000FFFF216D11B9BD
:10206000402A00F0E280226D22B92169B1F5404F8B
:1020700000F0E280628D92B2002A3BD103925A694D
:1020800003929A690392039A1A6842F400721A60E2
:10209000002323651EE5A26B002A7FF42DAF19E50E
:1020A00094F83D10602979D05A69550605D5626AC1
:1020B0001B691370636A013363622046FFF782FC79
:1020C00083E728222363204684F83D20FFF770FC35
:1020D000A8E60022226384F83D1057E7222A7FF405
:1020E00044AF1A6822F400621A605A6810057FF53E
:1020F00046AF47E7628D92B2012A00F0E180628D1F
:1021000092B2022A00F056811A6842F480621A6084
:102110005A6815050ED510F5803F07D001381F28E5
:1021200008D8A14A22FA00F0C00703D55A6842F441
:1021300080525A60002209925A6909929B69099358
:10214000099BA5E7628D92B2002A7FF4B9AD0829F8
:1021500005D0202903D011F5803F40F07E815A68D8
:1021600022F4E0625A6019680022202041F40071D4
:102170001960226384F83D0094F83E3084F83E20D4
:10218000402B204600F00B81FFF70CFCA2E45A68BC
:1021900022F480625A601B690B70A9E5202184F843
:1021A0003D1022645A69560606D5626A1B6913708F
:1021B000626A2368013262621A6822F001021A60C0
:1021C0002046FFF701FC00E7A06B784B0365FEF7A4
:1021D0007BFD00283FF4F9AE23685A69520606D504
:1021E000626A1B691370626A2368013262621A684C
:1021F000A06B22F0010220211A60036D84F83D10CB
:102200009847E2E65A68042822F480625A603FF454
:102210004DAE02283FF44AAE1A6822F480621A607A
:1022200044E6212A3FF48CAC86E401915A6901927C
:102230009B690193019B4DE402925A6902929A694B
:102240000292029A1A6842F480721A60236D013376
:1022500023653FE401281A687CD010287AD004282E
:1022600000F00881022800F0058142F400721A6033
:102270001B690B70638D626A2168013B9BB26385A9
:102280000B69511C61625370638D2168626A013B66
:102290009BB263854B68013223F440732020626255
:1022A0004B6084F83D0094F83E30402B49D000222A
:1022B000122384F83E2020462363FFF775FB09E4D0
:1022C00010F5803F00F0B580082800F0A28020289B
:1022D00000F09F80122D00F09980102805D8344A14
:1022E00022FA00F0C00700F1D4801A6822F480625C
:1022F0001A60002206925A6906929B690693069B11
:10230000C6E6E16A02293FF4E5AB012A3FF6E2ABFB
:102310001A68616A22F480621A605A6822F4E062E4
:102320005A601B690B70638D626A013B9BB220216E
:10233000638584F83D1094F83E300132402B626290
:10234000B5D1002384F83E3020462363FFF738FBE5
:10235000FFF7C0BB22F480621A6089E75A6822F452
:1023600080625A60FFF7B6BB082D3FF4F8AE202D0F
:102370003FF4F5AE15F5803F3FF4F1AE5A681126F3
:1023800022F4E062002520215A602046266384F86A
:102390003E5084F83D10FFF705FBFFF79BBBFFF7AE
:1023A0000DFBFFF797BB00BF81800080CD190008AF
:1023B00014000100102820D91A6822F480621A60E3
:1023C0001A6842F400621A605A6812050DD510F5B9
:1023D000803F06D001381F2807D8304AC240D607B0
:1023E00003D55A6842F480525A60002208925A6912
:1023F00008929B690893089B4AE6294AC240D10784
:10240000DAD51A6842F480621A60DDE701283FF4E9
:102410006CAF1A68002122F480621A6007915A6931
:1024200007929A690792079A1A6842F400721A6032
:102430002EE61A6822F480621A605A6812F400626A
:102440001CD01A68002122F480621A6004915A6933
:1024500004929B690493049B1AE65968112621F49F
:10246000E061202559602046266384F83E2084F8E8
:102470003D5089E642F480621A60F9E605925A6995
:1024800005929A690592059A1A6842F400721A60D8
:10249000FEE51A6842F480621A602AE781800080B3
:1024A00014000100F0B58BB0002800F0838090F894
:1024B000BD330568044603F0FF0233B32846032307
:1024C00084F8BD33EB6B254613F4807308BF23619A
:1024D00001F032FA55F810CB2F460FCF6E460FC6DB
:1024E0000FCF0FC697E8030086E80300261D60465D
:1024F00096E80E0001F032F9074660B1022384F835
:10250000BD33012528460BB0F0BD80F8BC2304F094
:1025100051FB2068D3E70146206801F015FA606896
:1025200060B339463A464FF0010CC1EBC10304EBEE
:1025300083034F1C83F83C10A3F84210F9B2814288
:1025400083F83DC083F83F20C3E911221A65ECD31C
:1025500000221146C2EBC20304EB8303571C83F82D
:10256000FC21FAB2824283F8FD1183F8FF11C3F80F
:102570000412C3F80812C3F81012EBD30FCD6F4644
:10258000D4F800C00FC70FCD0FC795E8030087E848
:102590000300604696E80E0001F0EEF905460028BB
:1025A000ACD1012384F83800206884F8BD3301F0F1
:1025B000C7FDA7E7012528460BB0F0BD90F8BC3356
:1025C000012B1AD0826A036801218A4210B580F873
:1025D000BC130AD00446184601F0A6FD206801F09D
:1025E000A3F9002084F8BC0310BD82698A42F1D0AF
:1025F0009A6B42F480329A63ECE70220704700BF86
:102600002DE9F04F066889B00446304601F0D6FD4A
:1026100010B109B0BDE8F08F0546206801F09CFDBF
:102620000028F6D0206801F097FD10F0020F206816
:102630001EBF436903F00203436101F08DFD10F0FA
:10264000100F206811D0836923F010038361376A6B
:10265000C7F34343022B07F00F085DD0062B00F0B1
:102660008382836943F01003836101F075FD10F4E8
:10267000002F206840F0C68101F06EFD10F4802F1D
:10268000206840F00A8101F067FD002864DB2068C3
:1026900001F062FD010530D4206801F05DFDC30446
:1026A0006ED4206801F058FD10F4005F206840F0FF
:1026B000DD8001F051FD070700F1CF80206801F0B7
:1026C0004BFDC60200F1BF80206801F045FD850288
:1026D00000F1AF80206801F03FFD400000F1A080D4
:1026E000206801F039FD410793D523685D686A07CA
:1026F0000DD45A682A435A608BE7D6F80838DA07AF
:1027000026D42068436903F400634361C5E720468B
:1027100004F0EEFA2368ECE747F6F0731F42A0D00E
:10272000C8EBC80804EB8808C7F30A17D8F80812E2
:102730003A46304601F07CFCD8F80812D8F814224A
:10274000206839443A44C8F80812C8F8142288E7C7
:10275000204604F0A5FAD4E794F8F413D6F8042838
:10276000012922F00102C6F8042800F0D181204698
:1027700004F0AEFA2068436903F00043436187E741
:1027800006F500677B68206823F0010310217B6059
:1027900001F0DEF96068F8B106F510634FF67F319D
:1027A00099601A6822F400121A601A6842F00062F6
:1027B0001A60C3F80812D3F8002222F40012C3F8FA
:1027C0000022D3F80022013542F000628542C3F8AE
:1027D000002203F12003E3D1FB69226B43F00113D4
:1027E000FB61002A00F08981D7F8843043F00B03A5
:1027F000C7F884307B6C43F00B037B64D6F8003859
:10280000217C206823F4FE63C6F8003804F5717259
:1028100001F0E8FC2068436903F48053436141E719
:10282000204604F061FA2068436903F08043436165
:1028300057E72046002104F04FFA2068436903F46B
:102840000013436147E72046002104F049FA20685D
:10285000436903F48013436137E7204604F006FA26
:102860002068436903F00803436128E701F0AAFCEC
:10287000206801F07FF9E060256800F0EBFD227B25
:102880000146284600F0D4FF204604F0F3F9206802
:10289000436903F4005343610BE701F069FC804690
:1028A0002068B8F1000F3FF4EEAE06F51063CDE9F5
:1028B0000365A3464FF0000A1E4607E05FEA58088A
:1028C0000AF1010A0BF11C0B00F0D38018F0010F84
:1028D000F4D05FFA8AF9494601F05CFC0546E80746
:1028E00017D5039B2169D3F8340801270AF00F029A
:1028F00007FA02F220EA020006EB4A12C3F8340893
:102900001346B9429F6000F00A814946204604F010
:10291000A3F9290703D506EB4A1308229A60EA06B1
:1029200003D506EB4A1310229A606B0603D506EB1B
:102930004A1340229A60AF0703D506EB4A130222DE
:102940009A6027682D063846B8D5DBE914138B4208
:10295000B4D807F5106202EB4A121046DBF84420A7
:102960000590CD1A954280690697AC4628BF9446DB
:1029700080B20CF1030CB0EB9C0F31D38B4233D2FD
:1029800091B3CDF81C80DBF84810DDF8148007E027
:10299000DBF850509D4240F22B81DBF84420ED1AC9
:1029A000954228BF1546237C00934A46ABB2384671
:1029B00001F028FBD8F81820DBF84810DBF8543079
:1029C00029442B4492B20335B2EB950FCBF8481053
:1029D000CBF85430DCD2DDF81C802768DBF85010CF
:1029E000994238463FF66AAF069B0120D3F8342857
:1029F0000AF00F0100FA01F122EA01023846C3F899
:102A000034285BE701F0ACFB07462068002F3FF459
:102A100033AE4FF0000806F5306A04E07F0808F195
:102A200001083FF429AEFB07F8D55FFA88FB594649
:102A300001F0A6FB814619F0010F206838D119F08A
:102A4000080F19D119F0100F03D00AEB4813102208
:102A50009A6019F0200F03D00AEB481320229A60E5
:102A600019F4005FDAD00AEB48134FF400529A6071
:102A7000D4E7DDE9036506E64FEA48120AEB0203F4
:102A80000821996000F530631344026C5F4899682F
:102A9000824257D90A0402D54FF400429A60204678
:102AA00004F0CAF82169012900F0A6802068C9E76E
:102AB0004FEA48130AEB0302216900F5306E4FF02C
:102AC000010C7344C2F808C00129D0F840C09A68CC
:102AD0003DD04F498C455AD0B8F1000F07D1D4F8FA
:102AE000103223B904F57172414601F07BFB204698
:102AF000594604F0A7F82068A1E77B6943F4005326
:102B000043F02B037B613B6943F00B033B6175E6AC
:102B1000002184F8F413204600F0EEF92AE6DBE900
:102B200011231344CBF84830BAF1000F7FF4EDAE17
:102B3000236D002B7FF4E9AE04F57172206801F07B
:102B400051FBE2E6204604F077F820687AE71107A7
:102B500024D52E498C457FF672AF12047FF56FAFF6
:102B60004FF400429A606AE7082204F5717130461A
:102B7000C8EBC80801F05CFA04EB8802C7F30A133B
:102B8000D2F8141220680B44C2F8143269E511041B
:102B9000E6D49106ABD520229A60A8E7910631D4FD
:102BA00012F0280F7FF44BAF18498C4501D912045D
:102BB000D6D4C8EBC80204EB82021969D2F80432F9
:102BC000C1F31201A3EB010CD2F80812C2F814C22F
:102BD0000B44C2F80832B8F1000F88D1D4F8103293
:102BE000002B84D104F57172012101F0FBFA7EE71C
:102BF000DDF81C802768F7E604F57172206801F0A3
:102C0000F1FA53E720229A6019E700BF0A30544FC7
:102C10000A31544F90F8BC23012A0DD010B5044658
:102C2000012284F8381080F8BC23006801F06CFAA7
:102C3000002084F8BC0310BD02207047F8B501F0F5
:102C40000F05C5EBC504C5EBC50609064FEA8404AC
:102C500000EB86061ED404F5FE740027011986F8E1
:102C6000FD714C780D708A60CB7004B1CD80022B61
:102C700004BF00230B7190F8BC33012B10D001234B
:102C8000044680F8BC33006800F080FF002084F820
:102C9000BC03F8BD3C340127011986F83D70E0E71C
:102CA0000220F8BD01F00F0238B50906C2EBC203DD
:102CB000C2EBC2044FEA830300EB840415D403F58E
:102CC000FE73C118002584F8FD510A7090F8BC33DA
:102CD000012B14D00123044680F8BC33006800F0B7
:102CE00099FF002084F8BC0338BD3C33C11801258E
:102CF00084F83D500A7090F8BC33012BEAD10220D1
:102D000038BD00BF38B501F00F05C5EBC50400EBB9
:102D100084040021C4F80822C4F8141284F8FD11B8
:102D2000C4F8103284F8FC5103691C2101FB050131
:102D3000012B08BFC4F80C2201F5FE710068DAB25D
:102D40001DB100F0C7FF002038BD01F0D5F800200C
:102D500038BD00BF01F00F01C1EBC10100EB8101E3
:102D6000D1F81402704700BF70B501F00F05C5EB34
:102D7000C50400EB840401210026A26484F83D1000
:102D8000236584F83C50666503691C2101FB05013D
:102D9000012B08BFE2643C310068DAB21DB100F0DB
:102DA00099FF002070BD01F0A7F8002070BD00BFA2
:102DB00038B5436801F00F059D421FD80B061FD49C
:102DC000C1EBC1031C2404FB010100EB83030022BF
:102DD00001F5FE7183F8FD2101230D708B7090F8D1
:102DE000BC239A421ED0044680F8BC33006801F030
:102DF00033F9CDB1002084F8BC0338BD012038BDC3
:102E0000C5EBC5031C2101FB050100EB8303012277
:102E10003C3183F83D2001230D708B7090F8BC236A
:102E20009A42E0D1022038BD04F57172217C2068FD
:102E300001F0D8F9DEE700BF38B5436801F00F02B2
:102E40009A4221D8C2EBC203C2EBC20409064FEA80
:102E5000830300EB840419D403F5FE73C118002525
:102E600084F8FD5100250A708D7090F8BC33012B59
:102E700018D00446012380F8BC33006801F018F92B
:102E800084F8BC53284638BD012038BD3C33C118F6
:102E9000012584F83D5000250A708D7090F8BC33F0
:102EA000012BE6D1022038BD30B4056812046C6AEB
:102EB000C1B1AB6A013904EB13440BD0002303F119
:102EC000400005EB800001334068DBB28B4204EB2D
:102ED0001044F4D3403105EB810114434C600020D1
:102EE00030BC70471443AC62002030BC704700BF58
:102EF0000368002059627047704700BF002800F047
:102F000032812DE9F0410368DD0782B004462FD5F8
:102F1000AC498A6802F00C02042A00F0EA808A6850
:102F200002F00C02082A00F0E0806368B3F5803FED
:102F300000F0E980B3F5A02F00F07881A14D2A6858
:102F400022F480322A602A6822F480222A60002B30
:102F500040F0DE80FDF7EAFA064605E0FDF7E6FA06
:102F6000801B642800F2F2802B689B03F6D4236850
:102F70009F0775D41A0715D56369002B00F0A5804B
:102F8000914B904D01221A60FDF7D0FA064605E0FC
:102F9000FDF7CCFA801B022800F2D8806B6F9B07EC
:102FA000F6D5236858073BD5864A136C13F0805337
:102FB00040F0DB800193136C43F080531364136C77
:102FC00003F080530193019B0126804D2A68D105AF
:102FD00040F1AC80A368012B00F0C980052B00F004
:102FE0002F81784D2A6F22F001022A672A6F22F082
:102FF00004022A67002B40F0BF80FDF797FA41F2E8
:103000008837804606E0FDF791FAA0EB0800B84249
:1030100000F29C802B6F9807F5D4002E40F0DC80E6
:10302000A069C8B1674DAA6802F00C02082A00F036
:10303000D980674A00210228116000F00B81FDF75A
:1030400075FA2C46054604E0FDF770FA401B02288D
:103050007CD823689B01F7D4002002B0BDE8F08142
:10306000584A916811F00C0F24D0916801F00C01BE
:1030700008291CD0E368002B00F09280554B514D7D
:1030800001221A60FDF752FA064604E0FDF74EFAF7
:10309000801B02285AD82B689807F7D52B6822691D
:1030A00023F0F80343EAC2032B60236862E7526807
:1030B0005602DFD4434A126895074BD5E268012ACD
:1030C00048D0012002B0BDE8F0813F4A3D4D136079
:1030D000FDF72CFA064604E0FDF728FA801B0228CB
:1030E00034D86B6F9F07F7D45BE74A6850027FF5CF
:1030F0001CAF344A126891037FF53AAF6268002A28
:103100007FF436AFDDE72F4A136843F48033136052
:10311000FDF70CFA2B4D064604E0FDF707FA801B7D
:10312000642813D82B689A03F7D520E72A6842F45D
:1031300080722A60FDF7FAF907462B68DA053FF539
:1031400049AFFDF7F3F9C01B0228F6D9032002B0FE
:10315000BDE8F0811B4920690A6822F0F80242EAC2
:10316000C0020A6006E70120704700262DE7154AD5
:10317000136F43F001031367FDF7D8F9114D804633
:1031800041F2883705E0FDF7D1F9A0EB0800B8421D
:10319000DCD82B6F9B07F6D5002E3FF441AF1BE028
:1031A0000C4A084D1360FDF7C1F9064604E0FDF72F
:1031B000BDF9801B0228C9D82B689907F7D423686A
:1031C000D8E600BF00380240800E47420070004041
:1031D0006000474200004742354A136C23F0805399
:1031E00013641DE701283FF46DAF6B68E26903F4D7
:1031F000800191427FF465AF226A03F03F01914262
:103200007FF45FAF47F6C072616A1A408A427FF46A
:1032100058AFA26A03F4403191427FF452AFE06AA2
:1032200003F07063181A18BF01204BE7204B1A688F
:1032300042F480221A601A6842F480321A6067E70A
:103240001B4B1A6F42F004021A671A6F42F0010218
:103250001A6791E7FDF76AF9064605E0FDF766F99A
:10326000801B02283FF672AF2B689901F6D4D4E98F
:103270000736D4E90902E16A0D4C334343EA80136F
:10328000520843EA0163013A0A4943EA0243012230
:103290006B600A60FDF74AF9054605E0FDF746F95F
:1032A000401B02283FF652AF23689A01F6D5D3E6B9
:1032B0000038024060004742154908B58B6803F0AA
:1032C0000C03082B01D0134808BD4A684B6813F45F
:1032D000800302F03F0210D149680E48C1F3881103
:1032E000A1FB0001FCF77CFF094B5B68C3F30143C2
:1032F00001335B00B0FBF3F008BD4B680548C3F336
:103300008813A3FB00010023FCF76AFFECE700BF72
:10331000003802400024F40060B1494A136803F009
:103320000F038B4208D2CBB21370136803F00F0364
:103330008B4201D00120704703682DE9F0419D07C1
:1033400014D55C0704D53F4CA26842F4E052A26059
:103350001A0704D53B4CA26842F46042A260394C83
:103360008568A26822F0F0022A43A260DF070446C3
:103370000D4622D54268012A57D0931E012B314BAE
:103380001B6859D9990725D52E4EB36823F003033E
:103390001343B360FDF7CAF841F28837804605E071
:1033A000FDF7C4F8A0EB0800B84243D8B3686268E0
:1033B00003F00C03B3EB820FF2D1214A136803F040
:1033C0000F03AB4209D9EBB21370136803F00F037C
:1033D000AB4202D00120BDE8F08123685A0706D530
:1033E0001849E0688A6822F4E05202438A601B07A9
:1033F00012D4FFF761FF134B134C9B681349144A17
:10340000C3F30313E35C20FA03F30868136003F0CB
:10341000A1FA0020BDE8F0810A4A2169936823F4EB
:10342000604343EAC1039360E3E7064B1B689E03D6
:10343000AAD4CFE70320EDE79801A5D4CAE700BFDF
:10344000003C02400038024050A90008040000205F
:103450001C010020014B1868704700BF1C010020B0
:10346000044B054A9B680549C3F382230868D35C73
:10347000D84070470038024060A900081C010020B5
:103480000E4B0F2202609A6802F0030242609A68B3
:1034900002F0F00282609A6802F4E052C2609B6817
:1034A000DB0810B403F4E053054C036123685DF8B6
:1034B000044B03F00F030B60704700BF003802405D
:1034C000003C0240704700BF00285CD0F8B590F87F
:1034D0003D30044603F0FF02BBB322683A4EA569B3
:1034E000E0686168022384F83D30B24213684CD032
:1034F000B2F1804F58D0A6F57C46B2422AD006F5EC
:103500008066B24226D006F58066B24222D006F529
:103510007846B2421ED006F57056B24213D006F578
:103520008066B2420FD006F58066B2420BD0A6F597
:103530009836B24207D006F58066B24203D006F54F
:103540008066B24238D1266933E080F83C20FFF72C
:10355000B9FFC2E7A6681D4F23F070033343266905
:1035600023F44073334323F080032B43BA421360A8
:10357000D062916201D1636913630123536100201A
:1035800084F83D30F8BD01207047A768266923F014
:1035900070033B4323F44073334323F080032B43F6
:1035A0001360D0629162E6E7A768266923F0700392
:1035B0003B4323F44073334323F080032B431360D6
:1035C000D0629162D9E700BF0000014000040140D1
:1035D0000368DA6842F00102DA609A6802F00702D2
:1035E000062A03D01A6842F001021A6000207047D0
:1035F000704700BF704700BF704700BF704700BFF3
:1036000003681A69910710B5044602D5DA68920773
:103610005FD41A69500702D5DA68510746D41A698F
:10362000120702D5DA6810072ED41A69D20602D51D
:10363000DA68D00618D41A69D10702D5DA68D20739
:103640005DD41A69100602D5DA6811065FD41A69CA
:10365000520602D5DA68500661D41A69910602D57D
:10366000DA68920643D410BD6FF010021A61DB696C
:10367000082213F4407F2277204664D0FFF7BAFF78
:10368000002223682277D6E76FF008021A61DB690F
:10369000042299072277204652D1FFF7A9FF20463E
:1036A000FFF7AAFF002223682277BEE76FF004022B
:1036B0001A619B69022213F4407F227720463CD195
:1036C000FFF796FF2046FFF797FF00222368227737
:1036D000A5E76FF002021A619B6901229B0702773E
:1036E00025D0FFF787FF00222368227791E76FF04C
:1036F000200220461A61BDE8104000F02BB86FF0A0
:1037000001021A61204602F039FE236899E76FF042
:1037100080021A61204600F01FF8236897E76FF0D7
:1037200040021A612046FFF769FF236895E7FFF71B
:103730005FFF2046FFF760FFD5E7FFF75BFFC4E7B9
:10374000FFF758FFAEE7FFF753FF2046FFF754FFA0
:1037500096E700BF704700BF704700BF84B030B429
:10376000089D03AC012D84E80E0032D1836B0F9AC3
:1037700023F480338363C36823F4840323F040037A
:10378000C360C368012A23F44013C36044D0274BAD
:1037900001E0013B45D00269002AFADA0369234AB5
:1037A00043F00103036101E0013A3AD0036913F0E9
:1037B0000103F9D1069A012A07D1826842F0060274
:1037C0008260826842F02002826030BC184604B0F9
:1037D0007047C268154B42F04002C26001E0013BF5
:1037E00021D00269002AFADA0369104A43F0010382
:1037F000036101E0013A16D0036913F00103F9D126
:103800000C9A22B9826B42F480328263D2E7826BD7
:1038100022F480328263CDE7C36843F48013C3602F
:10382000B5E70323C6E70323EAE700BF400D030023
:10383000022A0AD04FF41051C26822F47052C260BA
:10384000C3680B43C360002070472D4B2D4A0B44C7
:10385000934243D92C4B2D4A0B4493423BD9A1F5BB
:1038600074032B4AA3F5105393423AD9A1F1837301
:1038700002F5C332A032A3F5E743934234D9254B76
:10388000254A0B44934232D9244B02F5922202F589
:1038900078720B4493422DD9214B02F5C32202F5D5
:1038A00020720B449342C5D9A1F1B77302F5B71248
:1038B00002F55872A3F5585393421ED9194B02F5DD
:1038C000122202F5F8620B4493428CBF4FF4C051B0
:1038D0004FF4E051B0E74FF46051ADE74FF4705151
:1038E000AAE74FF45051A7E74FF44051A4E74FF433
:1038F0003051A1E74FF420519EE74FF400519BE770
:10390000405327FFFF340C00401E1BFF3F420F00B7
:103910007F4F120060B6E5FE5FE3160000D3CEFED7
:10392000C05BB3FEE05459FE02460020936843F0AA
:1039300001039360704700BF02460020936823F0A4
:1039400001039360704700BF08B5C368012923F0E5
:10395000C043C3600BD041B9C36843F08043C36028
:103960003220FCF7E9FD002008BD012008BDC36836
:1039700043F00053C360F3E784B02DE9F04308AC93
:1039800084E80E00129E0022C0F804210346C0F80D
:1039900008210F46C0F80C2100F50065C0F8102181
:1039A000C0F81421C0F81821C0F81C21C0F820214B
:1039B000C0F82421C0F82821C0F82C21C0F83021FB
:1039C000C0F83421C0F83821C0F83C21002E40F066
:1039D0009A806A6842F002026A60826B42F40012C6
:1039E0008263826B22F400228263826B22F4802243
:1039F00082630022C3F8002E0D9AD3F80018C3F892
:103A00000018012A00F08880D3F8002842F0030251
:103A1000C3F800284FF484621A614B4A02E0013A6D
:103A200000F08880186910F02000F8D110221A6187
:103A3000454A01E0013A7FD01969C906FAD400214C
:103A400029616961E961E7B18C4603F510624FF0C5
:103A500090484FF000694FF67F3E0AE0C2F800C080
:103A60000131B942C2F810C0C2F808E002F12002E8
:103A70002CD01468002CF1DA002962D0C2F8008042
:103A8000EEE72A690B9922F480722A6100246FF014
:103A900080429C615A6119B99A6942F010029A6198
:103AA0009C692A4A0E9922439A6119B19A6942F097
:103AB00008029A61012E05D19A6942F0804242F0D3
:103AC00004029A61BDE8F04304B070470024A446A4
:103AD00003F530624FF090484FF000694FF67F3E9B
:103AE0000AE0C2F800C001348C42C2F810C0C2F82B
:103AF00008E002F12002C4D01768002FF1DAECB11F
:103B0000C2F80080EFE7826B22F400128263826BBE
:103B100042F4002282636CE70A9A22B9D3F80028A3
:103B2000C3F8002876E7D3F8002842F00102C3F872
:103B300000286FE7012079E7012080E7C2F80090B4
:103B4000D1E7C2F800908BE7400D030000383C80BD
:103B5000890141F020010161054A01E0013A05D0E7
:103B6000036913F02003F9D118467047032070470A
:103B7000400D0300D0F8083813F0060004D013F00D
:103B8000020F14BF02200F20704700BF30B40A7824
:103B90004D7802F00F040123012D03FA04F300EB2A
:103BA000421400F5006019D0C26942EA0343C361C0
:103BB000D4F8003B1B040ED48A68C878D4F8001BE4
:103BC000C2F30A0242F0805343F4004343EA8043C5
:103BD0000B43C4F8003B002030BC7047C5692B4341
:103BE000C361D4F800391804F5D48B68C878D4F8C8
:103BF0000019C3F30A0343F0805343F4004343EA3C
:103C0000804343EA82520A43C4F80029002030BCB2
:103C1000704700BF10B44C780B78012C00EB4312B6
:103C20002AD0D2F8001B002919DB03F00F014FF452
:103C30008033D0F83C488B40DB431C40C0F83C4804
:103C4000D0F81C4821492340C0F81C38D2F8003B6A
:103C50005DF8044B19400020C2F8001B7047D2F8F1
:103C6000001B41F00061C2F8001BD2F8001B41F0BC
:103C70008041C2F8001BD8E7D2F8001900290BDAFE
:103C8000D2F8001941F00061C2F80019D2F8001909
:103C900041F08041C2F8001903F00F010123D0F870
:103CA0003C488B40DB431C40C0F83C48D0F81C48E3
:103CB00007492340C0F81C38D2F800395DF8044B9E
:103CC00019400020C2F80019704700BF0078F3EFD8
:103CD000007833EC2DE9F04791F801C00E784B697C
:103CE000CF78BCF1010F00EB46154ED005F53064DE
:103CF0002669D1F808C0F60CF6042661266926F07C
:103D0000FF5626F4C01626617BB3DFF8E8E1D4F84D
:103D1000108003EB0C06013EB6FBFCF60EEAC64330
:103D200043EA08032361B6B20CFB06F32669C3F32A
:103D300012033343012A236122D0012F0CD1D0F882
:103D4000083813F4807FD5F8003B0CBF43F00053D4
:103D500043F08053C5F8003BD5F8003B43F00443E3
:103D6000C5F8003B0020BDE8F0872669CCF31203BC
:103D7000334323612369012A43F400232361DCD107
:103D8000CB68002BD9D06361D7E705F51064F3B396
:103D9000D4F81080D1F808A0DFF858E14FEAD848ED
:103DA0004FEAC848C4F81080D4F8108028F0FF58B3
:103DB00028F4C018C4F81080D4F810900AEB030857
:103DC00008F1FF38B8FBFAF80EEAC84E4EEA090EC1
:103DD000C4F810E0D4F81080C3F3120E4EEA080EB7
:103DE000012FC4F810E054D0012A60D0D5F8003972
:103DF00043F00443C5F80039D0F8343806F00F0614
:103E00000CFA06FC4CEA0303C0F83438AAE7D4F8ED
:103E100010C02CF0FF5C2CF4C01CC4F810C0D4F807
:103E200010C04CF4002CC4F810C0D4F810C04FEAF5
:103E3000DC4C4FEACC4C012AC4F810C037D0D5F87E
:103E40000049012F44F00444C5F800498AD1D0F854
:103E5000084814F4807FD5F800490CBF44F00054A2
:103E600044F08054C5F80049002A7FF47BAF9BB230
:103E700003339A083FF476AFCB6800EB063003EBD0
:103E8000820200F5805053F8041B01609342FAD17E
:103E900068E7D4F810C02CF0C04CC4F810C0D4F8B7
:103EA00010C0012A4CF0005CC4F810C01AD10B6994
:103EB00003B16361012F0CD1D0F8083813F4807F6F
:103EC000D5F800390CBF43F0005343F08053C5F8D8
:103ED0000039D5F8003943F00443C5F80039002013
:103EE000BDE8F087D5F8004944F00444C5F800491E
:103EF000ADE700BF0000F81F4B78F0B40D784E69B5
:103F0000012B00EB451427D004F530631D69886848
:103F1000ED0CED041D611D6925F0FF5525F4C0155C
:103F20001D6106B148611D6945F400251D611D69CB
:103F3000C0F312002843012A186108D0D4F8003BCE
:103F400043F00443C4F8003B0020F0BC7047CA684B
:103F5000002AF3D05A61F1E704F510639EB31F699C
:103F6000D1F808C0FF0CFF041F611F6927F0FF573D
:103F700027F4C0171F611F69B44547F4002738BFF5
:103F8000C1F814C01F6138BF6646D3F810C0C6F32D
:103F9000120747EA0C07012A1F612DD0D4F8003917
:103FA00043F00443C4F80039002ECDD0D0F83428B3
:103FB00005F00F05012303FA05F51543C0F8345841
:103FC0000020F0BC7047186920F0FF5020F4C010AA
:103FD0001861186940F4002018611869C00CC00409
:103FE000012A186108D0D4F8003943F00443C4F81A
:103FF00000390020F0BC70470A69002AF3D05A61EA
:10400000F1E700BF10B49DF804406CB903339B087E
:104010000AD000EB023000F5805001EB830351F829
:10402000042B02608B42FAD100205DF8044B7047EC
:10403000033292080DD010B401EB820200F58054D7
:104040000846236840F8043B8242FAD15DF8044BED
:1040500070470846704700BF4A780B78012A00EB8A
:10406000431012D0D0F8002B002A06DB2BB1D0F879
:10407000003B23F08043C0F8003BD0F8003B43F402
:104080000013C0F8003B00207047D0F80029002A38
:1040900006DB2BB1D0F8003923F08043C0F800399B
:1040A000D0F8003943F40013C0F8003900207047FD
:1040B000CB780A784978023B0129DBB200EB421049
:1040C00011D0D0F8002B012B22F40012C0F8002BE5
:1040D00001D900207047D0F8003B43F08053C0F86E
:1040E000003B00207047D0F80029012B22F4001279
:1040F000C0F80029EDD8D0F8003943F08053C0F85B
:1041000000390020704700BFD0F8003823F4FE6368
:10411000C0F80038D0F80038090101F4FE611943F5
:10412000C0F800180020704700F5006208B5536819
:1041300023F0020303205360FCF7FEF9002008BDC2
:1041400000F5006208B5536843F002030320536092
:10415000FCF7F2F9002008BD426980691040704701
:10416000D0F8183800F50060C0691840000C70479E
:10417000D0F8183800F50060C069184080B2704768
:1041800000EB411100F50060D1F8082B40691040A8
:10419000704700BF10B4D0F81048D0F8343800EBA6
:1041A000411001F00F0100F51060CB40DB01DBB2E4
:1041B0008068234318405DF8044B7047406900F065
:1041C00001007047D0F8003923F4FF6323F00703A0
:1041D000C0F80039D0F8043843F48073C0F80438CC
:1041E0000020704730B4124C056CA54200F53063D6
:1041F00003D9D0F8004B002C16DB00241C611C698D
:1042000044F400241C611C6944F018041C611C69FE
:10421000012944F0C0441C6106D15A61D0F8003B2A
:1042200043F08023C0F8003B002030BC704700BF43
:104230000A30544FD0F8C03283B110B5D0F8BC4228
:1042400094F80002FF2807D09B6894F801222146C9
:104250009847FF2384F80032002010BD00207047EB
:10426000432303800048704740000020432303801D
:1042700000487047840000204323038000487047B3
:10428000D40000200A23038000487047C8000020A3
:1042900038B5D0F8BC4274B1054602F0E5FDD5F85A
:1042A000C032C4F80C02DB68D4F8040204F50371D0
:1042B0009847002038BD032038BD00BFF8B5D0F8BE
:1042C000BC72A7B101EB810500EB85050346AE6921
:1042D0000A4676B9D3F8C032D7F808021B69002421
:1042E000C7F8144207F5047198472046F8BD03202B
:1042F000F8BDD0F8C442C1EBC10C04EB8C04D4F877
:1043000044C0B6FBFCF40CFB1464002CE2D1AC619D
:104310002346224602F08CFD2046F8BD2DE9F041EF
:104320000B78D0F8BC8282B0002713F060020C46F4
:1043300006468DF80570ADF806701CD0202A12D103
:10434000CD8891F801C0002D47D1D0F8C0322A465F
:1043500060469B689847284602B0BDE8F08190F817
:104360009C32032B49D03046214600F001FD03204A
:1043700002B0BDE8F0814B780B2BF4D801A252F8C3
:1043800023F000BF5F430008BD43000867430008F7
:104390006743000867430008674300086743000855
:1043A000674300086743000867430008C5430008E7
:1043B000B543000890F89C32032BD4D1002002B002
:1043C000BDE8F08190F89C32032BCCD101220DF195
:1043D000050100F0FFFC0020CAE71B0614D5D0F849
:1043E000C0322A4660469B6841469847E28841466B
:1043F000304600F0EFFC3846BAE702220DF1060124
:1044000000F0E8FC0020B3E788F800C288F8015209
:104410002A46414600F0F4FC3846A9E738B5044680
:104420000025812102F0B8FC01212587204602F0F9
:10443000B3FCA4F878512046822102F0ADFCD4F8F8
:10444000BC32E5644BB1D4F8C0325B689847D4F80D
:10445000BC0206F0F9F8C4F8BC52002038BD00BF19
:104460002DE9F04104464FF4077006F0E5F80546E3
:1044700000284BD0237CC4F8BC029BB3402381218D
:1044800001260222204602F077FC2687314640238F
:104490000222204602F070FC102303228221A4F89D
:1044A0007861A4F84E302046082302F065FCD4F869
:1044B000C03201271B68A4F84C70984794F810800C
:1044C000D5F804220026C5F814623946C5F81862EA
:1044D0002046B8F1000F12D0402302F0B7FC30465E
:1044E000BDE8F0814FF400738121012602222046AD
:1044F00002F042FC268731464FF40073C8E74FF4C0
:10450000007302F0A3FC4046BDE8F081C4F8BC0291
:104510000220BDE8F08100BF19B1C0F8C012002030
:1045200070470320704700BFD0F8BC320020C3F8AA
:104530000812C3F810227047D0F8BC320020C3F82C
:1045400004127047D0F8BC2292B138B5D2F81442A8
:104550000CB1012038BDD2F810320125C2F8145236
:104560008121D2F80822C36202F062FC204638BDE5
:1045700003207047D0F8BC228AB110B5047CD2F871
:1045800004222CB14023012102F060FC002010BD68
:104590004FF40073012102F059FC204610BD0320A6
:1045A000704700BFA0B1D0F8B83213B10023C0F8F3
:1045B000B832D0F8CC3213B10023C0F8CC3209B1F4
:1045C000C0F8B4120123027080F89C3202F094BB50
:1045D0000320704730B583B00024ADF8064059B1D0
:1045E0000546C0F8B8128B6A0DF106009847C5F869
:1045F000CC02204603B030BD0324FAE702F0AEBB84
:10460000D0F8B8320BB11B6818470320704700BFC1
:1046100008B5D0F8B8320BB15B689847002008BDE8
:1046200038B5044600F2AA25284600F08DFB94F820
:10463000AA12B4F8B032C4F89832012201F01F0374
:104640009342C4F8942215D00ED3022B05D12946EB
:104650002046BDE8384000F0DDBA204601F0800178
:10466000BDE8384002F0A6BB29462046BDE83840E8
:1046700000F000B929462046BDE8384000F09CBA59
:1046800070B5044631B90D46D0F8941203290CD008
:10469000002070BDD0F8B8229269DAB190F89C324F
:1046A000032B17D1BDE8704010471146D0F85C319C
:1046B000D0F8602193420FD8D0F8B8321B6923B1EB
:1046C00090F89C22032A00D19847204600F0B0FBC6
:1046D0000020DEE7032070BD9B1A9A42C0F85C31CF
:1046E00028BF1A4600F09CFB284670BD70B50446F2
:1046F00082B061B91546D0F89422022A17D094F8F6
:10470000A032012B4FF000000DD002B070BDD0F8E8
:10471000B8325B6943B390F89C22032A24D102B0DB
:10472000BDE87040184784F8A00202B070BDD0E91F
:104730000726B2421BD827D0D4F8B832DB682BB199
:1047400094F89C22032A01D12046984780212046D4
:1047500002F030FB204600F077FB94F8A032012BEA
:104760004FF00000D1D1DEE7032002B070BD921BF4
:104770000191C261294600F03BFB019B20461A468D
:10478000194602F063FBBAE78569AA42D4D8D0F88B
:1047900098229542D0D20A46019100F029FB019B54
:1047A000C4F898321A461946204602F04FFBA6E795
:1047B000D0F8BC320021012270B5044680F89C225A
:1047C000C0F894124160C0F8A4121BB1D0F8B832FE
:1047D0005B689847002240231D461146012620466B
:1047E00002F0CAFAA4F86461C4F860512B460022B2
:1047F0008021204602F0C0FAA6842562002070BD08
:1048000001740020704700BF90F89C2280F89D2220
:10481000042380F89C320020704700BF90F89C323F
:10482000042B04BF90F89D3280F89C320020704722
:1048300090F89C22032A01D00020704708B5D0F8D8
:10484000B832DB6903B19847002008BD00207047EB
:104850000020704700207047D0F8B822012180F86E
:104860009C122AB108B5526801799047002008BD12
:104870000020704770B50B7803F06003202B82B0E6
:104880000D46044628D0402B26D05BB1802120461F
:1048900002F090FA2046002102F08CFA002528460A
:1048A00002B070BD4B78092BF0D801A252F823F06A
:1048B0004F4900087F4900088D4800089D490008BD
:1048C0008D480008A9490008EB4900088D480008F8
:1048D000074A0008ED480008D4F8B83229469B681A
:1048E000204698470546284602B070BD8D78B14EE7
:1048F000012D357000F2128190F89C32022B00F0ED
:104900001681032B40F02481002D00F03C8141688A
:10491000012900F0FF80C9B2FFF77AFE31786160AB
:104920002046FFF76DFE0546002800F0F380802149
:10493000204602F03FFA0021204602F03BFA21799E
:104940002046FFF765FE022384F89C32A7E790F823
:104950009C32013B022B4FF0030297D8CB88022BED
:1049600094D1D0F8A4320121C16003B1C260022207
:1049700004F10C01204600F02DFA00258FE790F895
:104980009C32013B022B81D84B88012B4FF0000554
:1049900085D1C0F8A45200F04BFA80E74B88012B78
:1049A00000F0B68000257AE78B88002B7FF46EAF8D
:1049B000CE88002E7FF46AAF4D887F2D3FF666AF1C
:1049C00090F89C32032B3FF461AFE9B280F89E125D
:1049D00002F020FA204600F02BFA002D00F0E580CE
:1049E0000223354684F89C3259E74A88130A00218D
:1049F000013BADF80610062B5FD8DFE803F0523D0F
:104A0000355E5E491800CA88012A7FF43FAF90F8EE
:104A10009C32002B3FF43AAF022B40F2A680032BCE
:104A20007FF434AF011D00F0D5F9002537E7037C92
:104A3000002B42D1D0F8B8320DF106001B6B98471D
:104A400007234370EB88002B64D0BDF80620002AB2
:104A500033D0934228BF134601461A462046ADF88C
:104A6000063000F0B7F99DE7D2B2052A25D8DFE875
:104A700002F02049433D372D027CD0F8B832002A9D
:104A80007AD19B6A0DF10600984702234370D9E75B
:104A9000037C93B9D0F8B8320DF106005B6B9847F0
:104AA000D0E7D0F8B432007C1B680DF106019847BE
:104AB000C8E7D0F8B4325B686BB98021204602F0B9
:104AC00079F92046002102F075F96BE7D0F8B4328D
:104AD0009B69002BF1D00DF10601207C9847B1E7CE
:104AE000D0F8B4325B69002BF5D1E6E7D0F8B432E8
:104AF0001B69002BEFD1E0E7D0F8B432DB68002B64
:104B0000E9D1DAE7D0F8B4329B68002BE3D1D4E7DF
:104B1000C0F8A432204600F08BF943E7802102F070
:104B200049F92046002102F045F90325B7E6002D9A
:104B3000F0D001214160FFF763FD054670B380218D
:104B4000204602F037F92046002102F033F9A6E6AC
:104B5000802102F02FF90021204602F02BF9317854
:104B60002046FFF755FD032599E60146002541F84B
:104B7000085F00F02FF992E6DB6A0DF10600984716
:104B8000022343705EE70223456080F89C32294689
:104B9000FFF73EFD204600F04BF980E6204600F08E
:104BA00047F9032384F89C3279E6012384F89C3288
:104BB00075E600BF0402002070B50B7803F06003B7
:104BC000202B0D4604460DD0402B0BD053B1802135
:104BD000204602F0EFF82046002102F0EBF8002614
:104BE000304670BD94F89C32013B022BEFD82B79F4
:104BF000012BECD8D4F8B83229469B682046984758
:104C0000EB880646002BEBD10028E9D1204600F0C6
:104C10000FF9E5E770B50B7803F06003202B05462C
:104C200027D0402B25D00C464BB18021284602F0DE
:104C3000C1F82846002102F0BDF8002070BD4B7875
:104C40008A88012BD1B242D01AD3032BEDD190F830
:104C50009C32022B52D0032BE7D163882BB94A0632
:104C600003D0E3880BB902F0A5F8284600F0E0F87D
:104C7000E3E7D5F8B83228469B68BDE8704018478E
:104C800090F89C32022B42D0032BCED101F00F03BF
:104C900003EB8303120600EB830347D4B3F86431BC
:104CA000002BC2D001F07F03142404FB030404F59D
:104CB000AA742BB1284602F099F8002842D00123AB
:104CC000236021462846022200F084F8B5E790F8D8
:104CD0009C32022B12D0032BA7D16388002BACD1BE
:104CE0004E0601D002F074F8284600F0A1F8D5F87D
:104CF000B83221469B68284698479EE74B0694D0D9
:104D000002F058F82846802102F054F895E748064A
:104D10008BD111064CBF05F1140105F5AA710023D2
:104D200028460B60022200F055F886E79B8C002B8A
:104D30003FF47BAF01F07F035C1C04EB840400EBC9
:104D40008404B6E72060BCE70B7803704B784370AF
:104D5000CA788B7843EA022343804A790B7943EA85
:104D600002238380CA798B7943EA0223C380704788
:104D700010B58021044602F01DF820460021BDE850
:104D8000104002F017B800BF00B3037830B4F3B19D
:104D90000446002314F8015F0133DBB2002DF9D182
:104DA0005B000233032413800B704C7004785CB1F9
:104DB000022300255A1CD2B2CC548D5410F8014F56
:104DC0000233DBB2002CF5D130BC704770470223B0
:104DD000E8E700BF38B5134602250A46C0E90633A6
:104DE000C0F89452002102F023F8002038BD00BF23
:104DF00008B513460A46002102F01AF8002008BD43
:104E000038B5134603250A46C0F85831C0F85C315E
:104E1000C0F89452002102F019F8002038BD00BFFC
:104E200008B513460A46002102F010F8002008BD1C
:104E300008B504220023C0F8942219461A4601F04E
:104E4000F7FF002008BD00BF08B505220023C0F809
:104E5000942219461A4601F0F9FF002008BD00BF50
:104E600008B500F015FB002008BD00BF70B545690E
:104E70000269B0F908400B4686B0D0E900166DB162
:104E8000806958B1842C14BF03340024CDE901504B
:104E90000094304600F018FA06B070BD842C14BFA0
:104EA0000334002405AD92B200943046019500F021
:104EB00043FA01280CBF0598002006B070BD00BF62
:104EC00008B5002808BF012000F082FC002008BDC2
:104ED00000F108034FF0FF3100228160026043605F
:104EE000C0E90333704700BF00230361704700BF70
:104EF0004368026810B49C688C609C684B60013207
:104F0000616099605DF8044B08610260704700BF02
:104F100030B40D686B1C11D000F1080200E01A4695
:104F200053681C68AC42FAD904684B60013499603C
:104F30008A6051600861046030BC70470269536840
:104F4000F2E700BF42688168036910B4916081682C
:104F50005C684A601A68844208BF5960013A0021BF
:104F600001611A6018685DF8044B70472DE9F84339
:104F7000044600F0F7FC354A354D136801331360E1
:104F80002B68002B34D0334FE06A3B6843B3DFF823
:104F9000E880DFF8E8C0304EDCF8002031680123FB
:104FA000834000EB80000B43013208EB8000211DA1
:104FB0003360CCF80020FFF79BFF00F0F5FC3B6866
:104FC00063B12A68E36AD26A9A4207D2234B4FF050
:104FD00080521A60BFF34F8FBFF36F8FBDE8F88325
:104FE0002B68DFF89480DB6A834298BF2C60D0E79F
:104FF0002C601368012B04D0E06ADFF87C80154F29
:10500000C7E7DFF87480464608F18C07304614364F
:10501000FFF75EFFB742F9D1DFF86490104E0D4FF5
:105020004846FFF755FF3046FFF752FF0D48FFF7A0
:105030004FFF0D48FFF74CFF0C48FFF749FF0C4AA4
:105040000C4BC2F80090E06A1E60A2E7A0020020AC
:1050500008020020FC020020B402002004ED00E061
:10506000CC020020E80200201403002000030020EE
:105070000C0200201002002014020020B0020020C8
:10508000B80200202DE9F0470A9C089D266B099F75
:1050900002F18042013A06EB820680469A4626F0EB
:1050A0000709002976D00B7884F834300B78002B70
:1050B0004DD04B7884F835304B78002B47D08B7827
:1050C00084F836308B78002B41D0CB7884F8373099
:1050D000CB78002B3BD00B7984F838300B79002B40
:1050E00035D04B7984F839304B79002B2FD08B7920
:1050F00084F83A308B7953B3CB7984F83B30CB7951
:105100002BB30B7A84F83C300B7A03B34B7A84F8D8
:105110003D304B7ADBB18B7A84F83E308B7AB3B179
:10512000CB7A84F83F30CB7A8BB10B7B84F840305C
:105130000B7B63B14B7B84F841304B7B3BB18B7B6A
:1051400084F842308B7B13B1CB7B84F8433000234F
:1051500084F84330062D28BF06250026E562C4E901
:105160001156201DFFF7C0FEC5F1070504F1180018
:10517000FFF7BAFEE664A561246184F850606462BA
:1051800052464146484600F0C3FB206007B13C60F0
:10519000BDE8F08784F83410DCE700BFF8B51B4B9E
:1051A0001B4E1C6833680546181D0F46FFF7CAFEE4
:1051B00040B933681749D86A0B680122824023EA54
:1051C00002030B606B1C17D0336864195C600BD250
:1051D000114B186831680431FFF79AFE0F4B1A68BB
:1051E000A24288BF1C60F8BD0D4B18683168BDE84D
:1051F000F8400431FFF78CBE002FE5D03168094834
:105200000431BDE8F840FFF773BE00BF280300205B
:1052100008020020B40200200C020020E00200205E
:105220001002002000030020DFF890A0214E224D44
:10523000DFF88C90DFF88C8080B54FF080572B68BA
:1052400043B300F08FFBDAF80C30DC68201DFFF769
:1052500079FE3368013B33602B68013B2B6000F023
:10526000A3FB94F8513063B1012B1ED0022BE6D082
:105270004FF0500383F31188BFF36F8FBFF34F8F4D
:10528000FEE7206B00F046FD204600F043FD2B6852
:10529000002BD6D1D9F80030012BD0D9C8F8007036
:1052A000BFF34F8FBFF36F8FC9E7204600F032FD89
:1052B000C5E700BFA0020020A402002014030020C4
:1052C0001402002004ED00E0F0B587B0DDE90C65C4
:1052D0000E9CBDB16CB154270597059F542F1AD071
:1052E0004FF0500383F31188BFF36F8FBFF34F8FDD
:1052F000FEE74FF0500383F31188BFF36F8FBFF3C6
:105300004F8FFEE74FF0500383F31188BFF36F8F89
:10531000BFF34F8FFEE72563022704AD029400968A
:1053200084F851700195059DFFF7ACFE2046FFF70C
:105330001DFE049807B0F0BD2DE9F04796008046A9
:1053400030460D469946099F00F058FC002800F0B1
:105350009B808246542000F051FC0446002800F057
:105360008C80043E5644002326F00706C0F830A087
:1053700080F85130002D7DD02B7880F834302B7898
:10538000002B4DD06B7880F835306B78002B47D0F0
:10539000AB7880F83630AB78002B41D0EB7880F8D2
:1053A0003730EB78002B3BD02B7980F838302B79D5
:1053B000002B35D06B7980F839306B79002B2FD0EA
:1053C000AB7980F83A30AB7953B3EB7980F83B3066
:1053D000EB792BB32B7A80F83C302B7A03B36B7AC2
:1053E00080F83D306B7ADBB1AB7A80F83E30AB7A37
:1053F000B3B1EB7A80F83F30EB7A8BB12B7B80F83E
:1054000040302B7B63B16B7B80F841306B7B3BB1D1
:10541000AB7B80F84230AB7B13B1EB7B80F8433041
:10542000002384F84330089D062D28BF06254FF041
:10543000000AE562C4E9115A201DFFF755FDC5F1C8
:10544000070504F11800FFF74FFDC4F84CA0A56153
:10545000246184F850A064624A464146304600F018
:1054600057FA206007B13C602046FFF77FFD01201E
:10547000BDE8F08780F83450D5E7504600F04AFC8C
:105480004FF0FF30BDE8F0874FF0FF30F0E700BF8E
:1054900070B58AB0002407AA06A905A8CDE905447D
:1054A00000F070FCDDE90553C3B175B154220992D7
:1054B0000999079A54291AD04FF0500383F31188A1
:1054C000BFF36F8FBFF34F8FFEE74FF0500383F3AF
:1054D0001188BFF36F8FBFF34F8FFEE74FF050037C
:1054E00083F31188BFF36F8FBFF34F8FFEE7022066
:1054F00008A92B6385F851002346CDE900411048E7
:1055000010490295099EFFF7BDFD2846FFF72EFDC5
:10551000089B93B14FF0500383F31188BFF36F8F53
:10552000BFF34F8F0848094A094B4FF0FF3501215F
:10553000056011601C6000F0B1FA0AB070BD00BFD8
:105540002952000818A90008E0020020FC020020EF
:1055500028030020024A136801331360704700BF1C
:10556000AC0200202DE9F84F494B1B68CBB9494BE1
:105570001E6801361E600EB3DFF838B1DBF800207C
:10558000B24229D9444FDFF830810025D8F80030E5
:10559000DB6A03EB83039B00FB58022B28BF01252A
:1055A00004E03E4A13680133136000253C4B1B683E
:1055B000002B0CBF28460120BDE8F88F394C23682A
:1055C0001B68002B48D04FF0500383F31188BFF3C2
:1055D0006F8FBFF34F8FFEE7324C2F4FDFF8D8802D
:1055E00000252DE02268D268D2F80C90D9F804107A
:1055F00009F1040A8E4250462BD3FFF7A3FCD9F8D9
:10560000281009F1180009B1FFF79CFC264AD9F8C7
:105610002C001368012101FA00FC00EB80005146C8
:1056200007EB80004CEA030CC2F800C0FFF760FCF7
:10563000D8F80000D9F82C10C26A914228BF012581
:1056400022681268002ACDD14FF0FF32CBF800203B
:105650009CE7CBF8001099E7144B2168144A1868AE
:105660002060196013680133136023681B6833B925
:10567000DFF840B04FF0FF32CBF800207EE7226821
:10568000DFF830B0D268D2685268CBF8002075E7F6
:10569000AC0200202803002014020020A8020020F1
:1056A0002C0300200C020020B40200201002002075
:1056B000E4020020E0020020080200202DE9F84F5B
:1056C000384C236843B94FF0500383F31188BFF37C
:1056D0006F8FBFF34F8FFEE700F044F92368013B63
:1056E000236024687CBB304B1B6863B32F4DDFF80D
:1056F000D4A02F4EDFF8D090DFF8D0B0DAF8003029
:10570000012733B3DAF80C30DC6804F1040804F143
:105710001800FFF717FC4046FFF714FCE06A3268F8
:1057200007FA00F300EB80001343414609EB8000C9
:105730003360FFF7DDFBDBF80030E26ADB6A9A4298
:10574000DCD32F60DAE7002400F02EF92046BDE814
:10575000F88F3CB1174B1A681268DAB9164B4FF044
:10576000FF321A60154E34683CB10127FFF7FAFE8C
:1057700000B12F60013CF9D134602B68002BE2D0DE
:105780000F4B4FF080521A60BFF34F8FBFF36F8FF4
:105790000124D9E71A68084BD268D26852681A60A7
:1057A000E0E700BFAC020020A00200202C03002094
:1057B000B40200200C020020E0020020A802002019
:1057C00004ED00E0E802002014020020080200209E
:1057D00008B598B10E4B196841B14FF0500383F3EF
:1057E0001188BFF36F8FBFF34F8FFEE71A68013246
:1057F0001A60FFF7D3FCFFF761FF38B9054B4FF094
:1058000080521A60BFF34F8FBFF36F8F08BD00BF88
:10581000AC02002004ED00E0194B1B68EBB91949FC
:10582000194A10B40B601368B3FA83F3DBB2C3F107
:105830001F0303EB8302920014488158841881B13E
:1058400061680832496861600244914212D0104B8D
:10585000CA681A605DF8044B70470A4B01221A604F
:1058600070474FF0500383F31188BFF36F8FBFF37E
:105870004F8FFEE7142202FB030349685960E6E7F5
:10588000AC0200202C030020B402002014020020EF
:10589000080200200E4B1B6882B0002201330192E7
:1058A00008D04FF0500383F31188BFF36F8FBFF31D
:1058B0004F8FFEE74FF0500383F31188BFF36F8FD4
:1058C000BFF34F8F019B002BFCD002B0704700BF8D
:1058D0001801002008480068006880F308884FF02D
:1058E000000080F3148862B661B6BFF34F8FBFF338
:1058F0006F8F00DF00BF000008ED00E0DFF80C0054
:10590000016841F4700101607047000088ED00E01B
:1059100030B421F001014FF08075074C40F80C4C79
:105920006FF0020340F8202C40E9021540F8243CB7
:1059300030BC4438704700BF955800080000000094
:10594000074B19680868B0E8F04F80F30988BFF387
:105950006F8F4FF0000080F311887047AFF3008025
:10596000080200204FF0500383F31188BFF36F8FBC
:10597000BFF34F8F0A4A13680133012B136000D025
:105980007047084B1B6813F0FF0FF9D04FF050031E
:1059900083F31188BFF36F8FBFF34F8FFEE700BF14
:1059A0001801002004ED00E0084A136843B94FF0E5
:1059B000500383F31188BFF36F8FBFF34F8FFEE760
:1059C000013B13600BB983F3118870471801002065
:1059D000EFF30980BFF36F8F154B1A681EF0100F9D
:1059E00008BF20ED108A20E9F04F10602DE9090072
:1059F0004FF0500080F31188BFF34F8FBFF36F8FCC
:105A0000FFF70AFF4FF0000080F3118809BC196806
:105A10000868B0E8F04F1EF0100F08BFB0EC108A15
:105A200080F30988BFF36F8F704700BFAFF300802A
:105A30000802002008B54FF0500383F31188BFF32C
:105A40006F8FBFF34F8FFFF78DFD18B1034B4FF0F2
:105A500080521A60002383F3118808BD04ED00E032
:105A600030B4094A094D0A4B0A4C0B480021116019
:105A700029601B68A4FB03139B09013B07210360FA
:105A800030BC1160704700BF10E000E018E000E09B
:105A90001C010020D34D621014E000E03A4B3B4A59
:105AA0001968914240D01A68394B9A4233D010B5E8
:105AB000384B39481A78394C82B0D2B2FF21019262
:105AC00019701B78DBB28DF803309DF803309DF818
:105AD0000320072103F0500301601106237011D544
