:020000040800F2
:1000000000000220A17D0008317700083577000844
:10001000397700083D7700084177000800000000AC
:10002000000000000000000000000000915F0008D8
:100030004577000800000000216000088560000886
:10004000F17D0008F17D0008F17D0008F17D0008D8
:10005000F17D0008F17D0008F17D0008F17D0008C8
:10006000F17D0008F17D0008F17D0008F17D0008B8
:10007000F17D0008F17D0008F17D0008F17D0008A8
:10008000F17D0008F17D0008F17D0008F17D000898
:100090004977000855770008F17D0008F17D0008D8
:1000A000F17D0008F17D0008F17D0008F17D000878
:1000B000F17D000861770008F17D00086D77000888
:1000C000F17D0008F17D0008F17D0008F17D000858
:1000D000F17D0008F17D0008F17D0008F17D000848
:1000E000F17D0008F17D0008F17D0008F17D000838
:1000F000F17D0008F17D0008F17D0008F17D000828
:10010000F17D0008F17D0008F17D0008F17D000817
:10011000F17D0008F17D0008F17D0008F17D000807
:10012000F17D0008F17D0008F17D0008F17D0008F7
:10013000F17D00080000000000000000F17D0008D3
:10014000F17D0008F17D0008F17D00087977000855
:10015000F17D0008F17D0008F17D0008F17D0008C7
:10016000F17D0008F17D0008F17D0008F17D0008B7
:10017000F17D0008F17D0008000000000000000093
:08018000F17D0008F17D00088B
:1001900010B5054C237833B9044B13B10448AFF3C1
:1001A00000800123237010BDE40100200000000046
:1001B000F0A8000808B5034B1BB103490348AFF38F
:1001C000008008BD00000000E8010020F0A8000841
:1001D00010F8012B11F8013B012A28BF9A42F7D0F1
:1001E000D01A7047034613F8012B002AFBD1181AC6
:1001F0000138704753B94AB9002908BF00281CBF0D
:100200004FF0FF314FF0FF3001F0F6B8ADF1080CC0
:100210006DE904CE00F006F8DDF804E0DDE9022324
:1002200004B070472DE9F0478C460D460446089E01
:10023000002B51D18A4217466DD9B2FA82FEBEF127
:10024000000F0BD0CEF1200C01FA0EF520FA0CFCB9
:1002500002FA0EF74CEA050C00FA0EF44FEA174AC0
:10026000250CBCFBFAF81FFA87F90AFB18CC45EA03
:100270000C4508FB09F3AB420AD9ED1908F1FF322E
:1002800080F02381AB4240F22081A8F102083D4476
:10029000ED1AA4B2B5FBFAF00AFB105544EA054486
:1002A00000FB09F9A14509D9E41900F1FF3380F0F9
:1002B0000A81A14540F2078102383C44A4EB0904BD
:1002C00040EA08400021002E61D024FA0EF40023F9
:1002D00034607360BDE8F0878B4207D9002E54D09C
:1002E000002186E821000846BDE8F087B3FA83F1D3
:1002F000002940F08E80AB4202D3824200F2FA80A5
:10030000841A65EB03050120AC46002E3FD086E839
:100310001010BDE8F08712B90127B7FBF2F7B7FA62
:1003200087FEBEF1000F34D1EB1B3A0C1FFA87FC9D
:100330000121B3FBF2F8250C02FB183345EA034513
:100340000CFB08F3AB4207D9ED1908F1FF3002D2DC
:10035000AB4200F2D1808046ED1AA3B2B5FBF2F0B9
:1003600002FB105543EA05440CFB00FCA44507D9E9
:10037000E41900F1FF3302D2A44500F2B880184618
:10038000A4EB0C0440EA08409DE731463046BDE846
:10039000F087CEF1200405FA0EF307FA0EF720FAE3
:1003A00004F83A0C25FA04F448EA0308B4FBF2F125
:1003B0004FEA184502FB11441FFA87FC45EA044541
:1003C00001FB0CF3AB4200FA0EF409D9ED1901F16F
:1003D000FF3080F08A80AB4240F2878002393D4492
:1003E000EB1A1FFA88F5B3FBF2F002FB103345EA73
:1003F000034500FB0CF3AB4207D9ED1900F1FF38C0
:100400006FD2AB426DD902383D44EB1A40EA01414C
:100410008FE7C1F1200722FA07F88B4005FA01F4B3
:1004200048EA030320FA07FE4FEA134CFD404EEA68
:10043000040EB5FBFCF94FEA1E440CFB19551FFADC
:1004400083F844EA054509FB08F4AC4202FA01F2DC
:1004500000FA01FA08D9ED1809F1FF3043D2AC4295
:1004600041D9A9F102091D442D1B1FFA8EFEB5FBCF
:10047000FCF00CFB10554EEA054400FB08F8A045C3
:1004800007D9E41800F1FF3529D2A04527D9023851
:100490001C4440EA0940A4EB0804A0FB02894C4537
:1004A000C6464D4615D312D056B1BAEB0E0364EBD7
:1004B000050404FA07F7CB401F43CC403760746053
:1004C0000021BDE8F0871846F8E69046E0E6C24510
:1004D000EAD2B8EB020E69EB03050138E4E72846DF
:1004E000D7E7404691E78146BEE7014678E7023804
:1004F0003C4445E7084608E7A8F102083D442BE7DD
:1005000003685A004CBF43F0004323F000431844F3
:10051000704700BF61B32DE9F84F01F1FF3A9046F3
:100520000646D146002707EB090404EBD474641097
:10053000E50071190846FFF7E3FFA245834605F180
:100540000800304409D0FFF7DBFFC34500F1FF305E
:1005500005D8404509D2671CE5E7C34505D9A74240
:1005600002D004F1FF39DEE700210846BDE8F88F2C
:1005700008467047012807D0022807D0044B0028FE
:100580000CBF184600207047024870470248704769
:10059000790C00087D0C0008810C000830B5244B54
:1005A00083B004468D1E7BB301A92846AFF30080BB
:1005B00020B301992A46FFF7ADFF0146F0B1FFF7DE
:1005C0009FFF4B68A064012B12D0002B01F10400A7
:1005D00020DBFFF795FF0023E06423650368002B11
:1005E0001CDBFFF78DFF00232061184603B030BDF0
:1005F000002323610523184603B030BD0023236187
:100600000923184603B030BD0A490B48091AC9101E
:100610000191CFE70123E0642365DFE7C3F30360C3
:10062000FFF7A8FF0028206114BF00230923DCE79F
:100630000000000004B20008F4B000080368DA0704
:1006400010B5044606D49B0700F1480009D500F018
:1006500051FC2368590709D51A070ED5DB0613D5B7
:1006600010BD00F03FFC23685907F5D404F1D00019
:1006700000F048FC23681A07F0D404F5A87000F0D5
:1006800049FC2368DB06EBD404F5E870BDE81040B4
:1006900000F084BC036803B103441846704700BFF0
:1006A00009207047704700BF70B504460D4608E04A
:1006B0002B6C63612A46236921460120984708284C
:1006C00008D1296C2046FFF769FF06460028EFD0C5
:1006D0000AF0C3F80728FBD13046296CFFF7E2FF88
:1006E000281D00F0F3FB00BF2DE9F0470C1D054667
:1006F00092460FCCADF5727D03AE0FC60FCC0FC680
:100700000FCC0FC694E80F0002ACD5F80C80D5F8DA
:10071000189086E80F0000232846216C2360FFF71D
:100720003DFFBAF1000F074614BF0A2609267FB124
:10073000A36B46F010018DE810022A466364012085
:100740002B46C04778BB38460DF5727DBDE8F08773
:10075000236C6B614FF4F07221467AA809F05AFFBE
:100760002B697AAA294630469847889B82468DE8AD
:100770001002314663642A462B460120C04790B9D7
:100780004FF4F0727AA9204609F044FFBAF1080F3D
:1007900006D1216C2846FFF701FF09260746C6E768
:1007A000BAF1070F05D0092738460DF5727DBDE86F
:1007B000F0873846216CFFF775FF03A800F086FB31
:1007C000406C7047F0B5CB6B0B640E1D0F460446B2
:1007D0000FCEF9B001AD0FC50FCE0FC50FCE0FC5AF
:1007E00096E80F004FF0FF3685E80F00009606E010
:1007F00023696A46214698470828054608D110997A
:100800002046FFF7CBFE0028F2D0092079B0F0BDDA
:100810006846FFF713FF062DF7D139462046FFF74C
:1008200043FF00BF30B4DD6BC160826119461D64B7
:10083000002230BC58E700BF70B5C66843690B643E
:1008400026B10122FFF750FF0AF007F803690A46B4
:1008500004460D46014602209847072807D008287D
:1008600003D129462046FFF71FFF09F0F6FF304667
:10087000296CFFF717FF281D00F028FBC2681AB18A
:10088000CA6B0A6400222FE79CE700BF704700BFD5
:10089000836813B1014601201847704700B5042949
:1008A00007D8DFE801F00309060909000BB90F2A90
:1008B00005D902205DF804FB01205DF804FB00EB84
:1008C000820218465368019A13605DF804FB00BF6A
:1008D00010B584B0002303AC0A4600941946FFF714
:1008E000DDFF039804B010BD00B5042907D8DFE888
:1008F00001F00309060909000BB90F2A05D90220E6
:100900005DF804FB01205DF804FB019900EB820215
:100910000968516018465DF804FB00BF10B584B04B
:1009200004AC002344F8042D0A4600941946FFF74E
:10093000DBFF04B010BD00BFF0B5D36B1364151D11
:1009400007460E460FCDADF50F7D17AC0FC40FCD8A
:100950000FC40FCD0FC495E80F004FF0FF3584E8AA
:100960000F00169510E016A8FFF7D8FF314616A81D
:10097000B84716AA694678B9049B08209847052805
:1009800004460AD0092807D026996846FFF706FED4
:100990006A460C210028E6D0092416A8FFF74EFE6F
:1009A00020460DF50F7DF0BD2DE9F04F0D46C96CC9
:1009B0008BB00C1D096807919146089400F0030B59
:1009C0001E46002B60D10902032307918DF8256094
:1009D0008DF824302B6DBBF1020F08BFAC6B13F008
:1009E000010340D1019300F008030393D4F8008081
:1009F000B8F1000F39D0022E43D0B4F800806788D8
:100A00000434AB6C27F0010A0F2148469A44FFF7E3
:100A10005FFF824533D828F001039A4450452CBF2C
:100A2000002001207F0007F0020708F0010847EAD4
:100A30000807012F3ED035D3022F1CD1236823F0A5
:100A400000420292BBF1000F76D128B10399002930
:100A50007ED0002A00F0A680002B77DB029B0133BA
:100A600004EB8304C2E700230193022E3EDDFFF76F
:100A700017FE002840D009200BB0BDE8F08F002001
:100A8000D0E767680834BCE7022BA3DC0B0CDAB2B2
:100A900009048DF82530022304EB820407918DF8B8
:100AA000243097E7BBF1000F02D0002840F0BD8052
:100AB00004349BE7BBF1000F25D1A8B194E80C00EA
:100AC000991C4FEAD272D6D005F158010133069134
:100AD00000F0A380201DFFF7DDFD06AB0146284690
:100AE000AFF30080002877D108347FE707A9484694
:100AF00000F0EEFA0028BED1019B002B5CD108204B
:100B00000BB0BDE8F08F0D2148462F6AFFF7E0FEDD
:100B10008742E9D1AB6A9C42E6D12046FFF7F0FC60
:100B20000F2102464846FFF7F9FE48462A460021B3
:100B3000FFF7F4FE07209FE70D2148462F6AFFF7D5
:100B4000C7FE874258D02368002B87DA043485E734
:100B5000029B3BB305F15803271DCDF810B0DDF81B
:100B60000C80DDF808A00596A3461C4602E0B245BD
:100B7000B04616D038460694FFF78CFD06AB01460A
:100B800000222846AFF3008008F101060437002850
:100B9000EDD0029B059E43455C46DDF810B0D2D1F6
:100BA00000E05C4648460D21FFF792FE069B286256
:100BB000AC626B6206205FE70F214846FFF788FEB4
:100BC0000E2102464846FFF7A9FE4846294A0F2152
:100BD000FFF7A4FE07204FE707460D214846FFF721
:100BE00077FE022F28621DD12B46069A43F82C2F40
:100BF0006B62AC6206203FE7AB6A9C42A3D1042241
:100C00000027A3180299A962EF622A636B63236825
:100C1000BB421DDB0123019320E748460D21FFF76E
:100C200057FE2862069B6B62E3E72046FFF768FCED
:100C300004340646AC632846AFF3008000283FF436
:100C40001AAF484632460F21FFF768FE072013E728
:100C50000846013004EB8000FFF752FC0F210246EA
:100C60004846FFF75BFE48462A463946FFF756FEE0
:100C7000072001E700000000002395E6012393E62A
:100C8000022391E6F0B50446C5B004290DD8DFE88B
:100C900001F053030C310F00012B4FEA124695B2BD
:100CA00062D17219102A40F29B80022045B0F0BD3B
:100CB000002BFAD1102AF8D82368D80600F1C68094
:100CC00022AE3046019200F073F9A06B019A002326
:100CD000012505FA03F1114203D0016846F82310FB
:100CE00004300133042BF4D1A063304600F056F9F0
:100CF0000020DBE7032BD8D1150C97B2EB19102B92
:100D0000D3D823681E0700F1B58022AE304600F02C
:100D100023F9ED00A36B4FB1043D711903EBC7003C
:100D200053F8042B41F8042F8342F9D13046A363D2
:100D300000F0F0F80020B9E7002BB6D1A56B97B210
:100D4000201D012606FA03F1394203F1010302D006
:100D5000296801600435102B00F10400F2D112F46F
:100D600000503BD1A563A1E7052B9ED17719202F19
:100D70009BD80F2E66D92F46002D3AD12A46002740
:100D8000002AA06B72DD00EBC202014644A800EB12
:100D9000C6008C3851F8045B40F8045F9142F9D1E9
:100DA000084697B1102E324644A938BF102201EBF5
:100DB000C202A2F5C4727900043A00EB810150F836
:100DC000045B42F8045F8842F9D1012B48D00F2E12
:100DD000A16333D917B102A800F094F8002065E7A9
:100DE0000F2E3FF662AF00272268D10717D4002FDD
:100DF00060D02268510745D4012B4DD00F2E06D864
:100E000022A8019300F07AF8019B002FB6D002A827
:100E1000019300F07BF8019BC6F11002B0E722F0CD
:100E20000101052B2160019320463BD022F00302F3
:100E300040F8482B00F05AF8019BD8E722A800F0B0
:100E400059F8C7E7102FCED9103FCDE723F0100394
:100E5000236004F5E870019200F0AAF8019A2FE7E8
:100E60000431A16322A800F03DF8B7E7002F99D123
:100E70000146AAE723F00803236004F5A87000F0F8
:100E80006BF842E7204622F0040240F8D02B019391
:100E900000F03CF8019BAFE722A8019300F026F890
:100EA000019BB9E741F0020140F8481B00F026F829
:100EB000019B9CE7012B03D00F2E3FF65FAF9FE70E
:100EC00022A8019300F012F8019B57E700F13401CA
:100ED00091E838009C46A6464CF8045D90E8FF0F68
:100EE000E54600BD90EC210B704700BF80EC210B64
:100EF000704700BF90EC200B704700BF80EC200BC8
:100F0000704700BFD0EC200B704700BFC0EC200B37
:100F1000704700BFF0EC0201F0EC0211F0EC02218E
:100F2000F0EC0231F0EC0241F0EC0251F0EC026125
:100F3000F0EC0271F0EC0281F0EC0291F0EC02A115
:100F4000F0EC02B1F0EC02C1F0EC02D1F0EC02E105
:100F5000F0EC02F1704700BFE0EC0201E0EC02119E
:100F6000E0EC0221E0EC0231E0EC0241E0EC025165
:100F7000E0EC0261E0EC0271E0EC0281E0EC029155
:100F8000E0EC02A1E0EC02B1E0EC02C1E0EC02D145
:100F9000E0EC02E1E0EC02F1704700BFB0FC01813F
:100FA000B0FC0191B0FC01A1B0FC01B1704700BFE1
:100FB000A0FC0181A0FC0191A0FC01A1A0FC01B159
:100FC000704700BFEC4600B52DE900502DE9FF1F2A
:100FD0004FF000032DE90C0001A9FFF7F3FBDDF84A
:100FE00040E012B0704700BFEC4600B52DE900505C
:100FF0002DE9FF1F4FF000032DE90C0001A9FFF7B9
:101000001BFCDDF840E012B0704700BFEC4600B5B5
:101010002DE900502DE9FF1F4FF000032DE90C00D2
:1010200001A9FFF72BFCDDF840E012B0704700BFCC
:10103000EC4600B52DE900502DE9FF1F4FF00003ED
:101040002DE90C0001ABFFF7EDFBDDF840E012B03D
:10105000704700BFEC4600B52DE900502DE9FF1F99
:101060004FF000032DE90C0001AAFFF765FCDDF845
:1010700040E012B0704700BF027A1AB9437A43B910
:10108000B02070470368013A02721A020260180E1B
:1010900070474268013B10B4437213680321141D6A
:1010A00001721A02446002605DF8044B180E70472A
:1010B00000B585B003AA0023009219460C22FFF761
:1010C000EDFB039805B05DF804FB00BFF0E700BF3F
:1010D0002DE9F043064685B00F464FF0000838462C
:1010E000FFF7CAFFB028044623D0050627D4002303
:1010F0000DF10C09194685000D22CDF800903046FF
:10110000FFF7CCFBEDB2039BCDF80090600605F134
:1011100004054CBF5D1BED18002319460D22304617
:101120000395FFF7E1FB3846FFF7A6FFB02804461A
:10113000DBD1B8F1000F00F0958000201CE000F03A
:10114000F003802B5DD0902B19D0A02B2CD0B02B8E
:101150003FD0C02B6CD000F0F803D02B0BD100F0A7
:101160000702013242F40022052301213046FFF735
:1011700089FD0028B3D0092005B0BDE8F08300F058
:101180000D030D2BF7D003AD002300F00F0219461D
:1011900000953046FFF782FB0023009519460D228B
:1011A0003046FFF7A1FB9AE7C24302F007034FF472
:1011B0007F621A41010702F47F624FF0000348BFCB
:1011C00042F4804219463046FFF75CFD0028D2D138
:1011D00085E7B12857D0B22868D0B32800F09580B1
:1011E00000F0FC03B42BC6D000F00702013201234B
:1011F00042F4002219463046FFF744FD0028BAD1D8
:101200006DE73846FFF738FF24020443B4F5004F7A
:10121000B1D024010023A2B219463046FFF732FDB7
:101220000028A8D114F4004F18BF4FF0010856E76A
:10123000C6287DD0C72800F0868000F0F803C02BB8
:1012400000F09480C82800F09F80C92893D13846C8
:10125000FFF712FF020300F00F0002F470220130CA
:10126000024381E703AC43460E22414600943046D8
:10127000FFF714FB0094304643460F224146FFF728
:1012800033FB404678E73846FFF7F6FE00283FF488
:1012900072AF10F0F0037FF46EAF0246194630468D
:1012A000FFF7F0FC00287FF466AF18E700230DF18C
:1012B0000C090D221946CDF800903046FFF7EEFAE2
:1012C0003846FFF7D9FE02064FF002040CD5039B07
:1012D00000F07F00A040034438460393FFF7CCFEA4
:1012E000030604F10704F2D4039BCDF8009000F04C
:1012F0007F02A24003F501740023144419460D2215
:1013000030460394FFF7F0FAE9E63846FFF7B4FEFB
:10131000010300F00F0001F47021421C01230A4375
:1013200030461946FFF7AEFC00287FF424AFD6E61E
:101330003846FFF7A1FE010300F00F0001F4702111
:10134000421C0323EBE73846FFF796FE00283FF4E4
:1013500012AF10F0F0037FF40EAF024604213046C6
:10136000FFF790FC00287FF406AFB8E600F00F020C
:101370000132032342F4202219463046FFF782FC53
:1013800000287FF4F8AEAAE63846FFF775FE00F0B5
:10139000F00200F00F031032013343EA0232E3E6B9
:1013A00010B5C36C84B05A6803208DF80C00DC794A
:1013B0008DF80D4012020833084601A901920293EC
:1013C000FFF786FE04B010BD08B5FFF77FFE806C06
:1013D00008BD00BF08B5FFF779FEC06CC37900EB0C
:1013E0008300083008BD00BF08B509F036FA00BF19
:1013F00008B5FFF7F9FF00BF704700BF08B50B4BFA
:101400001A6842F400721A601A6842F480621A6024
:101410001A6842F480721A60032000F091FB0020E9
:1014200006F048F906F09CF8002008BD003C024098
:10143000034A044B11681B780B441360704700BFCC
:10144000A048002000000020014B1868704700BF32
:10145000A048002038B50446FFF7F6FF631C054698
:1014600002D0044B1B781C44FFF7EEFF401B844264
:10147000FAD838BD0000002000287CD090F8203039
:1014800070B50446002B73D02268136823F0020362
:101490001360FFF7D9FF054604E0FFF7D5FF401BB7
:1014A0000A285CD823685A689107F6D41A6842F073
:1014B00001021A60FFF7C8FF054604E0FFF7C4FF0A
:1014C000401B0A284BD823685A68D207F6D5227EDB
:1014D000012A1A680CBF42F0800222F080021A60D2
:1014E000627E012A1A680CBF42F0400222F04002DC
:1014F0001A60A27E012A1A680CBF42F0200222F074
:1015000020021A60E27E012A1A680CBF22F0100243
:1015100042F010021A60227F012A1A680CBF42F0C2
:10152000080222F008021A60627F012A1A680CBFC2
:1015300042F0040222F004021A60A268E6682569FB
:101540006069616832432A43024301390A43012535
:101550000021DA610846616284F8205070BD636A38
:10156000052243F400336362012084F8202070BD1B
:1015700006F018F888E70120704700BF90F8203087
:10158000013B012B05D9436A43F4802343620120C8
:1015900070473C4BD3F8002242F00102F0B4C3F88C
:1015A0000022D3F8002222F47C52C3F80022D3F8A0
:1015B0000022486A42EA0022C3F800224A69D3F8AE
:1015C0001C52012402F01F0004FA00F0C44325401D
:1015D000C3F81C52CD69002D3AD0012D15D1D3F896
:1015E0000C520543C3F80C52D2000F688D888E68E8
:1015F0008B8902F1804202F5C84245EA074543EA79
:101600000643C2F84052C2F844328B691D4A9BBB64
:10161000D2F804322340C2F804320B692BBB194BB9
:10162000D3F814221440C3F814420B6A012B05D1DD
:10163000144BD3F81C221043C3F81C02114AD2F8F1
:10164000003223F001030020C2F80032F0BC7047E2
:10165000D3F80C522540C3F80C52D20002F180425C
:10166000CF688D888E680B88C5E7064AD2F8143299
:101670000343C2F81432D8E7D2F804320343C2F865
:101680000432CAE70064004038B590F82030012BDE
:1016900005D0436A43F400234362012038BD026849
:1016A000022380F82030136823F0010313600446FE
:1016B000FFF7CAFE054604E0FFF7C6FE401B0A28F6
:1016C00007D823685B6813F00103F5D163621846FD
:1016D00038BD636A052243F400336362012084F855
:1016E000202038BDF0B490F820400568013C012C62
:1016F000AE6806D9436A43F4802343620120F0BCFC
:10170000704716F0E05F2ED0C6F30166032E31D08D
:101710000120B04018608B6893BB0C68C86806F164
:1017200018031B0140EA4450E850087D096936015E
:10173000AB190128C3F8841105D1D3F8841141F401
:101740008071C3F8841135445168C5F88C11126852
:10175000C5F88821D3F8802142F001020020C3F8A7
:101760008021F0BC7047436A43F400134362F0BC2D
:1017700001207047436A43F4000343620120BEE73F
:10178000CF684C6806F118003B43000143EAC403EC
:101790002B50CAE72DE9F04190F82040013C012C84
:1017A00006D9436A43F4802343620120BDE8F081F7
:1017B000056800295AD02C69A4075AD00C012E19AB
:1017C000D6F8B07107F004079760002F5FD1D6F804
:1017D000B0717F0D1760D6F8B0C1D6F8B4E1D6F875
:1017E000B471D6F8B46125440CF0020CD5F8B88178
:1017F000C2F80CC00EF00F05C7F30727360C1561B1
:101800009761566183F8008002682244D2F8B821BB
:10181000120A5A7002682244D2F8B821120C9A7047
:1018200002682244D2F8B821120EDA70026822440B
:10183000D2F8BC211A7102682244D2F8BC21120AE3
:101840005A7102682244D2F8BC21120C9A710268C3
:101850001444D4F8BC21120EDA71026881B9D3683D
:1018600043F020030846D360BDE8F081EC68A6078A
:10187000A4D1436A43F4001343620120BDE8F08120
:10188000136943F0200313610020BDE8F081D6F80E
:10189000B071FF0857609EE790F82030013B012BA4
:1018A00005D9436A43F480234362012070470268EC
:1018B0005369194351610020704700BF704700BF52
:1018C000704700BF704700BF704700BF704700BF40
:1018D000704700BF704700BF704700BF704700BF30
:1018E000704700BF704700BF704700BF2DE9F84F39
:1018F00003685C69D3F804809F68D3F80CB0D3F810
:101900001090D3F818A014F00105064625D017F062
:10191000010540F09F804FF480414FF40052F805DC
:101920000DD533684FF480709860BB0500F1CA8014
:10193000780500F1DA803B0540F1EB800D46F803B5
:101940000BD533684FF48032B9039A6000F1B6804A
:101950007A0340F1CC8045F40045270702D51BF0FF
:10196000100F71D1600703D51BF0080F40F0828083
:10197000A10704D53368DB689A0740F090806306BE
:1019800002D519F0100F59D1A70603D519F0080F89
:1019900040F08980E00604D533681B69990740F060
:1019A0008980A20302D518F0100F6AD1E30302D593
:1019B00018F0080F6CD1270405D518F0040F0BD1CF
:1019C000336804225A602DB1736A1D437562304634
:1019D000FFF78AFFBDE8F88FE00504D51AF0010F84
:1019E00018BF45F00105A10504D51AF0020F18BF74
:1019F00045F00205620504D51AF0040F18BF45F042
:101A000004052305DCD51AF0700AD9D0BAF1300FDD
:101A100000F08D8070D9BAF1500F00F08580BAF1D6
:101A2000600F00F08780BAF1400F01D145F040050A
:101A300033689A6922F070029A61C2E73368102213
:101A400045F480651A619FE73368102245F40075FC
:101A5000DA6087E701229A60BB0737D47D073DD45F
:101A600017F0080559D04FF4A0414FF440524FF4FD
:101A7000805554E733680822DA603046FFF72AFFC2
:101A800076E7336810225A603046FFF729FF8DE76A
:101A9000336808225A603046FFF724FF8BE7304650
:101AA00005F0D4FA6BE7336808221A613046FFF775
:101AB00015FF6FE73046FFF70FFF72E73046FFF77D
:101AC00001FF4AE73046FFF7FBFE38E7FFF7F6FE77
:101AD00000254FF480414FF4005220E74FF490412D
:101AE0004FF420524FF4006519E7154627E73B03F2
:101AF0000BD545F4803530E7BAF1100F1DD0BAF19F
:101B0000200F95D145F0100592E73046FFF7E0FE33
:101B100023E73046FFF7DAFE11E7FFF7D5FE4FF473
:101B200080414FF40052FAE645F0800580E745F029
:101B300020057DE745F480757AE745F0080577E7ED
:101B4000074AD3684FF6FF010B40000243F0BF6322
:101B500000F4E06043F400330343D360704700BFF8
:101B600000ED00E0184B70B4DC68C4F30224C4F14B
:101B70000706042E04F1040328BF0426062B17D9F8
:101B8000033C0125A540013D2A400123B340013B10
:101B90001940A140002841EA02010CDB00F160403D
:101BA00000F561400901C9B280F8001370BC7047AC
:101BB00000221446E9E7054B00F00F000901034439
:101BC000C9B2197670BC704700ED00E0FCEC00E093
:101BD000002807DB00F01F0101234009024A8B4067
:101BE00042F82030704700BF00E100E090F8353047
:101BF000022B03D080234365012070470268052330
:101C000080F83530136823F001031360002070471B
:101C100090F83500704700BF2DE9F04F002583B0E4
:101C20008C46D1F80080DFF804E22A4605E0013254
:101C3000102A05F1020500F094800123934003EA85
:101C400008018B42F3D1DCF8046026F0100909F199
:101C5000FF33012B4FF0030303FA05F340F28480B6
:101C6000C768DCF80840DB431F40AC403C43C4601D
:101C7000076806F003041F402346AB403B43036064
:101C8000F300D4D54FF00009614BCDF804905B6CA4
:101C90005F4C43F480436364646C22F0030303F1FC
:101CA000804304F4804403F59C33019402F0030460
:101CB000019FD3F808A0A4000F27A7402AEA070A2B
:101CC000544FB84222D007F58067B84200F08280B6
:101CD000514FB84200F08380504FB84200F08480EA
:101CE0004F4FB84200F085804E4FB84200F08680DA
:101CF0004D4FB84200F08780DFF8349148450CBF63
:101D00004FF007094FF0080909FA04F94AEA0907F0
:101D10009F60DEF80030CC43F70354BF23400B43F1
:101D2000CEF80030DEF80430B70354BF23400B4335
:101D3000CEF80430DEF80830F70254BF23400B43DE
:101D4000CEF80830DEF80C30B60202F1010254BFC2
:101D500023400B43102ACEF80C3005F102057FF426
:101D60006CAF03B0BDE8F08F8468DCF80870DB432B
:101D700004EA030ADCF80C40AC4044EA0A0484603C
:101D8000D0F804A0C6F300142AEA010A944044EAF9
:101D90000A044460C468AF401C402743B9F1020FF5
:101DA000C7607FF465AF4FEAD20900EB890902F002
:101DB0000707D9F82040BF004FF00F0B0BFA07FBC5
:101DC00024EA0B0ADCF81040BC4044EA0A04C9F8D3
:101DD00020404DE74FF0010909FA04F996E74FF06A
:101DE000020909FA04F991E74FF0030909FA04F925
:101DF0008CE74FF0040909FA04F987E74FF0050969
:101E000009FA04F982E74FF0060909FA04F97DE7B7
:101E1000003802400000024000080240000C02406E
:101E2000001002400014024000180240003C014033
:101E3000001C024002B9090481617047436931EA1C
:101E4000030308BF09048161704700BF036D5BB9DC
:101E5000C36C0268012B836C0DD0C3F3072313619D
:101E6000036D013303657047036D012B09D0036DCA
:101E7000022B0ED07047DBB21361036D0233036592
:101E80007047836C0268DBB21361036D0133036535
:101E9000704790F83D30222B0ED090F83D30212B2A
:101EA000E8D1426A036812F8011B1961438D42624E
:101EB000013B9BB24385DDE70268136843F48073FE
:101EC000136070472DE9F0420446006889460168B6
:101ED00041F480610160016882B041F48071089D25
:101EE000016016461F466B1C45D14369D907FCD5D6
:101EF0005FFA89F909F0FE030361691C14D0436994
:101F0000990714D443695B055AD4FFF79DFA099BDE
:101F1000C01A8542C0F0E480002D00F0E180206806
:101F2000EBE743695B054BD443699A07F9D5002376
:101F300001934369019383690193019B6B1C6FD1EA
:101F40004369190654D443695A05F9D50022202360
:101F50006FF480614161226384F83D3084F83E2053
:101F6000236C84F83C2043F004032364236C042B8B
:101F700066D001201DE04369DA07B9D4FFF764FA9F
:101F8000099BC01A854202D30DB12068ABE700223D
:101F90002023226384F83D3084F83E20236C21689E
:101FA00084F83C2043F0200323640B68DA0503D453
:101FB000032002B0BDE8F0824FF400732364F7E71A
:101FC000036800226FF4806543F4007320210360EE
:101FD0004561226384F83D1084F83E20236C84F828
:101FE0003C2043F004030120236402B0BDE8F082EA
:101FF000012F0AD0330A03616A1C61D143691B06B1
:1020000003D443695F05A1D4F8E7F6B206616B1CFF
:1020100037D143691F061AD443695E0596D4F8E7A1
:1020200043691B06E4D443695A058FD4FFF70CFAC1
:10203000099BC01A854261D3002D5FD020687DE7DF
:102040002268136843F4007313600120B1E703684A
:1020500043F4807303606B1C23D14369DF07FCD515
:1020600049F00109C0F810906A1C03D054E043699C
:102070005B05A5D44369DB4313F00203F7D118468F
:1020800097E743691906E2D443695A053FF55EAF05
:10209000FFF7DAF9099BC01A85422FD375B3206880
:1020A000B5E74369DE07DBD4FFF7CEF9099BC01A19
:1020B0008542FFF46CAF002D3FF469AF2068CAE79A
:1020C00043691906A1D4436959053FF53FAFFFF7AE
:1020D000BBF9099BC01A854210D37DB120688BE7FC
:1020E00000222023226384F83D3084F83E20236CB4
:1020F00084F83C2043F0200323643AE700222023A5
:10210000226384F83D3084F83E20236C84F83C2020
:1021100043F02003236429E74369DB4313F0020300
:10212000ADD0436959053FF54BAFFFF78DF9099BDA
:10213000C01A8542D4D3002DD2D0206894E700BFC6
:10214000002800F0B180F8B590F83D30044603F067
:10215000FF02002B00F093802368242284F83D20A6
:102160001A6822F001021A601A6842F400421A60EA
:102170001A6822F400421A6002F04AF961684B4B77
:1021800099424BD84A4B984277D92268494B5568B7
:10219000A3FB00639B0C25F03F051D435560156AAA
:1021A000013325F03F052B431362D56949000138FF
:1021B000B0FBF1F00130C0F30B0025F44F450428CB
:1021C00038BF042025F0FF052843D0611568E06979
:1021D000266A2169E768636925F0C0053043284312
:1021E00010609068A56920F4034020F0FF00394397
:1021F00001439160D1682B4321F0FF010B43D36071
:102200001168002341F00101202511601846236464
:1022100084F83D50236384F83E30F8BD264B984245
:102220002BD92268234B5768DFF890E0A668A3FB00
:1022300000539D0C27F03F072F434FF496735760D0
:1022400003FB05F3AEFB0353156A9B0925F03F051D
:1022500001332B431362D56925F44F4525F0FF0563
:1022600096B9431E01EB4101B3FBF1F30133C3F314
:102270000B03BBB143F40040A6E70120F8BD80F892
:102280003C2005F0D5F967E701EB810303EB8301FF
:10229000431EB3FBF1F30133C3F30B0313B143F458
:1022A000404091E701208FE701207047A0860100A0
:1022B0007F841E0083DE1B43FF083D00D34D621068
:1022C0002DE9F043044683B098460E461746FFF7C3
:1022D000BBF894F83D30202B03D0022003B0BDE8BA
:1022E000F083054605E0FFF7AFF8401B192800F220
:1022F000B08023689A69D24312F00209F3D094F8AF
:102300003C20012AE9D01A680121D00784F83C104A
:1023100002D41A680A431A601A68A24822F40062BA
:102320001A60212284F83D20102284F83E200022E9
:102330002264A4F82A80618DE062E26A6762082A5A
:10234000218500F0B180012A00F0AE80824200F0C9
:10235000AB80226B122A00F0A7800A9A013240F06B
:1023600096805A69D207FCD52269B2F5804F40F0B9
:10237000CB8006F0FE061E610A9A013204D0E3E02B
:102380005A69510500F1AB805A699007F8D50022CF
:1023900001925A6901929A690192019A228D002A4A
:1023A00000F0C5800A9A013241D15A69160618D444
:1023B0005A695005F9D500226FF4806020215861D8
:1023C000226384F83D1084F83E20236C84F83C207E
:1023D00043F004032364236C042B00F0E580012008
:1023E0007CE7666A278D3046791E10F8012B1A614A
:1023F000628D6062013A92B26285586989B2420781
:1024000021850AD549B172781A61628D013A023F7D
:10241000023692B22785666262850A9A013226D117
:102420005A695007BAD45A695105C4D4F8E75A69B1
:102430001106D6D45A695705BDD4FFF705F80A9B93
:10244000401B8342C0F09080002B00F08D802368F9
:10245000A8E72023C4F8309084F83D3084F83E90FB
:10246000236C84F83C9043F02003236435E75A69D9
:10247000520793D45A6956059DD4FEF7E5FF0A9B8F
:10248000401B834270D3002B6ED02368C5E75A6986
:10249000D7073FF569AFFEF7D7FF0A9B401B834282
:1024A00007D333B1236858E71A6842F480721A6080
:1024B00053E700222023226384F83D3084F83E2035
:1024C000236C216884F83C2043F0200323640B68CC
:1024D000D90584D54FF4007323640120FEE6196802
:1024E00000226FF4806541F40071202019605D6165
:1024F000226384F83D0084F83E20236C84F83C205D
:1025000043F0040323646AE7F21102F0060242F08A
:10251000F0021A610A9A013203D033E05A69520577
:10252000DDD45A691107F9D5F6B21E6124E719689E
:10253000202541F400711960104684F83D5084F85C
:102540003C2084F83E20C9E65A6992073FF51FAF48
:102550005A695605C3D4FEF777FF0A9B401B834296
:1025600029D343B3236807E700222023226384F89A
:102570003D3084F83E20236C84F83C2043F0200357
:10258000236428E75A691707CED45A695005A6D4A0
:10259000FEF75AFF0A9B401B83420CD35BB12368B2
:1025A000B8E700BF0000FFFF2268136843F4007320
:1025B0001360012092E600222023226384F83D303C
:1025C00084F83E20236C84F83C2043F020032364ED
:1025D00005E700BF2DE9F04F044687B099460F4646
:1025E0009046BDF844A0129EFEF72EFF94F83D30B1
:1025F000202B04D00227384607B0BDE8F08F0546EF
:1026000004E0FEF721FF401B192848D8226893698F
:10261000DB4313F0020BF4D094F83C30012BE9D0EB
:1026200013680121DB0784F83C1002D413680B43C4
:10263000136013689A4823F400631360222384F81C
:102640003D304022002384F83E202364A4F82AA0D1
:10265000B4F82AE0109B63623946019500964B4618
:10266000E0624246A4F828E02046FFF72BFC07462C
:1026700018BB228D236812BB02905A6902929A6994
:102680000292029A1A6842F400721A600023202211
:1026900084F83D2084F83C3084F83E30ABE72023BA
:1026A000C4F830B084F83D3084F83EB0236C84F830
:1026B0003CB043F0200323649CE701279BE7012AF9
:1026C00000F0DF80022A00F0ED8005905969059145
:1026D000996905910599032A7FD8012A00F0B280F3
:1026E000022A4AD0701C54D15A695107FCD51A6885
:1026F000616A22F480621A601B690B70638D616AE3
:10270000228D013B9BB20131013A638561622285D2
:10271000701C226848D153695907FCD51368616A57
:1027200043F40073136013690B70638D606A218D2D
:102730002268013B9BB26385126900F1010E4B1EBA
:10274000C4F824E023854270228D638D616A013ACA
:10275000013B92B29BB20131228563856162002AFE
:1027600094D02368B7E75A6952070BD4FEF76CFE82
:10277000401B864222D30EB32368701CF3D15A69E2
:102780005107FCD51A68616A42F400721A601B692D
:10279000CAE75A695207AAD4FEF756FE401B864282
:1027A0000CD35EB123689DE753695B07B6D4FEF78F
:1027B0004BFE401B864201D3002EA9D100222023CC
:1027C000226384F83D3084F83E20236C84F83C205A
:1027D00043F02003236401270DE74EB944E05A6912
:1027E000D2061FD4FEF730FE401B8642E6D3236894
:1027F0005A695106F3D5626A1B691370618D2368AB
:10280000228D606A013989B261855969013A92B2B3
:1028100000F1010E49072285C4F824E09FD51B6909
:10282000437091E700226FF010002021586122636D
:1028300084F83D1084F83E20236C84F83C20236407
:102840000127D8E64EB918E05A69D106EAD4FEF756
:10285000FBFD401B8642B1D323685A695006F3D56D
:10286000626A1B6913706FE75A695006C3D45A69CC
:10287000D006D7D4FEF7E8FDA0E75A695206F6D590
:10288000EEE7196821F4806119600390596903919A
:10289000996903910399196841F4007119601AE765
:1028A0000000FFFF196821F480611960196841F484
:1028B000006119600490596904919969049104991F
:1028C00009E700BF704700BF704700BF704700BFF7
:1028D000704700BF704700BF704700BF704700BF20
:1028E000704700BF704700BF704700BF836B70B573
:1028F00093F83D105C6B986BCEB2002C33D0002166
:10290000E163002838D01A68C163156825F4806532
:1029100015605985216500210165116821F00101CB
:10292000116093F83D0060282ED006F02801282978
:1029300009D02021002283F83D10184683F83E205C
:10294000FFF7D0FF70BD106840F001001060106804
:10295000002440F4806010601C63184683F83D102A
:10296000FFF7C0FF70BDD0B11A68C463116821F4CD
:10297000806111605C85CEE71A68116821F480617E
:10298000116058852065C8E70022202183F83D109A
:10299000184683F83E201A64FFF7A6FF70BD1A6838
:1029A000116821F4806111605885B6E770B503683D
:1029B00004465868E56A94F83E2094F83D10D2B277
:1029C000102A8CB037D0402A35D0226CC9B2C2B997
:1029D0009D695A6912F0020619D0860519D5226C34
:1029E00002B19D6994F83D2002F02802282A00F0E7
:1029F000B6816FF002010022596184F83C200CB0CE
:102A000070BD5A6912F002064FF00005E5D1D506F7
:102A100068D401F0F701212900F02D81560600F15C
:102A2000F8805207EBD58605E9D5628D92B2002A6F
:102A300040F07E81E3E799695A69D6072BD4B5F552
:102A40002A0FDCD0B5F12A4FD9D0160740F1C98042
:102A5000850500F1988111F0040F596800F04B8151
:102A60000905CCD4160640F10281450540F1FF80EE
:102A7000510740F190828605C1D5E16A94F83D2066
:102A8000212A00F0A78294F83E30402BB7D120468F
:102A9000FFF7DCF9B3E7850540F1A080E26AB2F503
:102AA0002A0F00F08081E26AB2F12A4F04BF0822A7
:102AB000E26294F83E20402A00F078812269B2F563
:102AC000804F00F07D81226D002A00F04081226D50
:102AD000012A94D1626CD21102F0060242F0F10296
:102AE0001A618CE7850594D594F83D505A6822F414
:102AF000E0625A600B965A690B921A6842F0010222
:102B00001A600B9A1A6822F480621A605A681005DB
:102B1000EDB220D505F0F702222A00F06F81606B3C
:102B20000268526892B26285628D92B21AB1226CCA
:102B300042F0040222645A6822F400625A60FFF7ED
:102B400067F8012807D0606B9C4B0365FFF74EF8D0
:102B5000002840F0F982638D9BB213B323685A6951
:102B600051070AD5626A1B691370628D616A236816
:102B7000013A92B20131628561625A69520609D501
:102B8000626A1B691370638D626A013B9BB20132FA
:102B900063856262638D9BB21BB1236C43F00403B7
:102BA0002364236C002B40F068812A2D00F0BA8149
:102BB00094F83D30282B00F0A181236B222B02D00A
:102BC000222D7FF41CAF002320222363204684F8AB
:102BD0003D2084F83E30FFF77BFE10E715073FF5F8
:102BE0003AAF96077FF537AF85057FF534AF94F898
:102BF0003E20E06A256B94F83D102229D2B200F005
:102C00001E8100220A925A690A929B690A930A9BC2
:102C1000F5E645057FF505AF51073FF504AF94F89C
:102C20003D10628D92B2C9B2002A3FF4E8AE626AEA
:102C30001B691370638D626A013B9BB26385638D70
:102C400001329BB26262002B7FF4D9AE2A297FF455
:102C5000D6AE22685368222523F48063282153606E
:102C60002046256384F83D10FFF732FEC7E6520781
:102C70007FF5C5AEFFE6150628D5460526D55507CE
:102C800027D494F83D00628D92B2C0B2002A3FF47E
:102C9000B6AE656A15F8012B1A61628D6562013A5C
:102CA00092B26285628D92B2002A7FF4A8AE292882
:102CB0007FF4A5AE5A68282522F480625A60204627
:102CC000216384F83D50FFF701FE98E651077FF538
:102CD00096AE82057FF593AE628D92B2002A3FF4E4
:102CE0008EAE626A12F8011B1961638D6262013B4C
:102CF0009BB2638583E60D053FF581AE510622D573
:102D0000460520D5550740F1278182057FF577AE2E
:102D1000E16A628D92B2042A00F0B881628D92B2AB
:102D2000032A00F0A481628D92B2022A00F0D081C1
:102D3000626A1B691370638D626A013B9BB2013248
:102D4000638562625BE651077FF559AEDDE7626C31
:102D5000D21102F0060242F0F0021A614FE65A6800
:102D600022F480625A602E0685F004014FF00003C1
:102D7000C1F3800154BFA289228B84F83C302046E5
:102D8000FFF7A8FD3BE6626C616BD2B21A610029C5
:102D900000F0C180CA6B002A00F0C2805A6842F479
:102DA00000625A602BE60122E26282E6226DFAB9E5
:102DB000626C02F0FE021A6121E600BFED280008F5
:102DC00094F83D20212A626C16BF42F0010202F005
:102DD000FE02D2B21A61626B12B1D26B002ADDD14F
:102DE000A26B002A3FF40BAED26B002AD6D106E6C6
:102DF000626C42F00102D2B21A6100E6A06B026876
:102E0000526892B26285628D92B21AB1226C42F01F
:102E1000040222645A6822F400625A60FEF7F8FE47
:102E200001283FF498AEA06BA64B0365FEF7DEFECB
:102E300000283FF490AEA06B036D98478BE6216DA0
:102E400011B9402A00F00E82226D22B92169B1F534
:102E5000404F00F00F82628D92B2002A40F0DF8076
:102E600003925A6903929A690392039A1A6842F488
:102E700000721A6000232365C1E594F83D2094F8A0
:102E80003E30102BD2B200F00F8102F02801282929
:102E900000F00481236859680D0504D4602A02D02B
:102EA000202284F83D200022226384F83E205A68C4
:102EB00012F400623ED05A68606B22F400625A60DD
:102EC00090F83530012B00F043817E4B0365FEF70F
:102ED0008DFE002840F09081236C1B0704D02268EF
:102EE000536823F4E063536094F83D30226C560736
:102EF000DBB27FF584AD282B7FF481AD724BE362AA
:102F0000202200232363204684F83D2084F83E30AD
:102F1000FFF7E2FC73E5A26B002A7FF43BAF6EE59E
:102F2000A26B61E728222363204684F83D20FFF747
:102F3000CFFC3DE694F83D10602900F027815A69E6
:102F4000520605D5626A1B691370636A01336362B6
:102F50002046FFF7C7FCBFE794F83D20222A7FF404
:102F60004EAD628D92B2032A40F25281626A1B69B1
:102F70001370638D626A013B9BB26385638D9BB264
:102F80000132032B62627FF43AAD2268536823F466
:102F90008063536033E594F83D20208D94F83E1013
:102FA000E56AD2B2C9B2002840F0CA80212A00F0F6
:102FB000748140297FF423AD222A7FF420AD628DF5
:102FC00092B2002A00F0BD8194F83E20402A7FF49E
:102FD00088AE5CE5628D92B2002A7FF482AE082949
:102FE00005D0202903D011F5803F40F09D815A681B
:102FF00022F4E0625A6019680022202041F4007136
:103000001960226384F83D0094F83E3084F83E2035
:10301000402B204600F03D81FFF754FCEFE4628D29
:1030200092B2012A00F0CC80628D92B2022A00F0A6
:103030004F811A6842F480621A605A6815050ED5ED
:1030400010F5803F07D001381F2808D81F4A22FA00
:1030500000F0C00703D55A6842F480525A6000223B
:1030600009925A6909929B690993099B02E75A6878
:10307000042922F480625A603FF45AAE02293FF4D8
:1030800057AE1A6822F480621A6051E65A68616A83
:1030900022F480625A601B690B704CE600232363A4
:1030A000236884F83D1002E7222A7FF4EEAE2168FF
:1030B0000A6822F400620A604A6816050B467FF52A
:1030C000EFAEF0E6ED2800080000FFFF81800080F1
:1030D00001291A6870D010296ED0042900F03781B8
:1030E000022900F0348142F400721A60626A1B699E
:1030F0001370638D626A2168013B9BB263850B6923
:10310000511C61625370638D2168626A013B9BB2FE
:1031100063854B68013223F44073202062624B6068
:1031200084F83D0094F83E30402B00F0928000225D
:10313000122384F83E2020462363FFF7C5FB5EE49C
:10314000212A7FF436AF3AE7606B036D984702E5BA
:10315000A06B9F4B0365FEF749FD00283FF4BCAE12
:1031600023685A69500606D5626A1B691370626A41
:103170002368013262621A68A06B22F001022021EA
:103180001A60036D84F83D109847A5E6202184F865
:103190003D1022645A69510606D5626A1B69137094
:1031A000626A2368013262621A6822F001021A60C0
:1031B0002046FFF799FB8FE622F480621A6095E7BC
:1031C00010F5803F00F0DA80082800F0C780202842
:1031D00000F0C480122D00F0BE80102840F2E28082
:1031E0001A6822F480621A60002206925A690692D6
:1031F0009B690693069B3DE62268606B1368016D30
:1032000023F001032025136084F83D50884763E6CE
:10321000E16A02293FF4F3AB012A3FF6F0AB1A68EA
:10322000616A22F480621A605A6822F4E0625A608D
:103230001B690B70638D626A013B9BB22021638521
:1032400084F83D1094F83E300132402B62627FF4E6
:103250006EAF002384F83E3020462363FFF740FB27
:10326000FFF7CDBB01915A6901929B690193019BC4
:10327000FFF7C5BB02925A6902929A690292029ABA
:103280001A6842F480721A60236D01332365FFF7D8
:10329000B6BBFFF723FBFFF7B2BB082D3FF4A7AE89
:1032A000202D3FF4A4AE15F5803F3FF4A0AE5A6840
:1032B000112622F4E062002520215A602046266370
:1032C00084F83E5084F83D10FFF7FCFAFFF797BBF7
:1032D000102820D91A6822F480621A601A6842F411
:1032E00000621A605A6812050DD510F5803F06D0AD
:1032F00001381F2807D8374AC240D60703D55A6875
:1033000042F480525A60002208925A6908929B69DE
:103310000893089BAEE5304AC240D107DAD51A6857
:1033200042F480621A60DDE75968112621F4E061F9
:10333000202559602046266384F83E2084F83D50BD
:103340006AE65A6822F480625A60FFF758BB42F47A
:1033500080621A60CAE601283FF442AF1A68002171
:1033600022F480621A6007915A6907929A6907925B
:10337000079A1A6842F400721A607BE51A6822F410
:1033800080621A605A6812F4006216D01A6800212E
:1033900022F480621A6004915A6904929B69049332
:1033A000049B67E50C4A22FA00F0C0077FF518AFCE
:1033B0001A6842F480621A6016E705925A6905920B
:1033C0009A690592059A1A6842F400721A6051E5EA
:1033D000ED2800088180008014000100F0B58BB05A
:1033E000002800F0868090F8BD330568044603F09D
:1033F000FF02002B77D02846032384F8BD33EB6B04
:10340000254613F4807308BF236101F089FA55F84B
:1034100010EB2F460FCF6E460FC60FCF0FC697E8A3
:10342000030086E80300261D704696E80E0001F0B2
:103430008BF9074630B101250223284684F8BD33B5
:103440000BB0F0BD0146206801F072FA606860B30D
:1034500039463A464FF0010EC1EBC10304EB83033A
:103460004F1C83F83C10A3F84210F9B2814283F854
:103470003DE083F83F205A649A641A65ECD3002239
:103480001146C2EBC20304EB8303571C83F8FC21F3
:10349000FAB2824283F8FD1183F8FF11C3F80412D7
:1034A000C3F80812C3F81012EBD30FCD6F46D4F84F
:1034B00000E00FC70FCD0FC795E8030087E80300B2
:1034C000704696E80E0001F04FFA05460028B2D18A
:1034D000012384F83800206884F8BD3301F022FE0F
:1034E00028460BB0F0BD80F8BC2304F011FA206828
:1034F00082E7012528460BB0F0BD00BF90F8BC3331
:10350000012B12D0826A036801218A4210B580F82B
:10351000BC130CD00446184601F0F8FD206801F0F9
:10352000F7F9002084F8BC0310BD022070478269BF
:103530008A42EFD09A6B42F480329A63EAE700BF86
:103540002DE9F04F076889B00446384601F028FE9F
:1035500010B109B0BDE8F08F0646206801F0EEFD1D
:103560000028F6D0206801F0E9FD10F0020F206875
:1035700003D0436903F00203436101F0DFFD10F45F
:10358000002F206840F03F8101F0D8FD420300F198
:10359000D48023680393184601F0D0FD0028C0F2C0
:1035A0008D81206801F0CAFD010548D4206801F032
:1035B000C5FDC30478D4206801F0C0FD10F4005F9D
:1035C00020685AD101F0BAFD10F0100F206811D018
:1035D000836923F0100383613D6AC5F34343022BE3
:1035E00005F00F0600F02E82062B33D0836943F0DE
:1035F0001003836101F0A2FD070700F14C812068F0
:1036000001F09CFDC60200F13C81206801F096FDAE
:10361000850200F14981206801F090FD400000F131
:10362000E980206801F08AFD410792D523685D6832
:103630006A0700F1F3815A6815435D6089E7D7F89E
:103640000838DA0700F1EF812068436903F400636A
:103650004361ACE7082204F571713846C6EBC60633
:1036600001F0D6FC04EB8602C5F30A13D2F814125B
:1036700020680B44C2F81432B8E701F095FD2068C9
:1036800001F084FAE060256800F0BCFE227B014670
:10369000284601F0C1F8204604F0A2F920684369E9
:1036A00003F4005343618DE707F500656B682068FC
:1036B00023F0010310216B6001F056FAD4F804E006
:1036C000BEF1000F15D007F510634FF67F319960FA
:1036D0001A6822F400121A60C3F80812D3F8002204
:1036E000013622F400127645C3F8002203F12003CC
:1036F000EDD1EB69226B43F00113EB61002A00F07E
:103700009681D5F8843043F00B03C5F884306B6C98
:1037100043F00B036B64D7F80038217C206823F456
:10372000FE63C7F8003804F5717201F059FD206896
:10373000436903F4805343613EE7206801F00AFDCA
:103740002368039381461846B9F1000F3FF424AF74
:10375000A04607F5106B4FF0000A0497059609E0A4
:103760005FEA59090AF1010A08F11C080BF1200B64
:1037700000F0B88019F0010FF2D05FFA8AF60398D2
:10378000314601F0F9FC0546E80719D5049B20698C
:10379000D3F8342801270AF00F0107FA01F122EAD1
:1037A0000102B842C3F83428CBF8087000F07581E4
:1037B0003146204604F006F92169012900F05F81B5
:1037C000290744BF0823CBF80830EA0644BF10237A
:1037D000CBF808306B0644BF4023CBF80830AF0766
:1037E00044BF0223CBF80830280600F1A2802368EA
:1037F0000393B5E7204604F02DF92068436903F0F0
:10380000804343610EE701F09DFC05462068002DD2
:103810003FF4BAAE07F53068A2464FF000090396B0
:1038200007E06D0809F1010908F120080AF11C0AF6
:103830005CD0EB07F5D55FFA89F6314601F092FCD2
:1038400010F0010F834653D11BF0080F40F0C780E2
:1038500020681BF0100F1CBF1023C8F808301BF0A5
:10386000200F06D02169012900F06A812023C8F8C1
:1038700008301BF4005F1CBF4FF40053C8F8083039
:10388000CFE72046002104F0E1F82068436903F403
:1038900080134361BAE6204604F09EF8206843692D
:1038A00003F008034361ABE62046002104F0CAF8A8
:1038B0002068436903F400134361ADE694F8F41300
:1038C000D7F80428012922F00102C7F8042800F0E3
:1038D0000781204604F0B2F82068436903F00043F2
:1038E00043615FE6049F059E039855E6039E4BE601
:1038F0002068D4F810E000F53063012103EB491390
:10390000C8F808108E45026CD3F808C000F0FE809D
:10391000AF498A4208D11CF4004F40F044811CF0AA
:10392000200F1CBF202199603146204604F040F84A
:103930008AE7D8F85430D8F85010276803978B429C
:103940003FF60EAF07F5106202EB4A121046D8F8A8
:1039500044200690CD1A95428069AE4628BF96460F
:1039600080B20EF1030EB0EB9E0F34D38B4280F089
:103970009F80002900F09C80CDF81CA0D8F848104A
:10398000DDF818A007E0D8F850509D4240F28D8035
:10399000D8F84420ED1A954228BF1546237C0093A1
:1039A0003246ABB2384601F01DFBDAF81820D8F8E1
:1039B0004810D8F8543029442B4492B20335B2EB66
:1039C000950FC8F84810C8F85430DCD2DDF81CA0B8
:1039D0002768D8F8501099426AD90397C0E623683F
:1039E00021691A6C03F5306303EB491301299868C8
:1039F00000F0858076498A4269D02046049203F01F
:103A0000D1FF744B049A9A4203D92169012900F02D
:103A1000D48008232068C8F808301AE7204604F04C
:103A20001DF8236807E6204603F0F0FF0CE66B69FB
:103A300043F4005343F02B036B612B6943F00B03FA
:103A40002B6168E647F6F0731D423FF4CFADC6EB3D
:103A5000C60604EB8606C5F30A152A463846D6F88C
:103A6000081201F0D5FAD6F80822D6F814322068E8
:103A70002A442B44C6F80822C6F81432B6E5BAF137
:103A8000000F7FF49DAE236D002B7FF499AE04F5FB
:103A90007172206801F0A4FB92E6D8F84830D8F89B
:103AA00044201344C8F8483082E6DDF81CA027689B
:103AB000039B039703F500610AF00F02D3F8343833
:103AC000012000FA02F223EA02034B6348E60604EF
:103AD00002D54FF400429A60204603F063FF94E75A
:103AE000002184F8F413204600F0DCF9F4E62022EB
:103AF0009A601BF0080F3FF4ACAE026C9868354931
:103B00008A42E4D8204603F04DFF82E71CF0080FFC
:103B10001CD030498A4205D91CF4004F1CBF4FF419
:103B200000429A602046049303F03CFF04F5717252
:103B30000121206801F054FB049B08229A6083E66F
:103B400004F5717201F04CFB20688FE61CF0200F29
:103B5000CDD11CF0280FCCD11E498A4202D91CF4C9
:103B6000004F30D11B69DAF80812DAF80402C3F307
:103B70001203C31A0844CAF808023146CAF81432BC
:103B8000204603F015FFB9F1000F7FF45DAED4F8C5
:103B90001032002B7FF458AE04F5717201212068B9
:103BA00001F01EFB50E64FF400421BF0080F9A6034
:103BB0003FF44FAE026C98681CE704F57172206800
:103BC00001F00EFB25E74FF400429A6091E700BF39
:103BD0000A31544F0A30544F90F8BC23012A01D1C6
:103BE0000220704710B50446012284F8381080F88E
:103BF000BC23006801F07AFA002084F8BC0310BDF1
:103C000070B501F00F04C4EBC40511F0800F00EB98
:103C100085054FF01C0121D1002601FB040185F828
:103C2000FD6101F5FE714D780C708A60CB7005B1B5
:103C3000CC80022B04BF00230B7190F8BC33012B06
:103C400001D1022070BD0123044680F8BC33006816
:103C500000F0A8FF002084F8BC0370BD012601FB22
:103C6000040185F83D603C31DDE700BF01F00F0342
:103C7000C3EBC30211F0800F10B500EB82024FF0CE
:103C80001C0118D1002401FB030182F8FD4101F55C
:103C9000FE710B7090F8BC33012B01D1022010BDD6
:103CA0000123044680F8BC33006800F0C7FF002001
:103CB00084F8BC0310BD012401FB030182F83D40E0
:103CC0003C31E6E738B501F00F05C5EBC50400EB64
:103CD00084040021C4F80822C4F8141284F8FD11E9
:103CE000C4F8103284F8FC5103691C2101FB050162
:103CF000012B08BFC4F80C2201F5FE71DAB200688E
:103D00001DB100F0D7FF002038BD01F0DDF8002024
:103D100038BD00BF01F00F01C1EBC10100EB810113
:103D2000D1F81402704700BF70B501F00F05C5EB64
:103D3000C50400EB840401210026A26484F83D1030
:103D4000236584F83C50666503691C2101FB05016D
:103D5000012B08BFE2643C31DAB200681DB100F00B
:103D6000A9FF002070BD01F0AFF8002070BD00BFBA
:103D700038B5436801F00F059D4216D80B0621D4D3
:103D8000C1EBC10300EB83031C24002204FB0101EF
:103D900083F8FD2101F5FE7101230D708B7090F801
:103DA000BC239A4203D1022038BD012038BD04460D
:103DB00080F8BC33006801F03FF97DB1002084F841
:103DC000BC0338BDC5EBC50300EB83031C210122F6
:103DD00001FB050183F83D203C31DDE704F57172FC
:103DE000217C206801F0FCF9E8E700BF426838B5A3
:103DF00001F00F03934218D8C3EBC30211F0800FF8
:103E000000EB82024FF01C011CD1002401FB0301D6
:103E100082F8FD4101F5FE7100250B708D7090F860
:103E2000BC33012B03D1022038BD012038BD04462C
:103E3000012380F8BC33006801F02CF984F8BC53EE
:103E4000284638BD012401FB030182F83D403C3186
:103E5000E2E700BF30B405686C6AC9B1AB6A0139EA
:103E600004EB13440BD0002303F1400005EB80006A
:103E700001334068DBB28B4204EB1044F4D3403191
:103E800005EB810144EA02444C60002030BC7047DD
:103E900044EA0244AC62002030BC70470368002052
:103EA00059627047704700BF002800F0D7812DE9A4
:103EB000F0410368DD0782B004462FD5AB498A681C
:103EC00002F00C02042A00F023818A6802F00C023E
:103ED000082A00F019816368B3F5803F00F05A8129
:103EE000B3F5A02F00F0E580A04D2A6822F48032BF
:103EF0002A602A6822F480222A60002B40F0E280A7
:103F0000FDF7A2FA064605E0FDF79EFA801B64283D
:103F100000F2F6802B689B03F6D423689F0728D510
:103F2000924A916811F00C0F00F09080916801F0B6
:103F30000C01082900F08680E368002B00F00F8157
:103F40008B4B8A4D01221A60FDF77EFA064605E08A
:103F5000FDF77AFA801B022800F2D2802B689807BE
:103F6000F6D52B68226923F0F80343EAC2032B60DD
:103F700023681A0752D4580730D57C4A136C13F0C3
:103F800080537ED000267B4D2B68D90540F1A88058
:103F9000A368012B00F02881052B00F0C380734D2E
:103FA0002A6F22F001022A672A6F22F004022A6790
:103FB000002B40F0C080FDF747FA41F28837804679
:103FC00006E0FDF741FAA0EB0800B84200F2988045
:103FD0002B6F9807F5D4002E40F00C81A069C8B172
:103FE000624DAA6802F00C02082A00F0D980624AE9
:103FF00000210228116000F00381FDF725FA2C460C
:10400000054604E0FDF720FA401B022878D8236813
:104010009B01F7D4002002B0BDE8F081636903B3CF
:10402000564B524D01221A60FDF70EFA064604E087
:10403000FDF70AFA801B022862D86B6F9B07F7D541
:10404000236898E7526856023FF576AF474A1268F0
:10405000950722D5E268012A1FD0012002B0BDE8F1
:10406000F081464A414D1360FDF7EEF9064604E043
:10407000FDF7EAF9801B022842D86B6F9F07F7D43F
:10408000DEE70193136C43F080531364136C03F069
:1040900080530193019B012675E7344920690A6822
:1040A00022F0F80242EAC0020A601A077FF563AF05
:1040B000B4E72E4B1A6842F480221A601A6842F460
:1040C00080321A60FDF7C0F9284D064604E0FDF77E
:1040D000BBF9801B642813D82B689A03F7D51CE71B
:1040E0002B6843F480732B60FDF7AEF907462B680D
:1040F000DA053FF54DAFFDF7A7F9C01B0228F6D949
:10410000032002B0BDE8F0814A6850027FF5E3AEBB
:10411000164A126891037FF501AF6268002A7FF4A6
:10412000FDAE9AE7114B1A6F42F004021A671A6F3C
:1041300042F001021A67FDF787F90C4D804641F203
:10414000883705E0FDF780F9A0EB0800B842D7D822
:104150002B6F9B07F6D5002E3FF440AF4AE0044A90
:10416000024D1360FDF770F906460EE0003802407C
:10417000000047420070004060004742800E474206
:10418000FDF762F9801B0228BAD82B689907F7D48B
:104190002368EEE6324A136843F48033136091E7F4
:1041A00001283FF438AFAB68E26903F48001914223
:1041B0007FF453AF226A03F03F0191427FF44DAF89
:1041C00047F6C072616A1A408A427FF446AFA26A1B
:1041D00003F4403191427FF440AFE06A03F0706332
:1041E000181A18BF012016E71D4A136F43F0010388
:1041F0001367A0E71A4A136C23F080531364EDE6AB
:10420000FDF722F9064605E0FDF71EF9801B02289E
:104210003FF676AF2B689901F6D4E369276A666AA0
:10422000A26AE06A0F490E4C3B4343EA86135208E8
:1042300043EA0063013A43EA024301226B600A60E9
:10424000FDF702F9054605E0FDF7FEF8401B0228E0
:104250003FF656AF23689A01F6D5DBE6012070479A
:104260000038024060004742154908B58B6803F0EA
:104270000C03082B17D14A684B6813F4800302F033
:104280003F0212D149680F48C1F38811A1FB000118
:10429000FBF7B0FF0A4B5B68C3F3014301335B00DC
:1042A000B0FBF3F008BD074808BD4B680548C3F3F1
:1042B0008813A3FB00010023FBF79CFFEAE700BF84
:1042C000003802400024F40060B1494A136803F04A
:1042D0000F038B4208D2CBB21370136803F00F03A5
:1042E000994201D00120704703682DE9F0419D07F4
:1042F00014D55C0704D53F4CA26842F4E052A2609A
:104300001A0704D53B4CA26842F46042A260394CC3
:104310008568A26822F0F0022A43A260DF07044603
:104320000D4622D54268012A5CD0931E012B314BE9
:104330001B6851D9990725D52E4EB36823F0030386
:104340001343B360FDF780F841F28837804605E0FB
:10435000FDF77AF8A0EB0800B84240D8B36862686D
:1043600003F00C03B3EB820FF2D1214A136803F080
:104370000F039D4209D2EBB21370136803F00F03D1
:104380009D4202D00120BDE8F08123685A0706D57E
:104390001849E0688A6822F4E05202438A601B07E9
:1043A00007D5144A2169936823F4604343EAC103A3
:1043B0009360FFF759FF0F4B0F4C9B680F49104A52
:1043C000C3F30313E35C20FA03F30868136003F0FC
:1043D00071F90020BDE8F0819801ADD4D2E7032047
:1043E000BDE8F081034B1B689E03A5D4CAE700BF5C
:1043F000003C024000380240A4A90008040000204C
:104400001C010020014B1868704700BF1C010020F0
:10441000044B054A9B680549C3F382230868D35CB3
:10442000D840704700380240B4A900081C010020A1
:104430000E4B0F2202609A6802F0030242609A68F3
:1044400002F0F00282609A6802F4E052C2609B6857
:10445000DB0810B403F4E053054C036123685DF8F6
:10446000044B03F00F030B60704700BF003802409D
:10447000003C0240704700BF002800F09880F8B56B
:1044800090F83D30044603F0FF02002B66D023680D
:104490004849022284F83D208B421A6863D0B3F168
:1044A000804F72D0A1F57C418B422DD001F5806107
:1044B0008B4229D001F580618B4225D001F57841EE
:1044C0008B4221D001F570518B4239D001F58061CA
:1044D0008B4235D001F580618B4231D0A1F5983106
:1044E0008B422DD001F580618B4229D001F580618E
:1044F0008B4225D0A569E068616822F080022A43DA
:104500001A60D862996215E0A1682669A069E76817
:10451000656822F070020A4322F440722649324351
:1045200022F0800202438B421A60DF629D6201D159
:1045300062691A6301225A61002084F83D20F8BDA7
:104540002669A069E568616822F44072324322F06E
:10455000800202431A60DD629962EBE780F83C203A
:10456000FFF788FF93E7A5682069A16922F0700230
:104570002A4322F44072024322F080020A431A6066
:10458000E268DA6262689A62D2E7A6682069A16985
:10459000E768656822F07002324322F440720243F9
:1045A00022F080020A431A60DF629D62C2E70120A6
:1045B000704700BF00000140000401400368DA6852
:1045C00042F00102DA609A6802F00702062A03D07C
:1045D0001A6842F001021A6000207047704700BF5D
:1045E000704700BF704700BF704700BF03681A697B
:1045F000910710B5044602D5DA68920762D41A69A9
:10460000500702D5DA68510749D41A69120702D552
:10461000DA68100731D41A69D20602D5DA68D006F2
:1046200018D41A69D10702D5DA68D2076BD41A698F
:10463000100602D5DA6811066DD41A69520602D541
:10464000DA68500657D41A69910602D5DA689206DC
:1046500049D410BD6FF010021A61DB69082213F40F
:10466000407F2277204661D1FFF7B8FF2046FFF751
:10467000B9FF002223682277D3E76FF008021A619E
:10468000DB69042299072277204655D1FFF7A6FF60
:104690002046FFF7A7FF002223682277BBE76FF0D1
:1046A00004021A619B69022213F4407F227720469C
:1046B0003FD1FFF793FF2046FFF794FF00222368C6
:1046C0002277A2E76FF002021A619B6901229B0721
:1046D000027728D1FFF782FF2046FFF783FF0022F1
:1046E000236822778BE76FF0200220461A61BDE82D
:1046F000104000F025B86FF040021A612046FFF725
:1047000073FF23689FE76FF001021A61204602F0F1
:10471000D3FC23688BE76FF080021A61204600F01B
:1047200011F8236889E7FFF75BFFD8E7FFF758FF29
:104730009FE7FFF755FFC1E7FFF752FFABE700BF69
:10474000704700BF704700BF84B030B4089D03AC11
:10475000012D84E80E002CD0C2682E4B42F040029E
:10476000C26001E0013B4ED00269002AFADA036917
:10477000284A43F00103036101E0013A43D0036991
:1047800013F00103F9D10C9A002A37D1826B42F45D
:1047900080328263069A012A07D1826842F00602BB
:1047A0008260826842F02002826030BC184604B009
:1047B0007047836B0F9A23F480338363C36823F4B9
:1047C000840323F04003C360C368012A23F4401329
:1047D000C3601AD00F4B01E0013B0DD00269002AE3
:1047E000FADA03690B4A43F001030361036913F02A
:1047F0000103CFD0013AF9D10323CBE7826B22F436
:1048000080328263C6E70323BDE7C36843F48013A5
:10481000C360DFE7400D0300022A0AD04FF41051B5
:10482000C26822F47052C260C3680B43C3600020A8
:1048300070472D4B2D4A0B44934243D92C4B2D4AA4
:104840000B4493423BD9A1F574032B4AA3F51053B3
:1048500093423AD9A1F1837302F5C332A032A3F592
:10486000E743934237D9254B254A0B4493422FD92E
:10487000244B02F5922202F578720B4493422DD913
:10488000214B02F5C32202F520720B449342C5D995
:10489000A1F1B77302F5B71202F55872A3F5585398
:1048A00093421ED9194B02F5122202F5F8620B440D
:1048B00093428CBF4FF4C0514FF4E051B0E74FF436
:1048C0006051ADE74FF47051AAE74FF45051A7E79C
:1048D0004FF43051A4E74FF44051A1E74FF4205179
:1048E0009EE74FF400519BE7405327FFFF340C0035
:1048F000401E1BFF3F420F007F4F120060B6E5FED7
:104900005FE3160000D3CEFEC05BB3FEE05459FE59
:1049100002460020936843F001039360704700BF94
:1049200002460020936823F001039360704700BFA4
:1049300008B5C368012923F0C043C3600BD041B957
:10494000C36843F08043C3603220FCF783FD00203E
:1049500008BD012008BDC36843F00053C360322086
:10496000FCF778FD002008BD84B02DE9F04F0AACBB
:1049700084E80E00149EDDF834B00023C0F8043142
:104980008E46C0F80831C0F80C31C0F81031C0F8BC
:104990001431C0F81831C0F81C31C0F82031C0F80B
:1049A0002431C0F82831C0F82C31C0F83031C0F8BB
:1049B0003431C0F83831C0F83C31002E40F09C80D2
:1049C000836B43F400138363836B23F400238363BB
:1049D000836B23F4802383630023C0F8003E0F9B86
:1049E000D0F80028C0F80028012B00F5006500F081
:1049F0009A80D0F8003843F00303C0F800384FF431
:104A000084630361554A02E0013A00F09D80036926
:104A100013F02003F8D19C46102202614F4A02E0B5
:104A2000013A00F08E800169CB06F9D4002129619A
:104A30006961E961BEF1000F19D00F4600F51062FF
:104A40004FF090494FF0006A4FF67F3307E0176050
:104A5000013171451761936002F1200231D0146871
:104A6000002CF4DA002972D0C2F80090F0E72A692D
:104A7000BBF1010F22F480722A6146D000216FF051
:104A8000804281614261BBF1000F03D1826942F033
:104A9000100282618469324A10992243826119B1FD
:104AA000826942F008028261012E05D1826942F0DA
:104AB000804242F004028261BDE8F04F604604B0DB
:104AC00070470024234600F530624FF090494FF0C4
:104AD000006A4FF67F3808E013600134A142136189
:104AE000C2F8088002F12002C1D01768002FF3DA63
:104AF00084B3C2F80090F0E7036823F40013036066
:104B0000836B43F40023836366E7164A2A632A6BA8
:104B100042F4803242F0030200246FF080412A63A5
:104B200084614161B6E70C9B23B9D0F80038C0F826
:104B3000003864E7D0F8003843F00103C0F80038CB
:104B40005DE74FF0010C71E74FF0010C64E7C2F82C
:104B500000A07DE7C2F800A0BFE700BF400D030042
:104B600000383C8000018000890141F02001016192
:104B7000054A01E0013A05D0036913F02003F9D199
:104B80001846704703207047400D0300D0F80838DE
:104B900013F0060004D013F0020F14BF02200F2000
:104BA000704700BF70B44B780C78012B22D0D0F83E
:104BB0001C5804F00F064FF4803300F50062B34038
:104BC0002B4300EB4410D361D0F8003B1B040ED400
:104BD0008A68CC78D0F8001BC2F30A0242F08053F6
:104BE00043F4004343EA84430B43C0F8003B0020F6
:104BF00070BC7047D0F81C6804F00F0203FA02F290
:104C0000324300EB4413C0F81C28D3F800291204E7
:104C1000EDD48A68CD78D3F80019C2F30A0242F0C5
:104C2000805040F4004040EA854040EA8450084308
:104C3000C3F8000970BC0020704700BF30B44B7847
:104C40000978012B00F5006201F00F0417D04FF432
:104C50008033D0F83C58A340DB431D40C0F83C589B
:104C6000D0F81C58114C00EB41102B40D361D0F808
:104C7000003B1C40C0F8004B002030BC7047D0F80F
:104C80003C58A340DB431D40C0F83C58D0F81C58AA
:104C9000074C00EB41102B40D361D0F800391C4089
:104CA000C0F80049002030BC704700BF0078F3EF27
:104CB000007833EC2DE9F0434D780C78012D53D07A
:104CC00000EB441404F530631E694D69F60CF604DC
:104CD0001E611E6926F0FF5626F4C0161E6115B32C
:104CE0008E68784FD3F810E03544013DB5FBF6F5FA
:104CF00007EAC54747EA0E071F61ADB206FB05F597
:104D00001E69C5F312053543012A1D6117D0CB7802
:104D1000012B1BD0D4F8003B43F00443C4F8003B04
:104D20000020BDE8F0838D681E69C5F31205354388
:104D30001D611D69012A45F400251D61E7D1CA687E
:104D4000002AE4D05A61CB78012BE3D1D0F808389F
:104D500013F4807FD4F8003B0CBF43F0005343F0C2
:104D60008053C4F8003BD5E74E69002E3ED000EBDF
:104D7000441C0CF51063D3F810E0D1F80890514FA3
:104D80004FEADE4E4FEACE4EC3F810E0D3F8108063
:104D900028F0FF5828F4C018C3F81080D3F810800A
:104DA00006EB090E0EF1FF3EBEFBF9FE07EACE4709
:104DB00047EA08071F61D3F810E0C6F3120747EA75
:104DC0000E071F61CF78012F58D0012A76D0DCF86A
:104DD000003943F00443CCF80039D0F8343804F0FB
:104DE0000F04A5401D43C0F8345899E700EB441E5A
:104DF0000EF510631D6925F0FF5525F4C0151D61E2
:104E00001D6945F400251D611D69ED0CED041D6152
:104E1000012ACF7828D0DEF80059012F45F004454B
:104E2000CEF800597FF47CAFD0F8085815F4807F95
:104E30001D680CBF45F0005545F080551D60002AE7
:104E40007FF46EAFB6B20336B6083FF469AFCB68F5
:104E500000EB043003EB860100F5805053F8042B7F
:104E600002608B42FAD15BE70A6902B15A61012FF5
:104E700018D01A6842F004421A6051E71D6925F003
:104E8000C0451D611D69012A45F000551D6106D010
:104E9000DCF8005945F00445CCF80059C4E70A692C
:104EA000002AE3D1D0F8082812F4807F1A680CBFDA
:104EB00042F0005242F080521A60DAE70A69002A92
:104EC000D7D0D3E70000F81F4B78012BF0B50C7852
:104ED00025D000EB441000F530631C694D69E40CEB
:104EE000E4041C611C6924F0FF5424F4C0141C6108
:104EF0008C6895B91D6945F400251D611D69C4F3D1
:104F000012042C43012A1C6142D0D0F8003B43F02C
:104F10000443C0F8003B0020F0BD4C61EAE74D6956
:104F2000002D3AD000EB441707F510631E69D1F845
:104F300008E0F60CF6041E611E6926F0FF5626F402
:104F4000C0161E611E69754546F4002688BFC1F86B
:104F500014E01E6188BF7546D3F810E0C5F3120651
:104F600046EA0E06012A1E6133D0D7F8003943F015
:104F70000443C7F80039002DCDD000F5006304F0DC
:104F80000F005A6B0124844014435C630020F0BD81
:104F9000CA68002AB9D05A61B7E700EB441000F59F
:104FA00010631C6924F0FF5424F4C0141C611C69B4
:104FB00044F400241C611C69E40CE404012A1C6113
:104FC00007D0D0F8003943F00443C0F8003900207E
:104FD000F0BD0A6902B15A611A6842F004421A60CF
:104FE00099E700BF10B49DF804406CB903339B08E7
:104FF0000AD000EB023000F5805001EB830251F83B
:10500000043B03609142FAD100205DF8044B7047E5
:10501000033292080DD010B401EB820200F58054E7
:105020000846236840F8043B8242FAD15DF8044BFD
:1050300070470846704700BF4A780B78012A00EB9A
:10504000431013D0D0F8002B002A00DB3BB9D0F876
:10505000003B43F40013C0F8003B00207047D0F839
:10506000003B23F08043C0F8003BF0E7D0F8002974
:10507000002A06DB2BB1D0F8003923F08043C0F8BA
:105080000039D0F8003943F40013C0F8003900208B
:10509000704700BF4A780B78012A00EB431013D009
:1050A000D0F8003B23F40013C0F8003BCB78023B60
:1050B000012B01D900207047D0F8003B43F080530A
:1050C000C0F8003B00207047D0F8003923F40013EB
:1050D000C0F80039CB78023B012BEBD8D0F800396F
:1050E00043F08053C0F80039E4E700BFD0F800383F
:1050F00023F4FE63C0F80038D0F80038090101F449
:10510000FE611943C0F800180020704700F50062E6
:1051100008B5536823F0020303205360FCF79AF9A3
:10512000002008BD00F5006208B5536843F0020393
:1051300003205360FCF78EF9002008BD42698069A6
:1051400010407047D0F8183800F50060C06918406A
:10515000000C7047D0F8183800F50060C06918409E
:1051600080B2704700EB411100F50060D1F8082BC8
:1051700040691040704700BF10B4D0F81048D0F814
:10518000343800EB411001F00F0100F51060CB4006
:10519000DB01DBB28068234318405DF8044B7047A5
:1051A000406900F001007047D0F8003923F4FF6334
:1051B00023F0070300F50062C0F80039936803F09C
:1051C0000603042B05D1D0F8003943F00303C0F8DF
:1051D0000039536843F4807353600020704700BF68
:1051E00010B4134B046C9C421AD800F530600023B5
:1051F0000361036943F400230361036943F0180367
:1052000003610369012943F0C043036104D1426192
:10521000036843F08023036000205DF8044B70476F
:10522000D0F8003B002B00F53060E0DAF4E700BF77
:105230000A30544FD0F8943210B5D0F890425BB198
:1052400094F80002FF2807D09B6894F801222146B9
:105250009847FF2384F80032002010BD43230380C9
:1052600000487047400000204323038000487047F7
:10527000840000204323038000487047D4000020AE
:105280000A23038000487047C800002038B5044650
:10529000D0F8905202F09EFCD4F89032C5F80C027F
:1052A0004BB1D4F89432D5F80402DB6805F50371EC
:1052B0009847002038BD022038BD00BFF8B5D0F8AF
:1052C0009062AEB101EB810500EB8505EF695FB13E
:1052D000D0F89822C1EBC10302EB83035B6CB7FBF0
:1052E000F3F403FB14742CB10020C6F81402F8BDCB
:1052F0000220F8BDEC612346224602F04FFC204616
:10530000F8BD00BF2DE9F0410B78D0F8907282B063
:10531000002413F060080D4606468DF80540ADF8F0
:1053200006401CD0B8F1200F13D1B1F80680B8F1B7
:10533000000F46D01B062BD44B7887F8003287F835
:1053400001824246394600F017FD204602B0BDE812
:10535000F08100F0CBFC022002B0BDE8F0814C7877
:105360000A2C23D00B2C0DD0002CF2D190F87432E3
:10537000032B2ED03046294600F0B8FC022002B0A4
:10538000BDE8F08190F87432032BF3D14046E3E797
:10539000D0F8943248789B68424639469847EA8864
:1053A0003946304600F0D2FC2046D5E790F87432FA
:1053B000032BDFD101220DF1050100F0C7FC4046AF
:1053C000CAE7D0F8943248789B68424698474046EE
:1053D000C2E702220DF1060100F0B8FC2046BBE74F
:1053E00038B504460025812102F08CFB0121E562DD
:1053F000204602F087FBC4F858512046822102F073
:1054000081FBD4F8903225644BB1D4F894325B68B8
:105410009847D4F8900205F0F5F8C4F890520020AF
:1054200038BD00BF037C2DE9F0410446C3BB012514
:105430004FF400730222812102F054FBE5622946F9
:105440004FF400730222204602F04CFBC4F858517E
:105450000823032282212046012702F043FB276410
:105460004FF4077005F0C6F80546C4F8900270B313
:10547000D4F894321B68984794F81080D5F8042229
:105480000026C5F814623946C5F818622046B8F1FE
:10549000000F15D0402302F08FFB3046BDE8F081AD
:1054A000012540230222812102F01CFBE5622946EE
:1054B00040230222204602F015FBC4F85851C7E7EA
:1054C0004FF4007302F078FB4046BDE8F0813846A7
:1054D000BDE8F08119B1C0F8941200207047022095
:1054E000704700BFD0F890320020C3F80812C3F80C
:1054F00010227047D0F890320020C3F80412704791
:10550000D0F890329BB170B5D3F814420CB10120A1
:1055100070BDD3F81052D3F808220126C3F81462E4
:105520008121ABB2056302F039FB204670BD022039
:10553000704700BFD0F890228AB110B5047CD2F831
:1055400004222CB14023012102F036FB002010BDC3
:105550004FF40073012102F02FFB204610BD022002
:10556000704700BF88B108B5D0F88C3213B1002362
:10557000C0F88C3209B1C0F888120123027080F89B
:10558000743202F06FFA002008BD0220704700BF9D
:1055900019B1C0F88C12002070470220704700BF7C
:1055A00008B502F091FA002008BD00BF08B5D0F898
:1055B0008C3213B11B68984708B1022008BD08BDA2
:1055C00008B5D0F88C325B689847002008BD00BF52
:1055D00038B5044600F52075284600F073FB94F8B2
:1055E0008012B4F88632C4F87032012201F01F0331
:1055F0009342C4F86C2215D00ED3022B06D001F0D2
:105600008001204602F08CFA002038BD2946204651
:1056100000F0B2FA002038BD2946204600F008F913
:10562000002038BD2946204600F070FA002038BD21
:1056300070B5054641B9D0F86C32032B0ED0052B5E
:105640000C462AD0002070BDD0F88C329B691BB16B
:1056500090F87422032A26D0022070BD1646D0F896
:105660004C31D0F8502193420AD99B1A9A42C0F883
:105670004C318CBF9AB292B2314600F08DFBE1E71B
:10568000D0F88C321B691BB190F87422032A0DD01C
:10569000284600F089FB002070BDC5F86C1202F0AE
:1056A0003FFA204670BD9847002070BD9847EFE74D
:1056B00070B5044671B91346D0F86C22022A1FD087
:1056C00032F0040310D094F87832012B4FF0000030
:1056D00013D070BDD0F88C325B691BB190F8742286
:1056E000032A41D0022070BD802102F019FA94F8FB
:1056F0007832012B4FF00000EBD184F8780270BDB6
:10570000066A426A964227D8C369B3FBF2F502FBE8
:1057100015358DB99A420FD8D0F8702293420BD22A
:105720002A4600F021FBC4F870522B462A4629462F
:10573000204602F041FAC6E7D4F88C32DB681BB190
:1057400094F87422032A12D08021204602F0E8F94E
:10575000204600F035FBB6E7B21A0D460262194644
:1057600092B200F001FBE0E79847002070BD2046B0
:105770009847E9E770B50022044640231E461146CB
:10578000012502F0AFF933468021C4F84451C4F832
:1057900050612046002202F0A5F9D4F89032A561AC
:1057A0000021666284F87452C4F86C126160C4F817
:1057B0007C1223B1D4F88C3220465B6898470020D5
:1057C00070BD00BF01740020704700BF90F87422C4
:1057D00080F87522042380F874320020704700BFDF
:1057E0000346002093F8752283F87422704700BFA7
:1057F00090F87422032A01D00020704708B5D0F831
:105800008C32DB6903B19847002008BD0020704747
:10581000002070470020704708B50121D0F88C2285
:1058200080F87412526801799047002008BD00BFCB
:1058300030B50B7803F06003202B83B00C4605468F
:1058400016D0402B14D04BB1802102F069F92846C4
:10585000002102F065F9002003B030BD4B78092B20
:1058600019D8DFE803F0435A1866186A86189D2392
:10587000D5F88C3221469B6828469847002003B013
:1058800030BD79B301210323416080F87432FFF702
:105890008DFE022826D18021284602F041F92846B3
:1058A000002102F03DF9002003B030BD8978964C0C
:1058B00001292170EFD890F87432022BE1D0032B2C
:1058C00040F00281002900F018814168012909D0C7
:1058D000C9B2FFF775FE217869602846FFF766FEBA
:1058E0000228D8D0284600F05FFAB4E790F8743266
:1058F000013B022B4FF00302CDD8CB88022BCAD13B
:10590000D0F87C320121C16003B1C260022205F1EE
:105910000C01284600F01AFA9DE790F87432013B1A
:10592000022BB8D84B88012B95D10023C5F87C32C7
:10593000D8E74B88012B8ED1F8E78B88002BAAD1B2
:10594000CB88002BA7D14C887F2CA4D890F8743238
:10595000032BE1B29FD080F8761202F011F92846AD
:1059600000F022FA002C00F0C480022385F8743283
:1059700071E74A88130A013B062B8CD801A151F824
:1059800023F000BF4B5A0008335A0008215A000880
:1059900097580008975800080B5A0008C759000884
:1059A000CA88012A7FF477AF90F87432002B3FF455
:1059B00072AF022B40F28180032B7FF46CAF011D8C
:1059C00000F0C4F947E7037C002B7FF464AFD0F804
:1059D0008C320DF106001B6B984707234370BDF80E
:1059E00006306BB1E288002A3FF47CAF934228BFB7
:1059F000134601461A462846ADF8063000F0A6F9CF
:105A0000E388002B7FF427AF6CE7037C002B7FF447
:105A100042AFD0F88C320DF106005B6B9847DEE7A1
:105A2000D2B2052A3FF637AFDFE802F03F372F2723
:105A30001F17037C002B53D1D0F88C320DF10600D8
:105A40009B6A984702234370C9E7D0F88832007CEC
:105A50001B680DF106019847C1E7D0F88832007C39
:105A60009B690DF106019847B9E7D0F88832007CB0
:105A70005B690DF106019847B1E7D0F88832007CE8
:105A80001B690DF106019847A9E7D0F88832007C20
:105A9000DB680DF106019847A1E7D0F88832007C59
:105AA0009B680DF10601984799E7D0F88832007C91
:105AB0005B680DF10601984791E70146002341F824
:105AC000083F00F043F9C6E6802102F029F80021E2
:105AD000284602F025F821782846FFF771FDBAE63E
