:020000040800F2
:1000000000000220096E0008A1670008A56700082B
:10001000A9670008AD670008B1670008000000008C
:10002000000000000000000000000000115900085E
:10003000B567000800000000A1590008055A000833
:10004000596E0008596E0008596E0008596E000874
:10005000596E0008596E0008596E0008596E000864
:10006000596E0008596E0008596E0008596E000854
:10007000596E0008596E0008596E0008596E000844
:10008000596E0008596E0008596E0008596E000834
:10009000B9670008C5670008596E0008596E000866
:1000A000596E0008596E0008596E0008596E000814
:1000B000596E0008D1670008596E0008DD67000816
:1000C000596E0008596E0008596E0008596E0008F4
:1000D000596E0008596E0008596E0008596E0008E4
:1000E000596E0008596E0008596E0008596E0008D4
:1000F000596E0008596E0008596E0008596E0008C4
:10010000596E0008596E0008596E0008596E0008B3
:10011000596E0008596E0008596E0008596E0008A3
:10012000596E0008596E0008596E0008596E000893
:10013000596E00080000000000000000596E000821
:10014000596E0008596E0008596E0008E9670008EA
:10015000596E0008596E0008596E0008596E000863
:10016000596E0008596E0008596E0008596E000853
:10017000596E0008596E00080000000000000000E1
:08018000596E0008596E0008D9
:1001900010B5054C237833B9044B13B10448AFF3C1
:1001A00000800123237010BDE40100200000000046
:1001B0007496000808B5034B1BB103490348AFF31D
:1001C000008008BD00000000E801002074960008CF
:1001D000034613F8012B002AFBD1181A0138704787
:1001E00053B94AB9002908BF00281CBF4FF0FF319E
:1001F0004FF0FF3000F072B9ADF1080C6DE904CE9C
:1002000000F006F8DDF804E0DDE9022304B07047F1
:100210002DE9F047089E04468846002B4BD18A42C0
:10022000154667D9B2FA82F24AB1C2F1200701FA43
:1002300002F320FA07F7954047EA030894404FEA93
:10024000154E230CB8FBFEF71FFA85FC0EFB178832
:1002500043EA084307FB0CF1994209D9EB1807F16F
:10026000FF3080F01B81994240F21881023F2B44FD
:100270005B1AA4B2B3FBFEF00EFB103344EA034456
:1002800000FB0CFCA44509D92C1900F1FF3380F0C8
:100290000781A44540F2048102382C4440EA07401B
:1002A000A4EB0C0400271EB1D4400023C6E9004390
:1002B0003946BDE8F0878B4209D9002E00F0EB806B
:1002C0000027C6E9000138463946BDE8F087B3FA91
:1002D00083F7002F47D18B4202D3824200F2FA808B
:1002E000841A61EB030301209846002EE0D0C6E992
:1002F0000048DDE702B9FFDEB2FA82F2002A40F0E0
:100300008F80491B4FEA154E1FFA85F80127B1FB74
:10031000FEFC230C0EFB1C1143EA014308FB0CF10D
:10032000994207D9EB180CF1FF3002D2994200F242
:10033000CD808446591AA3B2B1FBFEF00EFB101417
:1003400043EA044408FB00F8A04507D92C1900F142
:10035000FF3302D2A04500F2B6801846A4EB080491
:1003600040EA0C409FE7C7F1200CBB4022FA0CFE8C
:100370004EEA030E01FA07F420FA0CF521FA0CF309
:100380004FEA1E482543B3FBF8F92C0C08FB193340
:100390001FFA8EFA44EA034309FB0AF49C4202FA6C
:1003A00007F200FA07F10BD91EEB030309F1FF3046
:1003B00080F087809C4240F28480A9F10209734456
:1003C0001B1BADB2B3FBF8F008FB103345EA034446
:1003D00000FB0AFAA24508D91EEB040400F1FF3322
:1003E0006BD2A24569D90238744440EA0940A0FBA7
:1003F0000289A4EB0A044C45C2464B4654D351D063
:10040000002E69D0B1EB0A0564EB030404FA0CFC7E
:10041000FD40FC404CEA0505C6E90054002747E7CB
:10042000C2F1200320FA03F7954001FA02F021FA05
:1004300003F34FEA154E3843010CB3FBFEF71FFAE6
:1004400085F80EFB173341EA034107FB08F38B42A3
:1004500004FA02F407D9691807F1FF3C2FD28B4246
:100460002DD9023F2944CB1A81B2B3FBFEF00EFB1B
:10047000103341EA034100FB08F38B4207D96918A6
:1004800000F1FF3C17D28B4215D902382944C91A12
:1004900040EA07473BE73746304609E70746E7E6C5
:1004A0001846FBE64145ABD2B8EB020A69EB0E02F7
:1004B00001381346A4E76046E9E7184695E7674622
:1004C000D1E781467CE702382C4447E7ACF1020CC7
:1004D0002B442FE7384608E73746E9E6704700BF68
:1004E00008B50B4B1A6842F400721A601A6842F49D
:1004F00080621A601A6842F480721A60032000F069
:100500008DFB002006F00CF906F062F8002008BD13
:10051000003C0240034A044B11681B780B441360F3
:10052000704700BFC048002000000020014B186841
:10053000704700BFC048002038B50446FFF7F6FFFB
:10054000631C054602D0044B1B781C44FFF7EEFFEA
:10055000401BA042FAD338BD0000002000287CD008
:1005600038B590F820300446002B73D02268136809
:1005700023F002031360FFF7D9FF054604E0FFF7FD
:10058000D5FF401B0A285CD823685A689107F6D427
:100590001A6842F001021A60FFF7C8FF054604E03E
:1005A000FFF7C4FF401B0A284BD823685A68D207BC
:1005B000F6D5227E012A1A680CBF42F0800222F092
:1005C00080021A60627E012A1A680CBF42F0400263
:1005D00022F040021A60A27E012A1A680CBF42F083
:1005E000200222F020021A60E27E012A1A680CBF63
:1005F00022F0100242F010021A60227F012A1A68CB
:100600000CBF42F0080222F008021A60627F012A41
:100610001A680CBF42F0040222F004021A60D4E906
:100620000221D4E904500A4361682A430243013994
:100630000A4301250021DA610846616284F82050EE
:1006400038BD636A052243F400336362012084F8F5
:10065000202038BD05F0DCFF88E70120704700BF8F
:1006600090F82030013B012B05D9436A43F48023E5
:100670004362012070473C4BD3F8002242F0010254
:10068000F0B4C3F80022D3F8002222F47C52C3F85D
:100690000022D3F80022486A42EA0022C3F800226E
:1006A0004A69D3F81C52012402F01F0004FA00F03A
:1006B000C4432540C3F81C52CD69002D3AD0012D0A
:1006C00015D1D3F80C520543C3F80C52D2000F6871
:1006D0008D888E688B8902F1804202F5C84245EA16
:1006E000074543EA0643C2F84052C2F844328B69D8
:1006F0001D4A9BBBD2F804322340C2F804320B6976
:100700002BBB194BD3F814221440C3F814420B6AC4
:10071000012B05D1144AD2F81C321843C2F81C022E
:10072000114AD2F8003223F001030020C2F800324F
:10073000F0BC7047D3F80C522540C3F80C52D200DD
:1007400002F18042CF688D888E680B88C5E7064A23
:10075000D2F814320343C2F81432D8E7D2F8043284
:100760000343C2F80432CAE70064004038B590F889
:100770002030012B05D0436A43F40023436201205B
:1007800038BD0268022380F82030136823F001038B
:1007900013600446FFF7CAFE054604E0FFF7C6FEF5
:1007A000401B0A2807D823685B6813F00103F5D1C2
:1007B0006362184638BD636A052243F400336362FE
:1007C000012084F8202038BD70B490F820400568DE
:1007D000013C012CAE6806D9436A43F4802343628E
:1007E000012070BC704716F0E05F2ED0C6F30166A2
:1007F000032E31D00120B04018608B6893BB0C6889
:10080000C86806F118031B0140EA4450E850087D0F
:1008100009693601AB190128C3F8841105D1D3F851
:10082000841141F48071C3F8841135445168C5F8CE
:100830008C111268C5F88821D3F8802142F001029A
:100840000020C3F8802170BC7047436A43F4001352
:10085000436270BC01207047436A43F40003436263
:100860000120BEE7C8684C68034306F11800000188
:1008700043EAC4032B50CAE72DE9F04190F8204029
:10088000013C012C06D9436A43F4802343620120D2
:10089000BDE8F0810568002958D02C69A40758D01C
:1008A0000C012E19D6F8B07107F004079760002FDD
:1008B0005CD1D6F8B0717F0D1760D6F8B0E1D6F8EC
:1008C000B4C1D6F8B471D6F8B46125440EF0020E66
:1008D000D5F8B881C7F307270CF00F05360CC2E92D
:1008E00003E5C2E9056783F8008002682244D2F874
:1008F000B821120A5A7002682244D2F8B821120CA8
:100900009A7002682244D2F8B821120EDA70026896
:100910002244D2F8BC211A7102682244D2F8BC21C8
:10092000120A5A7102682244D2F8BC21120C9A7140
:1009300002681444D4F8BC21120EDA71026879B945
:10094000D36843F020030846D360A1E7EC68A6070C
:10095000A6D1436A43F4001343620120BDE8F0814D
:10096000136943F020031361002091E7D6F8B071BA
:10097000FF085760A1E700BF90F82030013B012B32
:1009800005D9436A43F4802343620120704702681B
:100990005369194351610020704700BF704700BF81
:1009A000704700BF704700BF704700BF704700BF6F
:1009B000704700BF704700BF704700BF704700BF5F
:1009C000704700BF704700BF704700BF2DE9F84F68
:1009D00003685C69D3F804809F68D3F80CB0D3F83F
:1009E0001090D3F818A014F00106054625D017F092
:1009F000010640F09C804FF400524FF48041F8050E
:100A00000DD52B684FF480709860BB0500F1C7804E
:100A1000780500F1D7803A0540F1E8800E46FB03E7
:100A20000BD52B684FF48032B8039A6000F1B38085
:100A3000790340F1C98046F40046230702D51BF034
:100A4000100F6ED1670702D51BF0080F7FD1A007EA
:100A500004D52B68DB68990740F08E80620602D5CA
:100A600019F0100F57D1A30603D519F0080F40F065
:100A70008780E70604D52B681B69980740F08780BC
:100A8000A10302D518F0100F68D1E20302D518F0C7
:100A9000080F6AD1230435D518F0040F2B682FD026
:100AA000E70504D51AF0010F18BF46F00106A005AE
:100AB00004D51AF0020F18BF46F00206610504D5EE
:100AC0001AF0040F18BF46F00406220518D51AF0D4
:100AD000700A15D0BAF1300F00F0968079D9BAF1CA
:100AE000500F00F08E80BAF1600F00F09080BAF1E4
:100AF000400F01D146F040069A6922F070029A61D7
:100B000004225A602EB16B6A1E436E622846FFF7BC
:100B10005BFFBDE8F88F2B68102246F480661A61EF
:100B2000A1E72B68102246F40076DA608AE70122FA
:100B30009A60BB0737D47E073DD417F0080659D01A
:100B40004FF440524FF4A0414FF4805657E72B68C2
:100B50000822DA602846FFF72DFF78E72B6810227D
:100B60005A602846FFF72CFF8FE72B6808225A604F
:100B70002846FFF727FF8DE7284605F099FA6DE72D
:100B80002B6808221A612846FFF718FF71E72846EC
:100B9000FFF712FF74E72846FFF704FF4DE72846EA
:100BA000FFF7FEFE3BE7FFF7F9FE00264FF4005289
:100BB0004FF4804123E74FF420524FF490414FF41B
:100BC00000661CE716462AE73A030BD546F4803642
:100BD00033E7BAF1100F1DD0BAF1200F8CD146F0D7
:100BE000100689E72846FFF7E3FE26E72846FFF7C9
:100BF000DDFE14E7FFF7D8FE4FF400524FF48041BA
:100C0000FDE646F0800677E746F0200674E746F4F6
:100C1000807671E746F008066EE700BF074AD368A2
:100C20004FF6FF010B40000243F0BF6300F4E060A9
:100C300043F400330343D360704700BF00ED00E08E
:100C4000184BDB68C3F3022330B4C3F10705042D4E
:100C500003F1040428BF0425062C19D9033B4FF0E7
:100C6000FF349C4022EA04044FF0FF32AA4021EAFC
:100C7000020101FA03F2224312010028D2B20ADB78
:100C800000F1604000F5614080F8002330BC7047FF
:100C900000242346E8E7044B00F00F0003441A76D3
:100CA00030BC704700ED00E0FCEC00E0002807DB02
:100CB00000F01F0101234009024A8B4042F8203016
:100CC000704700BF00E100E090F83530022B03D000
:100CD00080234365012070470268052380F8353082
:100CE000136823F0010313600020704790F835006B
:100CF000704700BF2DE9F04FD1F80080DFF8F4E134
:100D000083B0002403E00134102C00F08C80012318
:100D1000A34008EA03029342F5D1D1E9016526F028
:100D200010094FEA440C032309F1FF3703FA0CF3CF
:100D3000012F6FEA030305FA0CF577D9C7681F4046
:100D40003D43C560076806F003051F4005FA0CF334
:100D50003B430360F300D6D55F4D002301936B6CDA
:100D600043F480436B646D6C24F0030305F4804509
:100D700003F18043019503F59C3304F003054FEA2A
:100D80008509564D019FD3F808C00F2707FA09F7C8
:100D9000A8422CEA07071FD005F58065A84276D047
:100DA0004F4DA84279D04F4DA8427CD04E4DA8421D
:100DB0007FD04E4DA84200F082804D4DA84200F0F9
:100DC0008480DFF834C160450CBF4FF0070C4FF052
:100DD000080C0CFA09F52F439F60DEF80030D5436C
:100DE000F70354BF2B401343CEF80030DEF8043035
:100DF000B70354BF2B401343CEF80430DEF808305D
:100E0000F70254BF2B401343CEF80830DEF80C3005
:100E1000B60204F1010454BF2B401343102CCEF84A
:100E20000C307FF474AF03B0BDE8F08F876807EA39
:100E3000030ACF6807FA0CF747EA0A078760D0F879
:100E400004A0C6F300172AEA020AA74047EA0A07E5
:100E50004760C7681F403D43B9F1020FC5607FF48A
:100E600071AF4FEAD40900EB890904F00707D9F8FC
:100E70002050BF004FF00F0B0BFA07FB25EA0B0ABF
:100E80000D69BD4045EA0A05C9F820505AE74FF000
:100E9000010C0CFA09F52F439EE74FF0020C0CFAF7
:100EA00009F52F4398E74FF0030C0CFA09F52F438F
:100EB00092E74FF0040C0CFA09F52F438CE74FF042
:100EC000050C0CFA09F52F4386E74FF0060C0CFAD7
:100ED00009F52F4380E700BF0038024000000240C0
:100EE00000080240000C02400010024000140240C2
:100EF00000180240003C0140001C024002B90904F5
:100F000081617047436931EA030308BF09048161C5
:100F1000704700BF036D5BB9C36C0268012B836C23
:100F20000DD0C3F307231361036D013303657047CD
:100F3000036D012B09D0036D022B0ED07047DBB27D
:100F40001361036D023303657047836C0268DBB283
:100F50001361036D01330365704790F83D30222B18
:100F60000ED090F83D30212BE8D1426A036812F888
:100F7000011B1961438D4262013B9BB24385DDE752
:100F80000268136843F48073136070472DE9F042E0
:100F9000044600688946016841F480610160016887
:100FA00082B041F48071089D016016461F466B1C9B
:100FB0005AD14369D907FCD55FFA89F909F0FE03D4
:100FC0000361691C14D04369990714D443695B0514
:100FD0006ED4FFF7ABFA099BC01A8542C0F0E880D7
:100FE000002D00F0E5802068EBE743695B055FD4E6
:100FF00043699A07F9D500230193436901938369F3
:101000000193019B6B1C03D084E043695A0567D4AC
:1010100043691906F9D5012F40F08D80F6B20661BB
:101020006B1C03D094E043695E0559D443691F06E5
:10103000F9D5036843F4807303606B1C40F0A8800B
:101040004369DF07FCD549F00109C0F810906A1C1C
:1010500003D0CAE043695B052AD44369DB4313F03C
:101060000203F7D118461CE04369DA07A4D4FFF75E
:101070005DFA099BC01A8542206801D3002D96D1E4
:1010800000222023226384F83D3084F83E20236C24
:1010900084F83C2043F0200323640368DA0503D47A
:1010A000032002B0BDE8F0824FF400732364F7E739
:1010B0000368002243F400736FF48065202103600D
:1010C0004561226384F83D1084F83E20236C84F847
:1010D0003C2043F004032364012002B0BDE8F08209
:1010E000002220236FF480614161226384F83D3047
:1010F00084F83E20236C84F83C2043F004032364EE
:10110000236C042BE8D12268136843F40073136046
:101110000120C6E743691B063FF57DAF43695A05C9
:10112000DED4FFF703FA099BC01A85424FD3002D86
:101130004DD0206866E7330A03616A1C03D017E0CC
:1011400043695F05CCD443691B063FF567AFF7E7FA
:10115000436919063FF56DAF43695A05C0D4FFF7DF
:10116000E5F9099BC01A854231D385B3206857E75A
:10117000436919063FF552AF43695905B0D4FFF7EB
:10118000D5F9099BC01A854221D305B32068D4E75D
:101190004369DE073FF557AFFFF7C8F9099BC01A4F
:1011A00085422068FFF46CAF002D7FF446AF67E7FF
:1011B00000222023226384F83D3084F83E20236CF3
:1011C00084F83C2043F020032364012069E70022D7
:1011D0002023226384F83D3084F83E20236C84F879
:1011E0003C2043F0200323648AE74369DB4313F088
:1011F00002033FF437AF436959053FF559AFFFF795
:1012000095F9099BC01A8542D2D3002DD0D0206811
:101210001DE700BF002800F09F80F8B590F83D3032
:10122000044603F0FF02002B00F08F802368242285
:1012300084F83D201A6822F001021A601A6842F40C
:1012400000421A601A6822F400421A6002F058F94B
:1012500061684B4B99424BD84A4B98427AD92268E5
:10126000494B5568A3FB00639B0C25F03F051D43CC
:101270005560156A013325F03F052B431362D5698C
:101280004900431EB3FBF1F30133C3F30B0325F411
:101290004F45042B38BF042325F0FF052B43D361B2
:1012A000D4E907351068216920F0C0002B430343BF
:1012B00013609068E568636920F4034020F0FF0044
:1012C000294301439160D168A06921F0FF010343E4
:1012D0000B43D3601168002341F001012025116008
:1012E0001846236484F83D50236384F83E30F8BDEB
:1012F000264B98422ED92268234B5668244FA3FBD5
:1013000000539D0C26F03F062E434FF49673566013
:1013100003FB05F3A7FB0353156AA6689B0925F099
:101320003F0501332B431362D56925F44F4501383E
:1013300025F0FF0596B901EB4101B0FBF1F001305A
:10134000C0F30B00C0B90123A8E780F83C2005F0EA
:10135000A5F96BE70120F8BD0120704701EB810181
:1013600001EB8101B0FBF1F00130C0F30B0000286C
:10137000E9D040F4404391E740F400438EE700BFDA
:10138000A08601007F841E0083DE1B43FF083D0012
:10139000D34D62102DE9F047044682B099460F46BE
:1013A00090460A9DFFF7C2F894F83D30202B03D0F9
:1013B000022002B0BDE8F087064605E0FFF7B6F868
:1013C000801B192800F2E18023689A69D24312F049
:1013D000020AF3D094F83C20012AE9D01A680121CE
:1013E000D20784F83C1002D41A680A431A601A68BB
:1013F000A04822F400621A60212284F83D201022C5
:1014000084F83E2000222264A4F82A90618DE062D4
:10141000E26AC4F82480082A218571D0012A6FD09D
:1014200082426DD0226B122A6AD0681C40F08B80F9
:101430005A69D107FCD52269B2F5804F40F0C980C6
:1014400007F0FE071F616F1C04D0E9E05A695105DF
:1014500000F1A9805A699007F8D5002201925A69D3
:1014600001929A690192019A228D002A00F0E78088
:10147000681C03D049E05A6952052AD45A691106FA
:10148000F9D5676AB4F828C038460CF1FF3110F876
:10149000012B1A61628D6062013A92B262855869CD
:1014A00089B2400721850CD559B17A781A61628DCD
:1014B000013AACF1020C023792B2A4F828C067627C
:1014C00062856F1C30D15A695007CDD45A695105D5
:1014D000F9D500226FF4806020215861226384F8DE
:1014E0003D1084F83E20236C84F83C2043F0040334
:1014F0002364236C042B7ED0012002B0BDE8F0876A
:101500001A6842F480721A608FE75A691706B8D4D5
:101510005A695705DDD4FFF709F8801B854271D35E
:10152000002D6FD02368A3E75A6952079CD45A69EB
:101530005205CED4FEF7FAFF801B854262D3002D00
:1015400060D02368BDE75A69D2073FF574AFFEF754
:10155000EDFF801B8542236802D3002D7FF465AF29
:1015600000212022216384F83D2084F83E10226C63
:1015700084F83C1042F0200222641B68DD05BBD5D4
:101580004FF400732364012013E72023C4F830A034
:1015900084F83D3084F83EA0236C84F83CA043F0EE
:1015A0002003236404E71968002220206FF480657B
:1015B00041F4007119605D61226384F83D0084F894
:1015C0003E20236C84F83C2043F004032364012074
:1015D000EFE6FA1102F0060242F0F0021A61691C0D
:1015E00003D039E05A695005DDD45A691207F9D59C
:1015F000FFB21F6127E72268136843F4007313608A
:101600000120D6E600222023226384F83D3084F8AE
:101610003E20236C84F83C2043F02003236468E7D9
:101620005A6992073FF519AF5A695205BBD4FEF7C4
:101630007DFF801B85421FD3F5B1236803E719683E
:10164000202541F400711960104684F83D5084F85B
:101650003C2084F83E20ACE65A691107C8D45A6988
:101660005005A0D4FEF762FF801B854204D31DB154
:101670002368B4E70000FFFF00222023226384F8E0
:101680003D3084F83E20236C84F83C2043F0200356
:10169000236431E72DE9F04F044687B099460F46A1
:1016A0009046BDF844A0129DFEF740FF94F83D30EF
:1016B000202B04D00227384607B0BDE8F08F06463D
:1016C00004E0FEF733FF801B19284AD8226893698B
:1016D000DB4313F0020BF4D094F83C30012BE9D03B
:1016E00013680121DB0784F83C1002D413680B4314
:1016F00013601368A24823F400631360222384F864
:101700003D304022002384F83E202364A4F82AA020
:10171000B4F82AC0109B63623946CDE900564B46A7
:10172000E0624246A4F828C02046FFF72FFC074697
:10173000A8B9228D236812BB02905A6902929A6955
:101740000292029A1A6842F400721A600023202260
:1017500084F83D2084F83C3084F83E30ABE7012724
:10176000A9E72023C4F830B084F83D3084F83EB0B7
:10177000236C84F83CB043F0200323649AE7012AE9
:1017800000F09180022A00F0FD80059059690591D2
:10179000996905910599032A48D8012A00F0BC806F
:1017A000022A74D0681C40F08D805A695107FCD51C
:1017B0001A68616A22F480621A601B690B70638D7B
:1017C000616A228D013B9BB20131013A63856162FE
:1017D0002285681C226840F0818053695907FCD536
:1017E0001368616A43F40073136013690B70638DAF
:1017F000606A218D2268013B9BB26385126900F10A
:10180000010C4B1EC4F824C023854270228D638DC9
:10181000616A013A013B92B29BB201312285638534
:101820006162002A92D0032A2368B6D955B998E09C
:101830005A69D20600F18280FEF778FE801B85424D
:1018400058D323685A695106F2D5626A1B6913702E
:10185000618D2368228D606A013989B26185596979
:10186000013A92B200F1010C49072285C4F824C064
:10187000D7D51B694370C9E75A6952070CD4FEF7E4
:1018800055FE801B854235D3002D33D02368681C5C
:10189000F2D15A695107FCD51A68616A42F40072A4
:1018A0001A601B69A2E7196821F48061196003902E
:1018B00059690391996903910399196841F4007179
:1018C000196068E75A6952073FF572AFFEF72EFEBE
:1018D000801B85420ED36DB1236863E753695B07B4
:1018E0003FF57EAFFEF722FE801B854202D3002D1E
:1018F0007FF46FAF00222023226384F83D3084F808
:101900003E20236C84F83C20012743F02003384616
:10191000236407B0BDE8F08F4DB92CE05A69D106B9
:101920000CD4FEF703FE801B8542E3D323685A697B
:101930005006F3D5626A1B69137067E700226FF0E7
:10194000100020215861226384F83D1084F83E2065
:10195000236C84F83C2001273846236407B0BDE897
:10196000F08F5A6950063FF570AF5A69D006E5D43A
:10197000FEF7DCFDBEE75A695206F6D5DAE700BF8E
:101980000000FFFF196821F480611960196841F4B3
:10199000006119600490596904919969049104994E
:1019A000F9E600BF704700BF704700BF704700BF37
:1019B000704700BF704700BF704700BF704700BF4F
:1019C000704700BF704700BF704700BF836BD3E90B
:1019D0000D0170B593F83D401A68E6B240B300249B
:1019E000C463F1B11568CC6325F4806515605C852E
:1019F000046500200865116821F00101116093F869
:101A00003D10602929D006F02804282C18D0202168
:101A1000002283F83D1083F83E201846FFF7D2FFDE
:101A200070BD146824F48064146059850165E2E790
:101A3000F1B11468C86324F4806414605885D8E751
:101A4000116841F0010111601168002041F48061CA
:101A50001160186383F83D40DFE70022202183F8FE
:101A60003D10184683F83E201A64FFF7ADFF70BDA5
:101A7000106820F4806010605985BCE770B5036879
:101A800004465868E56A94F83E2094F83D10D2B2B6
:101A9000102A8CB020D0402A1ED0226CC9B2002A55
:101AA00000F0BB805A690026C2F34005002D78D0B3
:101AB00085057BD5226C02B19E6994F83D2002F029
:101AC0002802282A00F01C826FF0020100225961CE
:101AD00084F83C200CB070BD99695A69D6073AD495
:101AE000B5F52A0FF6D0B5F12A4FF3D0160740F11D
:101AF0009A80850500F1F58111F0040F596800F016
:101B0000FF800905E6D41606C2F3800140F1A081EA
:101B1000450540F19D81002940F09D8194F83D20CC
:101B2000208D94F83E10E56AD2B2C9B2002840F088
:101B30007883212A00F018844029CBD1222AC9D1E8
:101B4000628D92B2002A00F0098494F83E20402A67
:101B500040F0B6808DE1850562D5E26AB2F52A0FC4
:101B600000F0E981E26AB2F12A4F04BF0822E26282
:101B700094F83E20402A00F0D7812269B2F5804FC8
:101B800000F09781226D002A00F0D881226D012A91
:101B9000A0D1626CD21102F0060242F0F1021A6189
:101BA00098E7D60602D5860500F1D78001F0F70147
:101BB0002129C2F380054ED0510640F18B804205A9
:101BC00040F18880002D40F0888094F83D10628DAF
:101BD00092B2C9B2002A3FF47DAF626A1B691370EA
:101BE000638D626A013B9BB26385638D01329BB258
:101BF0006262002B7FF46EAF2A297FF46BAF2268FC
:101C00005368222523F480632821536020462563EE
:101C100084F83D10FFF7CCFE5CE79E695A6943E704
:101C200015073FF569AF96077FF566AF85057FF528
:101C300063AF94F83E20E06A256B94F83D102229AA
:101C4000D2B200F00B8200220A925A690A929B6972
:101C50000A930A9B3EE7120627D5460525D53DBBCC
:101C600094F83D00628D92B2C0B2002A3FF432AFC8
:101C7000656A15F8012B1A61628D6562013A92B2AC
:101C80006285628D92B2002A7FF424AF29287FF406
:101C900021AF5A68282522F480625A6020462163C9
:101CA00084F83D50FFF782FE14E7002D3FF412AF99
:101CB00080057FF50FAF628D92B2002A3FF40AAF24
:101CC000626A12F8011B1961638D6262013B9BB26B
:101CD0006385FFE6002D3FF4FDAE86057FF5FAAE85
:101CE000628D92B2002A3FF4F5AE626A1B691370EE
:101CF000638D626A013B9BB2013263856262E9E6F1
:101D00000E053FF5E7AE5506C2F3800140F1B780FE
:101D1000420540F1B480002940F0B48094F83D20A1
:101D2000222A7FF4D7AE628D92B2032A40F2E98272
:101D3000626A1B691370638D626A013B9BB26385A3
:101D4000638D9BB20132032B62627FF4C3AE2268C3
:101D5000536823F480635360BCE694F83D105A68DE
:101D600022F4E0625A600B955A690B921A6842F0AD
:101D700001021A600B9A1A6822F480621A605A688B
:101D8000CDB2110521D505F0F702222A00F04181DC
:101D9000606B0268526892B26285628D92B21AB12B
:101DA000226C42F0040222645A6822F400625A60F3
:101DB000FEF79CFF012808D0606BA64B0365FEF779
:101DC00083FF10B1606B036D9847638D9BB213B3B3
:101DD00023685A6952070AD5626A1B691370628DBB
:101DE000616A2368013A92B20131628561625A697F
:101DF000560609D5626A1B691370638D626A013BDE
:101E00009BB2013263856262638D9BB21BB1236C0E
:101E100043F004032364236C002B40F09D802A2DA3
:101E200000F04F8194F83D30282B00F0E080236BC8
:101E3000222B02D0222D7FF44DAE002320222363DB
:101E4000204684F83D2084F83E30FFF7B1FD41E69E
:101E500000293FF43FAE82057FF53CAEE16A94F87D
:101E60003D20212A00F06E8194F83E30402B7FF413
:101E700031AE20460CB0BDE87040FFF74BB80029EA
:101E80003FF428AE86057FF525AEE06A628D616A73
:101E900092B2042A00F07B81628D92B2032A00F094
:101EA000B181628D92B2022A00F0D4811B690B705D
:101EB0001EE794F83D20212A626C16BF42F0010211
:101EC00002F0FE02D2B21A61626B002A00F0E380D7
:101ED000D26B002A00F0DF805A6842F400625A6038
:101EE000F8E5626C616BD2B21A61002900F08C8057
:101EF000CA6B002AF0D1A26BD26B002AECD1E9E5C3
:101F00005A6822F480625A606FEA960133064FF0F5
:101F1000000301F0010154BFA289228B84F83C30F8
:101F20002046FFF747FDD5E5226D7AB9626C02F0D5
:101F3000FE021A61CEE50122E26219E6626CD2115C
:101F400002F0060242F0F0021A61C3E5626C42F050
:101F50000102D2B21A61BDE594F83D2094F83E101A
:101F600023681029D2B200F0B98002F02801282994
:101F700000F0AF805968090504D4602A02D02022FD
:101F800084F83D200022226384F83E205A6812F42F
:101F9000006200F085805A68606B22F400625A602B
:101FA00090F83530012B00F00F812A4B0365FEF7C6
:101FB0008BFE50B12268606B1368016D23F0010342
:101FC0002025136084F83D508847236C180704D0FF
:101FD0002268536823F4E063536094F83D30226C28
:101FE0005107DBB27FF576AD282B7FF473AD1A4B2A
:101FF000E362202200232363204684F83D2084F8F6
:102000003E30FFF7D9FC65E5A26B002A7FF470AF84
:1020100060E5A06B0268526892B26285628D92B2EE
:102020001AB1226C42F0040222645A6822F400625F
:102030005A60FEF75BFE01283FF4C7AEA06B054B6C
:102040000365FEF741FE00283FF4BFAEA06B036DB1
:102050009847BAE6CD1900080000FFFF216D11B9BD
:10206000402A00F0E280226D22B92169B1F5404F8B
:1020700000F0E280628D92B2002A3BD103925A694D
:1020800003929A690392039A1A6842F400721A60E2
:10209000002323651EE5A26B002A7FF42DAF19E50E
:1020A00094F83D10602979D05A69550605D5626AC1
:1020B0001B691370636A013363622046FFF782FC79
:1020C00083E728222363204684F83D20FFF770FC35
:1020D000A8E60022226384F83D1057E7222A7FF405
:1020E00044AF1A6822F400621A605A6810057FF53E
:1020F00046AF47E7628D92B2012A00F0E180628D1F
:1021000092B2022A00F056811A6842F480621A6084
:102110005A6815050ED510F5803F07D001381F28E5
:1021200008D8A14A22FA00F0C00703D55A6842F441
:1021300080525A60002209925A6909929B69099358
:10214000099BA5E7628D92B2002A7FF4B9AD0829F8
:1021500005D0202903D011F5803F40F07E815A68D8
:1021600022F4E0625A6019680022202041F40071D4
:102170001960226384F83D0094F83E3084F83E20D4
:10218000402B204600F00B81FFF70CFCA2E45A68BC
:1021900022F480625A601B690B70A9E5202184F843
:1021A0003D1022645A69560606D5626A1B6913708F
:1021B000626A2368013262621A6822F001021A60C0
:1021C0002046FFF701FC00E7A06B784B0365FEF7A4
:1021D0007BFD00283FF4F9AE23685A69520606D504
:1021E000626A1B691370626A2368013262621A684C
:1021F000A06B22F0010220211A60036D84F83D10CB
:102200009847E2E65A68042822F480625A603FF454
:102210004DAE02283FF44AAE1A6822F480621A607A
:1022200044E6212A3FF48CAC86E401915A6901927C
:102230009B690193019B4DE402925A6902929A694B
:102240000292029A1A6842F480721A60236D013376
:1022500023653FE401281A687CD010287AD004282E
:1022600000F00881022800F0058142F400721A6033
:102270001B690B70638D626A2168013B9BB26385A9
:102280000B69511C61625370638D2168626A013B66
:102290009BB263854B68013223F440732020626255
:1022A0004B6084F83D0094F83E30402B49D000222A
:1022B000122384F83E2020462363FFF775FB09E4D0
:1022C00010F5803F00F0B580082800F0A28020289B
:1022D00000F09F80122D00F09980102805D8344A14
:1022E00022FA00F0C00700F1D4801A6822F480625C
:1022F0001A60002206925A6906929B690693069B11
:10230000C6E6E16A02293FF4E5AB012A3FF6E2ABFB
:102310001A68616A22F480621A605A6822F4E062E4
:102320005A601B690B70638D626A013B9BB220216E
:10233000638584F83D1094F83E300132402B626290
:10234000B5D1002384F83E3020462363FFF738FBE5
:10235000FFF7C0BB22F480621A6089E75A6822F452
:1023600080625A60FFF7B6BB082D3FF4F8AE202D0F
:102370003FF4F5AE15F5803F3FF4F1AE5A681126F3
:1023800022F4E062002520215A602046266384F86A
:102390003E5084F83D10FFF705FBFFF79BBBFFF7AE
:1023A0000DFBFFF797BB00BF81800080CD190008AF
:1023B00014000100102820D91A6822F480621A60E3
:1023C0001A6842F400621A605A6812050DD510F5B9
:1023D000803F06D001381F2807D8304AC240D607B0
:1023E00003D55A6842F480525A60002208925A6912
:1023F00008929B690893089B4AE6294AC240D10784
:10240000DAD51A6842F480621A60DDE701283FF4E9
:102410006CAF1A68002122F480621A6007915A6931
:1024200007929A690792079A1A6842F400721A6032
:102430002EE61A6822F480621A605A6812F400626A
:102440001CD01A68002122F480621A6004915A6933
:1024500004929B690493049B1AE65968112621F49F
:10246000E061202559602046266384F83E2084F8E8
:102470003D5089E642F480621A60F9E605925A6995
:1024800005929A690592059A1A6842F400721A60D8
:10249000FEE51A6842F480621A602AE781800080B3
:1024A00014000100F0B58BB0002800F0838090F894
:1024B000BD330568044603F0FF0233B32846032307
:1024C00084F8BD33EB6B254613F4807308BF23619A
:1024D00001F082FA55F810CB2F460FCF6E460FC68B
:1024E0000FCF0FC697E8030086E80300261D60465D
:1024F00096E80E0001F082F9074660B1022384F8E5
:10250000BD33012528460BB0F0BD80F8BC2304F094
:102510002BFA2068D3E70146206801F065FA60686D
:1025200060B339463A464FF0010CC1EBC10304EBEE
:1025300083034F1C83F83C10A3F84210F9B2814288
:1025400083F83DC083F83F20C3E911221A65ECD31C
:1025500000221146C2EBC20304EB8303571C83F82D
:10256000FC21FAB2824283F8FD1183F8FF11C3F80F
:102570000412C3F80812C3F81012EBD30FCD6F4644
:10258000D4F800C00FC70FCD0FC795E8030087E848
:102590000300604696E80E0001F03EFA054600286A
:1025A000ACD1012384F83800206884F8BD3301F0F1
:1025B000FFFDA7E7012528460BB0F0BD90F8BC331E
:1025C000012B1AD0826A036801218A4210B580F873
:1025D000BC130AD00446184601F0DEFD206801F065
:1025E000F3F9002084F8BC0310BD82698A42F1D05F
:1025F0009A6B42F480329A63ECE70220704700BF86
:102600002DE9F04F066889B00446304601F00EFE11
:1026100010B109B0BDE8F08F0546206801F0D4FD87
:102620000028F6D0206801F0CFFD10F0020F2068DE
:102630001EBF436903F00203436101F0C5FD10F4BE
:10264000002F206840F0C38101F0BEFD10F4802F00
:10265000206840F01C8101F0B7FD00287DDB206878
:1026600001F0B2FD010549D4206801F0ADFDC304BD
:1026700000F18780206801F0A7FD10F4005F20685A
:1026800040F0C88001F0A0FD10F0100F206811D0BC
:10269000836923F010038361356AC5F34343022B3A
:1026A00005F00F0739D0062B00F09D82836943F0B7
:1026B0001003836101F088FD070700F1DF802068C7
:1026C00001F082FDC60200F1CF80206801F07CFDA0
:1026D000850200F1BF80206801F076FD400000F126
:1026E000B080206801F070FD410792D523685D68D5
:1026F0006A070DD45A682A435A608AE7D6F8083820
:10270000DA0726D42068436903F400634361ACE729
:10271000204604F0CFF92368ECE747F6F0731D423A
:10272000C4D0C7EBC70704EB8707C5F30A15D7F872
:1027300008122A46304601F0B3FCD7F80812D7F841
:102740001422206829442A44C7F80812C7F8142222
:10275000ACE7204604F086F9D4E794F8F413D6F8F1
:102760000428012922F00102C6F8042800F0F681AD
:10277000204604F08FF92068436903F00043436169
:102780006EE706F500677B68206823F001031021DF
:102790007B6001F041FAD4F804C0BCF1000F15D001
:1027A00006F510634FF67F3199601A6822F4001223
:1027B0001A60C3F80812D3F80022013522F400127F
:1027C0006545C3F8002203F12003EDD1FB69226BBC
:1027D00043F00113FB61002A00F0B581D7F8843083
:1027E00043F00B03C7F884307B6C43F00B037B642E
:1027F000D6F80038217C206823F4FE63C6F8003840
:1028000004F5717201F032FD2068436903F48053CE
:10281000436130E701F00EFD206801F00FFAE0603F
:10282000256800F067FE227B0146284601F050F83B
:10283000204604F001F92068436903F40053436122
:1028400020E7204604F032F92068436903F0804312
:10285000436147E72046002104F020F920684369DE
:1028600003F40013436137E72046002104F01AF90E
:102870002068436903F48013436127E7204604F08E
:10288000D7F82068436903F00803436118E701F0B3
:10289000A7FC81462068B9F1000F3FF4DCAE06F5D5
:1028A0001063CDE90365A3464FF0000A1E4607E01A
:1028B0005FEA59090AF1010A0BF11C0B00F0F980DB
:1028C00019F0010FF4D05FFA8AF7394601F09AFC4B
:1028D000C207054600F1B880206880462B0703D563
:1028E00006EB4A1308229A60E90603D506EB4A1361
:1028F00010229A606A0603D506EB4A1340229A60BA
:10290000AB0703D506EB4A1302229A602D06CFD5FA
:10291000DBE914138B42CBD808EB4A1202F51062A4
:102920001046DBF844200590CD1A95428069CDF819
:102930001880AC4628BF944680B20CF1030CB0EB73
:102940009C0F32D38B4234D299B3CDF81C90DBF874
:102950004810DDF8149007E0DBF850509D4240F23B
:102960009081DBF84420ED1A954228BF1546237C60
:1029700000933A46ABB2404601F07CFBD9F81820F0
:10298000DBF84810DBF8543029442B4492B203356D
:10299000B2EB950FCBF84810CBF85430DCD2DDF811
:1029A0001C90D4F80080DBF85010994240463FF666
:1029B0007FAF069B0120D3F834280AF00F0100FAFC
:1029C00001F122EA01024046C3F8342870E701F021
:1029D000FFFB07462068002F3FF436AE4FF000089B
:1029E00006F5306BCDE9036503E07F0808F10108C7
:1029F00062D0FD07F9D55FFA88F6314601F0F8FBA1
:102A000010F0010F81465AD100F00803002B7DD150
:102A1000206819F0100F03D00BEB481310229A60B6
:102A200019F0200F07D02169012900F0EF800BEB8E
:102A3000481320229A6019F4005FD6D00BEB48139C
:102A40004FF400529A60D0E7039B2069D3F8341802
:102A50004FF0010C0AF00F020CFA02F221EA020117
:102A600006EB4A12C3F8341813466045C3F808C091
:102A700004D1DBE911231344CBF848303946204612
:102A800003F0CCFF2169D4F80080012940467FF48F
:102A900025AFBAF1000F7FF421AF236D002B7FF437
:102AA0001DAF04F5717201F0E1FBD4F800804046DF
:102AB00014E7DDE90365CEE5DDE90365C4E52068DB
:102AC000D4F810C04FEA48130BEB030500F5306A49
:102AD00001219A44A9608C45026CDAF808E009F0FB
:102AE000080364D071498A4209D11EF4004F40F0B6
:102AF000CD801EF0200F1CBF2021CAF808103146DF
:102B00002046059303F080FF059B7FE7236821693A
:102B10001A6C03F5306A4FEA48139A4401290BEB0B
:102B20000305DAF808303BD060498A421DD02046C0
:102B3000059203F063FF5E4B059A9A421ED8082364
:102B40002068AB6065E77B6943F4005343F02B03D7
:102B50007B613B6943F00B033B6149E6002184F84C
:102B6000F413204600F018FA05E6190403D54FF4D3
:102B70000043CAF80830204603F040FF21690129CC
:102B8000DDD104F57172206801F070FBD7E72022D7
:102B9000CAF80820002B3FF43CAF026CDAF808308A
:102BA00043498A42E1D8204603F028FFC7E71EF0D8
:102BB000080F31D03E498A4206D91EF4004F1CBF8F
:102BC0004FF40042CAF808202046059303F016FF90
:102BD00004F571720121206801F048FB0822CAF84F
:102BE0000820059B12E7082204F571713046C7EBF7
:102BF000C70701F055FA04EB8702C5F30A13D2F8B0
:102C0000141220680B44C2F814324FE504F57172B7
:102C100001F02CFB20680AE71EF0200FB7D11EF050
:102C2000280FB7D122498A4202D91EF4004F38D169
:102C30001C2000FB0840DAF810C0D0F80812D0F8C9
:102C400004E20593CCF3120CAEEB0C0C8E44C0F8EE
:102C500014C2C0F808E23146204603F0D5FE059BB9
:102C6000B8F1000F7FF4D2AED4F81022002A7FF41E
:102C7000CDAE04F571720121206801F0F7FA059BD1
:102C8000C4E6DDF81C90D4F8008092E64FF40042D0
:102C9000CAF80820002B3FF4BCAE026CDAF808300A
:102CA00042E74FF40042CAF8082073E70A31544F54
:102CB0000A30544F90F8BC23012A0DD010B50446B9
:102CC000012284F8381080F8BC23006801F054FA1F
:102CD000002084F8BC0310BD02207047F8B501F055
:102CE0000F05C5EBC504C5EBC50609064FEA84040C
:102CF00000EB86061ED404F5FE740027011986F841
:102D0000FD714C780D708A60CB7004B1CD80022BC0
:102D100004BF00230B7190F8BC33012B10D00123AA
:102D2000044680F8BC33006800F094FF002084F86B
:102D3000BC03F8BD3C340127011986F83D70E0E77B
:102D40000220F8BD01F00F0238B50906C2EBC2033C
:102D5000C2EBC2044FEA830300EB840415D403F5ED
:102D6000FE73C118002584F8FD510A7090F8BC3339
:102D7000012B14D00123044680F8BC33006800F016
:102D8000ADFF002084F8BC0338BD3C33C1180125D9
:102D900084F83D500A7090F8BC33012BEAD1022030
:102DA00038BD00BF38B501F00F05C5EBC50400EB19
:102DB00084040021C4F80822C4F8141284F8FD1118
:102DC000C4F8103284F8FC5103691C2101FB050191
:102DD000012B08BFC4F80C2201F5FE710068DAB2BD
:102DE0001DB100F0AFFF002038BD01F0BDF800209C
:102DF00038BD00BF01F00F01C1EBC10100EB810143
:102E0000D1F81402704700BF70B501F00F05C5EB93
:102E1000C50400EB840401210026A26484F83D105F
:102E2000236584F83C50666503691C2101FB05019C
:102E3000012B08BFE2643C310068DAB21DB100F03A
:102E400081FF002070BD01F08FF8002070BD00BF31
:102E500038B5436801F00F059D421FD80B061FD4FB
:102E6000C1EBC1031C2404FB010100EB830300221E
:102E700001F5FE7183F8FD2101230D708B7090F830
:102E8000BC239A421ED0044680F8BC33006801F08F
:102E90001BF9CDB1002084F8BC0338BD012038BD3A
:102EA000C5EBC5031C2101FB050100EB83030122D7
:102EB0003C3183F83D2001230D708B7090F8BC23CA
:102EC0009A42E0D1022038BD04F57172217C20685D
:102ED00001F0CCF9DEE700BF38B5436801F00F021E
:102EE0009A4221D8C2EBC203C2EBC20409064FEAE0
:102EF000830300EB840419D403F5FE73C118002585
:102F000084F8FD5100250A708D7090F8BC33012BB8
:102F100018D00446012380F8BC33006801F000F9A2
:102F200084F8BC53284638BD012038BD3C33C11855
:102F3000012584F83D5000250A708D7090F8BC334F
:102F4000012BE6D1022038BD30B4056812046C6A4A
:102F5000C1B1AB6A013904EB13440BD0002303F178
:102F6000400005EB800001334068DBB28B4204EB8C
:102F70001044F4D3403105EB810114434C60002030
:102F800030BC70471443AC62002030BC704700BFB7
:102F90000368002059627047704700BF002800F0A6
:102FA00032812DE9F0410368DD0782B004462FD558
:102FB000AC498A6802F00C02042A00F0EA808A68B0
:102FC00002F00C02082A00F0E0806368B3F5803F4D
:102FD00000F0E980B3F5A02F00F07881A14D2A68B8
:102FE00022F480322A602A6822F480222A60002B90
:102FF00040F0DE80FDF79AFA064605E0FDF796FA06
:10300000801B642800F2F2802B689B03F6D42368AF
:103010009F0775D41A0715D56369002B00F0A580AA
:10302000914B904D01221A60FDF780FA064605E0AB
:10303000FDF77CFA801B022800F2D8806B6F9B079B
:10304000F6D5236858073BD5864A136C13F0805396
:1030500040F0DB800193136C43F080531364136CD6
:1030600003F080530193019B0126804D2A68D1050E
:1030700040F1AC80A368012B00F0C980052B00F063
:103080002F81784D2A6F22F001022A672A6F22F0E1
:1030900004022A67002B40F0BF80FDF747FA41F297
:1030A0008837804606E0FDF741FAA0EB0800B842F9
:1030B00000F29C802B6F9807F5D4002E40F0DC8046
:1030C000A069C8B1674DAA6802F00C02082A00F096
:1030D000D980674A00210228116000F00B81FDF7BA
:1030E00025FA2C46054604E0FDF720FA401B02288D
:1030F0007CD823689B01F7D4002002B0BDE8F081A2
:10310000584A916811F00C0F24D0916801F00C011D
:1031100008291CD0E368002B00F09280554B514DDC
:1031200001221A60FDF702FA064604E0FDF7FEF9F7
:10313000801B02285AD82B689807F7D52B6822697C
:1031400023F0F80343EAC2032B60236862E7526866
:103150005602DFD4434A126895074BD5E268012A2C
:1031600048D0012002B0BDE8F0813F4A3D4D1360D8
:10317000FDF7DCF9064604E0FDF7D8F9801B0228CC
:1031800034D86B6F9F07F7D45BE74A6850027FF52E
:103190001CAF344A126891037FF53AAF6268002A87
:1031A0007FF436AFDDE72F4A136843F480331360B2
:1031B000FDF7BCF92B4D064604E0FDF7B7F9801B7F
:1031C000642813D82B689A03F7D520E72A6842F4BD
:1031D00080722A60FDF7AAF907462B68DA053FF5E9
:1031E00049AFFDF7A3F9C01B0228F6D9032002B0AE
:1031F000BDE8F0811B4920690A6822F0F80242EA22
:10320000C0020A6006E70120704700262DE7154A34
:10321000136F43F001031367FDF788F9114D8046E2
:1032200041F2883705E0FDF781F9A0EB0800B842CC
:10323000DCD82B6F9B07F6D5002E3FF441AF1BE087
:103240000C4A084D1360FDF771F9064604E0FDF7DE
:103250006DF9801B0228C9D82B689907F7D4236819
:10326000D8E600BF00380240800E474200700040A0
:103270006000474200004742354A136C23F08053F8
:1032800013641DE701283FF46DAFAB68E26903F4F6
:10329000800191427FF465AF226A03F03F019142C1
:1032A0007FF45FAF47F6C072616A1A408A427FF4CA
:1032B00058AFA26A03F4403191427FF452AFE06A02
:1032C00003F07063181A18BF01204BE7204B1A68EF
:1032D00042F480221A601A6842F480321A6067E76A
:1032E0001B4B1A6F42F004021A671A6F42F0010278
:1032F0001A6791E7FDF71AF9064605E0FDF716F99A
:10330000801B02283FF672AF2B689901F6D4D4E9EE
:103310000736D4E90902E16A0D4C334343EA8013CE
:10332000520843EA0163013A0A4943EA024301228F
:103330006B600A60FDF7FAF8054605E0FDF7F6F860
:10334000401B02283FF652AF23689A01F6D5D3E618
:103350000038024060004742154908B58B6803F009
:103360000C03082B01D0134808BD4A684B6813F4BE
:10337000800302F03F0210D149680E48C1F3881162
:10338000A1FB0001FCF72CFF094B5B68C3F3014371
:1033900001335B00B0FBF3F008BD4B680548C3F395
:1033A0008813A3FB00010023FCF71AFFECE700BF22
:1033B000003802400024F40060B1494A136803F069
:1033C0000F038B4208D2CBB21370136803F00F03C4
:1033D0008B4201D00120704703682DE9F0419D0721
:1033E00014D55C0704D53F4CA26842F4E052A260B9
:1033F0001A0704D53B4CA26842F46042A260394CE3
:103400008568A26822F0F0022A43A260DF07044622
:103410000D4622D54268012A57D0931E012B314B0D
:103420001B6859D9990725D52E4EB36823F003039D
:103430001343B360FDF77AF841F28837804605E020
:10344000FDF774F8A0EB0800B84243D8B36862688F
:1034500003F00C03B3EB820FF2D1214A136803F09F
:103460000F03AB4209D9EBB21370136803F00F03DB
:10347000AB4202D00120BDE8F08123685A0706D58F
:103480001849E0688A6822F4E05202438A601B0708
:1034900012D4FFF761FF134B134C9B681349144A76
:1034A000C3F30313E35C20FA03F30868136003F02B
:1034B00037F90020BDE8F0810A4A2169936823F4B6
:1034C000604343EAC1039360E3E7064B1B689E0336
:1034D000AAD4CFE70320EDE79801A5D4CAE700BF3F
:1034E000003C0240003802400C9700080400002015
:1034F0001C010020014B1868704700BF1C01002010
:10350000044B054A9B680549C3F382230868D35CD2
:10351000D8407047003802401C9700081C0100206A
:103520000E4B0F2202609A6802F0030242609A6812
:1035300002F0F00282609A6802F4E052C2609B6876
:10354000DB0810B403F4E053054C036123685DF815
:10355000044B03F00F030B60704700BF00380240BC
:10356000003C0240704700BF00285CD0F8B590F8DE
:103570003D30044603F0FF02BBB322683A4EA56912
:10358000E0686168022384F83D30B24213684CD091
:10359000B2F1804F58D0A6F57C46B2422AD006F54B
:1035A0008066B24226D006F58066B24222D006F589
:1035B0007846B2421ED006F57056B24213D006F5D8
:1035C0008066B2420FD006F58066B2420BD0A6F5F7
:1035D0009836B24207D006F58066B24203D006F5AF
:1035E0008066B24238D1266933E080F83C20FFF78C
:1035F000B9FFC2E7A6681D4F23F070033343266965
:1036000023F44073334323F080032B43BA42136007
:10361000D062916201D16369136301235361002079
:1036200084F83D30F8BD01207047A768266923F073
:1036300070033B4323F44073334323F080032B4355
:103640001360D0629162E6E7A768266923F07003F1
:103650003B4323F44073334323F080032B43136035
:10366000D0629162D9E700BF000001400004014030
:103670000368DA6842F00102DA609A6802F0070231
:10368000062A03D01A6842F001021A60002070472F
:10369000704700BF704700BF704700BF704700BF52
:1036A00003681A69910710B5044602D5DA689207D3
:1036B0005FD41A69500702D5DA68510746D41A69EF
:1036C000120702D5DA6810072ED41A69D20602D57D
:1036D000DA68D00618D41A69D10702D5DA68D20799
:1036E0005DD41A69100602D5DA6811065FD41A692A
:1036F000520602D5DA68500661D41A69910602D5DD
:10370000DA68920643D410BD6FF010021A61DB69CB
:10371000082213F4407F2277204664D0FFF7BAFFD7
:10372000002223682277D6E76FF008021A61DB696E
:10373000042299072277204652D1FFF7A9FF20469D
:10374000FFF7AAFF002223682277BEE76FF004028A
:103750001A619B69022213F4407F227720463CD1F4
:10376000FFF796FF2046FFF797FF00222368227796
:10377000A5E76FF002021A619B6901229B0702779D
:1037800025D0FFF787FF00222368227791E76FF0AB
:10379000200220461A61BDE8104000F02BB86FF0FF
:1037A00001021A61204602F0CDFC236899E76FF010
:1037B00080021A61204600F01FF8236897E76FF037
:1037C00040021A612046FFF769FF236895E7FFF77B
:1037D0005FFF2046FFF760FFD5E7FFF75BFFC4E719
:1037E000FFF758FFAEE7FFF753FF2046FFF754FF00
:1037F00096E700BF704700BF704700BF84B030B489
:10380000089D03AC012D84E80E0032D1836B0F9A22
:1038100023F480338363C36823F4840323F04003D9
:10382000C360C368012A23F44013C36044D0274B0C
:1038300001E0013B45D00269002AFADA0369234A14
:1038400043F00103036101E0013A3AD0036913F048
:103850000103F9D1069A012A07D1826842F00602D3
:103860008260826842F02002826030BC184604B058
:103870007047C268154B42F04002C26001E0013B54
:1038800021D00269002AFADA0369104A43F00103E1
:10389000036101E0013A16D0036913F00103F9D185
:1038A0000C9A22B9826B42F480328263D2E7826B37
:1038B00022F480328263CDE7C36843F48013C3608F
:1038C000B5E70323C6E70323EAE700BF400D030083
:1038D000022A0AD04FF41051C26822F47052C2601A
:1038E000C3680B43C360002070472D4B2D4A0B4427
:1038F000934243D92C4B2D4A0B4493423BD9A1F51B
:1039000074032B4AA3F5105393423AD9A1F1837360
:1039100002F5C332A032A3F5E743934234D9254BD5
:10392000254A0B44934232D9244B02F5922202F5E8
:1039300078720B4493422DD9214B02F5C32202F534
:1039400020720B449342C5D9A1F1B77302F5B712A7
:1039500002F55872A3F5585393421ED9194B02F53C
:10396000122202F5F8620B4493428CBF4FF4C0510F
:103970004FF4E051B0E74FF46051ADE74FF47051B0
:10398000AAE74FF45051A7E74FF44051A4E74FF492
:103990003051A1E74FF420519EE74FF400519BE7CF
:1039A000405327FFFF340C00401E1BFF3F420F0017
:1039B0007F4F120060B6E5FE5FE3160000D3CEFE37
:1039C000C05BB3FEE05459FE02460020936843F00A
:1039D00001039360704700BF02460020936823F004
:1039E00001039360704700BF08B5C368012923F045
:1039F000C043C3600BD041B9C36843F08043C36088
:103A00003220FCF799FD002008BD012008BDC368E5
:103A100043F00053C360F3E784B02DE9F04709ACED
:103A200084E80E00139D0C9E0022C0F8042103467A
:103A3000C0F808210C46C0F80C21C0F81021C0F8CD
:103A40001421C0F81821C0F81C21C0F82021C0F8AA
:103A50002421C0F82821C0F82C21C0F83021C0F85A
:103A60003421C0F83821C0F83C21002D40F09E8060
:103A7000826B42F400128263826B22F40022826322
:103A8000826B22F4802282630022C3F8002E0E9AF9
:103A9000D3F80018C3F80018012A03F5006700F0F6
:103AA0008E80D3F8002842F00302C3F800284FF4B8
:103AB00084621A61554A02E0013A00F09C8018695C
:103AC00010F02000F8D110221A61504A02E0013AA9
:103AD00000F093801969C906F9D400213961796130
:103AE000F961F4B18E4603F510624FF090494FF042
:103AF000006A4FF67F380AE0C2F800E00131A142C7
:103B0000C2F810E0C2F8088002F120022FD0D2F8EB
:103B100000C0BCF1000FEFDA002973D0C2F80090AA
:103B2000ECE73A69012E22F480723A614ED000210E
:103B30006FF0804299615A611EB99A6942F0100291
:103B40009A619C69324A0F9922439A6119B19A6924
:103B500042F008029A61012D05D19A6942F0804233
:103B600042F004029A61BDE8F04704B070470024B7
:103B7000A64603F530624FF090494FF0006A4FF6C9
:103B80007F380AE0C2F800E001348C42C2F810E04D
:103B9000C2F8088002F12002C3D0D2F800C0BCF104
:103BA000000FEFDA5CB3C2F80090EDE7026822F490
:103BB00000120260826B42F40022826364E70B9A77
:103BC00092B9D3F80028C3F8002870E7114A3A6385
:103BD0003A6B42F4803242F003023A6300216FF004
:103BE000804299615A61ACE7D3F8002842F00102A3
:103BF000C3F800285BE7012065E701206DE7C2F804
:103C000000A0C1E7C2F800A078E700BF400D0300A4
:103C100000383C8000018000890141F020010161F1
:103C2000054A01E0013A05D0036913F02003F9D1F8
:103C30001846704703207047400D0300D0F808383D
:103C400013F0060004D013F0020F14BF02200F205F
:103C5000704700BF30B40A784D7802F00F0401239A
:103C6000012D03FA04F300EB421400F5006019D0B3
:103C7000C26942EA0343C361D4F8003B1B040ED47B
:103C80008A68C878D4F8001BC2F30A0242F0805355
:103C900043F4004343EA80430B43C4F8003B002055
:103CA00030BC7047C5692B43C361D4F80039180490
:103CB000F5D48B68C878D4F80019C3F30A0343F02D
:103CC000805343F4004343EA804343EA82520A4369
:103CD000C4F80029002030BC704700BF10B40A7837
:103CE000497802F00F0400EB421200F50060012356
:103CF000012903FA04F3C46B10D06FEA03431C409C
:103D0000C463C4690D492340C361D2F8003B5DF828
:103D1000044B19400020C2F8001B7047DB431C40D5
:103D2000C463C46906492340C361D2F800395DF811
:103D3000044B19400020C2F8001970470078F3EFD7
:103D4000007833EC2DE9F04791F801C00E784B690B
:103D5000CF78BCF1010F00EB46154ED005F530646D
:103D60002669D1F808C0F60CF6042661266926F00B
:103D7000FF5626F4C01626617BB3DFF8E8E1D4F8DD
:103D8000108003EB0C06013EB6FBFCF60EEAC643C0
:103D900043EA08032361B6B20CFB06F32669C3F3BA
:103DA00012033343012A236122D0012F0CD1D0F812
:103DB000083813F4807FD5F8003B0CBF43F0005364
:103DC00043F08053C5F8003BD5F8003B43F0044373
:103DD000C5F8003B0020BDE8F0872669CCF312034C
:103DE000334323612369012A43F400232361DCD197
:103DF000CB68002BD9D06361D7E705F51064F3B326
:103E0000D4F81080D1F808A0DFF858E14FEAD8487C
:103E10004FEAC848C4F81080D4F8108028F0FF5842
:103E200028F4C018C4F81080D4F810900AEB0308E6
:103E300008F1FF38B8FBFAF80EEAC84E4EEA090E50
:103E4000C4F810E0D4F81080C3F3120E4EEA080E46
:103E5000012FC4F810E054D0012A60D0D5F8003901
:103E600043F00443C5F80039D0F8343806F00F06A3
:103E70000CFA06FC4CEA0303C0F83438AAE7D4F87D
:103E800010C02CF0FF5C2CF4C01CC4F810C0D4F897
:103E900010C04CF4002CC4F810C0D4F810C04FEA85
:103EA000DC4C4FEACC4C012AC4F810C037D0D5F80E
:103EB0000049012F44F00444C5F800498AD1D0F8E4
:103EC000084814F4807FD5F800490CBF44F0005432
:103ED00044F08054C5F80049002A7FF47BAF9BB2C0
:103EE00003339A083FF476AFCB6800EB063003EB60
:103EF000820200F5805053F8041B01609342FAD10E
:103F000068E7D4F810C02CF0C04CC4F810C0D4F846
:103F100010C0012A4CF0005CC4F810C01AD10B6923
:103F200003B16361012F0CD1D0F8083813F4807FFE
:103F3000D5F800390CBF43F0005343F08053C5F867
:103F40000039D5F8003943F00443C5F800390020A2
:103F5000BDE8F087D5F8004944F00444C5F80049AD
:103F6000ADE700BF0000F81F4B78F0B40D784E6944
:103F7000012B00EB451427D004F530631D698868D8
:103F8000ED0CED041D611D6925F0FF5525F4C015EC
:103F90001D6106B148611D6945F400251D611D695B
:103FA000C0F312002843012A186108D0D4F8003B5E
:103FB00043F00443C4F8003B0020F0BC7047CA68DB
:103FC000002AF3D05A61F1E704F510639EB31F692C
:103FD000D1F808C0FF0CFF041F611F6927F0FF57CD
:103FE00027F4C0171F611F69B44547F4002738BF85
:103FF000C1F814C01F6138BF6646D3F810C0C6F3BD
:10400000120747EA0C07012A1F612DD0D4F80039A6
:1040100043F00443C4F80039002ECDD0D0F8342842
:1040200005F00F05012303FA05F51543C0F83458D0
:104030000020F0BC7047186920F0FF5020F4C01039
:104040001861186940F4002018611869C00CC00498
:10405000012A186108D0D4F8003943F00443C4F8A9
:1040600000390020F0BC70470A69002AF3D05A6179
:10407000F1E700BF10B49DF804406CB903339B080E
:104080000AD000EB023000F5805001EB830351F8B9
:10409000042B02608B42FAD100205DF8044B70477C
:1040A000033292080DD010B401EB820200F5805467
:1040B0000846236840F8043B8242FAD15DF8044B7D
:1040C00070470846704700BF4A780B78012A00EB1A
:1040D000431012D0D0F8002B002A06DB2BB1D0F809
:1040E000003B23F08043C0F8003BD0F8003B43F492
:1040F0000013C0F8003B00207047D0F80029002AC8
:1041000006DB2BB1D0F8003923F08043C0F800392A
:10411000D0F8003943F40013C0F80039002070478C
:10412000CB780A784978023B0129DBB200EB4210D8
:1041300011D0D0F8002B012B22F40012C0F8002B74
:1041400001D900207047D0F8003B43F08053C0F8FD
:10415000003B00207047D0F80029012B22F4001208
:10416000C0F80029EDD8D0F8003943F08053C0F8EA
:1041700000390020704700BFD0F8003823F4FE63F8
:10418000C0F80038D0F80038090101F4FE61194385
:10419000C0F800180020704700F5006208B55368A9
:1041A00023F0020303205360FCF7C6F9002008BD8A
:1041B00000F5006208B5536843F002030320536022
:1041C000FCF7BAF9002008BD4269806910407047C9
:1041D000D0F8183800F50060C0691840000C70472E
:1041E000D0F8183800F50060C069184080B27047F8
:1041F00000EB411100F50060D1F8082B4069104038
:10420000704700BF10B4D0F81048D0F8343800EB35
:10421000411001F00F0100F51060CB40DB01DBB273
:104220008068234318405DF8044B7047406900F0F4
:1042300001007047D0F8003923F4FF6323F007032F
:1042400000F50062C0F80039936803F00603042B00
:1042500005D1D0F8003943F00303C0F800395368A2
:1042600043F4807353600020704700BF30B4124C99
:10427000056CA54200F5306303D9D0F8004B002C43
:1042800016DB00241C611C6944F400241C611C69B9
:1042900044F018041C611C69012944F0C0441C61ED
:1042A00006D15A61D0F8003B43F08023C0F8003BB0
:1042B000002030BC704700BF0A30544FD0F8943211
:1042C00083B110B5D0F8904294F80002FF2807D0CF
:1042D0009B6894F8012221469847FF2384F8003216
:1042E000002010BD00207047432303800048704722
:1042F00040000020432303800048704784000020D2
:104300004323038000487047D40000200A23038021
:1043100000487047C800002038B50446D0F89052D5
:1043200002F084FCD4F89032C5F80C024BB1D4F8FA
:104330009432D5F80402DB6805F503719847002034
:1043400038BD022038BD00BFF8B5D0F89062E6B1A4
:1043500001EB810200EB8202D7695FB1D0F898428D
:10436000C1EBC10304EB83035B6CB7FBF3F403FB0A
:1043700014741CB10020C6F81402F8BDD4612346A1
:10438000224602F037FC2046F8BD0220F8BD00BFEF
:104390002DE9F0410B78D0F8908282B0002713F01D
:1043A00060040D4606468DF80570ADF806700FD016
:1043B000202C17D1CC8891F801C064BBD0F894327E
:1043C000224660469B689847204602B0BDE8F081CF
:1043D0004F780A2F14D00B2F0CD01FB990F87432DD
:1043E000032B28D03046294600F0B0FC022002B052
:1043F000BDE8F08190F87432032BF3D12046F6E744
:1044000090F87432032BEDD101220DF1050100F07B
:10441000CFFC2046EBE71B0614D5D0F89432224699
:1044200060469B6841469847EA884146304600F01E
:10443000BFFC3846DBE702220DF1060100F0B8FCB4
:104440003846D4E788F800C288F80142224641463F
:1044500000F0C4FC3846CAE738B50446002581217F
:1044600002F07CFB0121E562204602F077FBC4F8F4
:1044700058512046822102F071FBD4F89032256415
:104480004BB1D4F894325B689847D4F8900204F0AA
:10449000CDFFC4F89052002038BD00BF037C2DE949
:1044A000F0410446C3BB01254FF400730222812171
:1044B00002F044FBE56229464FF4007302222046D5
:1044C00002F03CFBC4F85851082303228221204605
:1044D000012702F033FB27644FF4077004F09EFFBE
:1044E0000546C4F8900270B3D4F894321B6898471C
:1044F00094F81080D5F804220026C5F814623946D5
:10450000C5F818622046B8F1000F15D0402302F01C
:104510007FFB3046BDE8F081012540230222812146
:1045200002F00CFBE562294640230222204602F0FD
:1045300005FBC4F85851C7E74FF4007302F068FB5D
:104540004046BDE8F0813846E4E700BF19B1C0F845
:104550009412002070470220704700BFD0F89032BC
:104560000020C3F80812C3F810227047D0F8903228
:104570000020C3F804127047D0F890229AB138B5E1
:10458000D2F814420CB1012038BDD2F81012012526
:10459000C2F814528BB2D2F808220163812102F0D2
:1045A00029FB204638BD0220704700BFD0F890227A
:1045B0008AB110B5047CD2F804222CB14023012129
:1045C00002F026FB002010BD4FF40073012102F021
:1045D0001FFB204610BD0220704700BF88B108B500
:1045E000D0F88C3213B10023C0F88C3209B1C0F876
:1045F00088120123027080F8743202F05FFA002002
:1046000008BD0220704700BF19B1C0F88C1200200D
:1046100070470220704700BF08B502F081FA002001
:1046200008BD00BF08B5D0F88C321BB11B68984795
:1046300000B908BD022008BD08B5D0F88C325B680F
:104640009847002008BD00BF38B5044600F5207526
:10465000284600F067FB94F88012B4F88632C4F85C
:104660007032012201F01F039342C4F86C2215D06E
:104670000ED3022B06D001F08001204602F07CFA16
:10468000002038BD2946204600F0B8FA002038BD89
:104690002946204600F008F9002038BD294620466A
:1046A00000F080FA002038BD70B5054641B9D0F859
:1046B0006C32032B0FD0052B0C462ED0002070BD82
:1046C000D0F88C329B69C3B190F87422032A14D1BC
:1046D0009847002070BD1646D0F84C31D0F85021D4
:1046E00093420CD99B1A9A42C0F84C318CBF9AB2B3
:1046F00092B2314600F082FBE0E7022070BDD0F8B4
:104700008C321B6923B190F87422032A00D1984798
:10471000284600F07BFB002070BDC5F86C1202F04B
:104720002BFA204670BD00BF70B5044689B9134608
:10473000D0F86C22022A1AD032F0040302D1802170
:1047400002F01AFA94F87832012B4FF000000BD0E7
:1047500070BDD0F88C325B696BB390F87422032A79
:1047600029D19847002070BD84F8780270BDD0E947
:104770000862964221D8C369B3FBF2F502FB1535F6
:104780000DB99A4227D9D4F88C32DB682BB194F852
:104790007422032A01D1204698478021204602F046
:1047A000EBF9204600F03EFB94F87832012B4FF0F5
:1047B0000000CDD1D8E7022070BDB21A0D460262CA
:1047C000194692B200F002FB2B462A4629462046A3
:1047D00002F01EFAB6E7D0F870229342D3D22A46EE
:1047E00000F0F4FAC4F87052EEE700BF70B5002292
:1047F000044640231E461146012502F09FF9334628
:104800008021C4F84451C4F850612046002202F0CF
:1048100095F9D4F89032A5610021666284F874524B
:10482000C4F86C126160C4F87C1223B1D4F88C32E5
:1048300020465B689847002070BD00BF01740020CF
:10484000704700BF90F8742280F87522042380F826
:1048500074320020704700BF0346002093F8752291
:1048600083F87422704700BF90F87422032A01D0A5
:104870000020704708B5D0F88C32DB6903B1984747
:10488000002008BD002070470020704700207047BE
:1048900008B50121D0F88C2280F874125268017991
:1048A0009047002008BD00BF30B50B7803F06003CF
:1048B000202B83B00D46044628D0402B26D053B180
:1048C0008021204602F058F92046002102F054F9D8
:1048D000002003B030BD4B78092BF1D801A252F86B
:1048E00023F000BF614900088F490008C148000853
:1048F000A7490008C1480008AF490008EB49000873
:10490000C1480008194A00081F490008D4F88C3231
:1049100029469B6820469847002003B030BD89781F
:104920009F4D01292970CBD890F87432022B00F0EA
:104930000C81032B40F0FD80002900F026814168A6
:10494000012909D0C9B2FFF777FE297861602046B6
:10495000FFF768FE0228B3D0204600F057FAB7E709
:1049600090F87432013B022B4FF00302A8D8CB8899
:10497000022BA5D1D0F87C320121C16003B1C26005
:10498000022204F10C01204600F012FAA0E790F890
:104990007432013B022B93D84B88012B98D1002312
:1049A000C4F87C32D8E74B88012B91D1F8E78B888B
:1049B000002B85D1CB88002B82D14D887F2D3FF6EF
:1049C0007FAF90F87432032B3FF47AAFE9B280F8EE
:1049D000761202F001F9204600F018FA002D00F0DE
:1049E000D080022384F8743272E74A88130A013BAC
:1049F000062B3FF665AF01A151F823F0B14A00083C
:104A0000994A0008C14A0008C1480008C148000886
:104A1000834A00083F4A0008CA88012A7FF450AF41
:104A200090F87432002B3FF44BAF022B40F29B8086
:104A3000032B7FF445AF011D00F0BAF948E7037C72
:104A4000002B7FF43DAFD0F88C320DF106001B6BCC
:104A5000984707234370BDF80630EA886BB1002AF7
:104A60003FF47AAF934228BF13461A4601462046C8
:104A7000ADF8063000F09CF9EA88002A7FF428AFF0
:104A80006AE7037C002B7FF41BAFD0F88C320DF16A
:104A900006005B6B9847DEE7027CD0F88C32002A78
:104AA00068D19B6A0DF10600984702234370D2E754
:104AB000D0F88832007C1B680DF106019847CAE7E0
:104AC000D2B2052A3FF6FCAEDFE802F02B231B131F
:104AD0000B03D0F88832007C9B690DF106019847E2
:104AE000B9E7D0F88832007C5B690DF10601984780
:104AF000B1E7D0F88832007C1B690DF106019847B8
:104B0000A9E7D0F88832007CDB680DF106019847F0
:104B1000A1E7D0F88832007C9B680DF10601984728
:104B200099E7D0F88832007C5B680DF10601984760
:104B300091E7802102F020F80021204602F01CF8C5
:104B400029782046FFF778FDC2E600293FF404AF3C
:104B500001210323416080F87432FFF763FD0228CE
:104B60007FF4FAAEACE60146002341F8083F00F0BE
:104B70001FF9ADE6DB6A0DF106009847022343708A
:104B800069E7012384F87432A2E60223416080F8C9
:104B90007432FFF751FD204600F038F998E600BF67
:104BA0000002002038B50B7803F06003202B0D467F
:104BB00004460CD0402B0AD04BB18021204601F096
:104BC000DBFF2046002101F0D7FF002038BD94F81C
:104BD0007432013B022BF0D82B79012BEDD8D4F89D
:104BE0008C3229469B6820469847EB88002BECD1F5
:104BF0000028EAD1204600F009F9E6E770B50B7805
:104C000003F06003202B04460CD0402B0AD083B164
:104C10008021204601F0B0FF2046002101F0ACFFCA
:104C2000002070BDD4F88C3220469B689847002045
:104C300070BD4B788A88012BD5B23DD014D3032B9D
:104C4000E6D190F87432022B45D0032BE0D14B888B
:104C500033B96A0604D0CB8813B9294601F08CFF1A
:104C6000204600F0D3F8DBE790F87432022B3CD0FA
:104C7000032BCDD105F00F0303EB8303120600EBEA
:104C8000830341D4D3F84431002BC1D005F07F0316
:104C9000142606FB030606F5A07633B12946204606
:104CA00001F086FF00283AD00123336031462046C8
:104CB000022200F07DF8B3E790F87432022B0AD09C
:104CC000032BA5D14B88002BAAD16E06C8D029464C
:104CD00001F060FFC4E76B069AD0294601F04CFF53
:104CE0002046802101F048FF9AE7680690D111061E
:104CF0004CBF04F1140104F5A071002320460B60A1
:104D0000022200F055F88BE79B69002B80D005F05C
:104D10007F035E1C06EB860600EB8606BDE730606F
:104D2000C4E700BF0B7803704B784370CA788B7868
:104D300003EB022343804A790B7903EB0223838040
:104D4000CA798B7903EB0223C380704710B58021A9
:104D5000044601F011FF20460021BDE8104001F09B
:104D60000BBF00BF00B3037830B4F3B10446002397
:104D700014F8015F0133DBB2002DF9D15B0002337F
:104D8000032413800B704C7004785CB1022300255F
:104D90005A1CD2B2CC548D5410F8014F0233DBB2FE
:104DA000002CF5D130BC704770470223E8E700BF04
:104DB00038B5134602250A46C0E90733C0F86C52DD
:104DC000002101F017FF002038BD00BF08B51346D1
:104DD0000A46002101F00EFF002008BD38B5134639
:104DE00003250A46C0F84831C0F84C31C0F86C526F
:104DF000002101F00DFF002038BD00BF08B51346AB
:104E00000A46002101F004FF002008BD08B5042275
:104E10000023C0F86C2219461A4601F0EBFE002070
:104E200008BD00BF08B505220023C0F86C22194652
:104E30001A4601F0EDFE002008BD00BF08B500F0E5
:104E40000FFB002008BD00BF70B545690269B0F9CD
:104E500008400B4686B0D0E900166DB1806958B1A4
:104E6000842C14BF03340024CDE901500094304653
:104E700000F016FA06B070BD842C14BF0334002471
:104E800005AD92B200943046019500F041FA012838
:104E90000CBF0598002006B070BD00BF08B5002803
:104EA00008BF012000F07AFC002008BD00F10803D3
:104EB0004FF0FF310022816002604360C0E903339C
:104EC000704700BF00230361704700BF436802685A
:104ED00010B49C688C609C684B6001326160996082
:104EE0005DF8044B08610260704700BF30B40D6884
:104EF0006B1C11D000F1080200E01A4653681C68D0
:104F0000AC42FAD904684B60013499608A60516000
:104F10000861046030BC704702695368F2E700BF63
:104F200042688168036910B4916081685C684A6076
:104F30001A68844208BF5960013A002101611A6071
:104F400018685DF8044B70472DE9F843044600F0FB
:104F5000F1FC354A354D1368013313602B68002B83
:104F600034D0334FE06A3B6843B3DFF8E880DFF8C2
:104F7000E8C0304EDCF8002031680123834000EBAC
:104F800080000B43013208EB8000211D3360CCF818
:104F90000020FFF79BFF00F0EFFC3B6863B12A683D
:104FA000E36AD26A9A4207D2234B4FF080521A60CA
:104FB000BFF34F8FBFF36F8FBDE8F8832B68DFF827
:104FC0009480DB6A834298BF2C60D0E72C60136822
:104FD000012B04D0E06ADFF87C80154FC7E7DFF8CB
:104FE0007480464608F18C0730461436FFF75EFFA2
:104FF000B742F9D1DFF86490104E0D4F4846FFF7E5
:1050000055FF3046FFF752FF0D48FFF74FFF0D48A1
:10501000FFF74CFF0C48FFF749FF0C4A0C4BC2F856
:105020000090E06A1E60A2E79C02002004020020BB
:10503000F8020020B002002004ED00E0C8020020C9
:10504000E402002010030020FC02002008020020DF
:105050000C02002010020020AC020020B40200204C
:105060002DE9F0470A9C0D7884F83450266B91F8AE
:1050700000C002F18042013A06EB8206DDE90857E2
:1050800081469A4626F00706BCF1000F4DD04B78BA
:1050900084F835304B78002B47D08B7884F8363045
:1050A0008B78002B41D0CB7884F83730CB78002B2D
:1050B0003BD00B7984F838300B79002B35D04B7905
:1050C00084F839304B79002B2FD08B7984F83A3023
:1050D0008B7953B3CB7984F83B30CB792BB30B7AF4
:1050E00084F83C300B7A03B34B7A84F83D304B7A2A
:1050F000DBB18B7A84F83E308B7AB3B1CB7A84F80B
:105100003F30CB7A8BB10B7B84F840300B7B63B1A3
:105110004B7B84F841304B7B3BB18B7B84F8423036
:105120008B7B13B1CB7B84F84330062D28BF06253B
:105130004FF00008E5626564201D84F84380C4F8E0
:105140004880FFF7BFFEC5F1070504F11800FFF71F
:10515000B9FEC4F84C80A561246184F85080646273
:1051600052464946304600F0B9FB206007B13C602A
:10517000BDE8F087F8B51B4B1B4E1C68336805462D
:10518000181D0F46FFF7CCFE40B933681749D86A9F
:105190000B680122824023EA02030B606B1C17D0CC
:1051A000336864195C600BD2114B186831680431A4
:1051B000FFF79CFE0F4B1A68A24288BF1C60F8BD27
:1051C0000D4B18683168BDE8F8400431FFF78EBE1A
:1051D000002FE5D0316809480431BDE8F840FFF7F9
:1051E00075BE00BF2403002004020020B00200208E
:1051F00008020020DC0200200C020020FC0200203B
:10520000DFF890A0214E224DDFF88C90DFF88C80E3
:1052100080B54FF080572B6843B300F08BFBDAF872
:105220000C30DC68201DFFF77BFE3368013B3360E8
:105230002B68013B2B6000F09FFB94F8513063B169
:10524000012B1ED0022BE6D04FF0500383F31188C0
:10525000BFF36F8FBFF34F8FFEE7206B00F042FD6F
:10526000204600F03FFD2B68002BD6D1D9F8003046
:10527000012BD0D9C8F80070BFF34F8FBFF36F8FE9
:10528000C9E7204600F02EFDC5E700BF9C020020C4
:10529000A0020020100300201002002004ED00E016
:1052A000F0B587B0DDE90C650E9CBDB16CB154273B
:1052B0000497049F542F1AD04FF0500383F31188A2
:1052C000BFF36F8FBFF34F8FFEE74FF0500383F3B1
:1052D0001188BFF36F8FBFF34F8FFEE74FF050037E
:1052E00083F31188BFF36F8FBFF34F8FFEE7256302
:1052F000022705AD0294009684F851700195FFF7DE
:10530000AFFE2046FFF720FE059807B0F0BD00BFB6
:105310002DE9F0474FEA820A804650460D469946ED
:10532000099F00F053FC002800F0968006465420A8
:1053300000F04CFC0446002800F087800023066340
:1053400080F851302B7880F83430AAF1040A2B7899
:10535000564426F00706002B4DD06B7880F8353088
:105360006B78002B47D0AB7880F83630AB78002BC9
:1053700041D0EB7880F83730EB78002B3BD02B799D
:1053800080F838302B79002B35D06B7980F83930A4
:105390006B79002B2FD0AB7980F83A30AB7953B3CF
:1053A000EB7980F83B30EB792BB32B7A80F83C30EB
:1053B0002B7A03B36B7A80F83D306B7ADBB1AB7A32
:1053C00080F83E30AB7AB3B1EB7A80F83F30EB7ABD
:1053D0008BB12B7B80F840302B7B63B16B7B80F8EB
:1053E00041306B7B3BB1AB7B80F84230AB7B13B180
:1053F000EB7B80F84330089D062D28BF06254FF033
:10540000000AE5626564201D84F843A0C4F848A042
:10541000FFF758FDC5F1070504F11800FFF752FD2D
:10542000C4F84CA0A561246184F850A064624A4687
:105430004146304600F052FA206007B13C602046F9
:10544000FFF782FD0120BDE8F087304600F04AFCFE
:105450004FF0FF30BDE8F0874FF0FF30F3E700BFBB
:1054600030B58BB0002407AA06A905A8CDE90544EC
:1054700000F070FCDDE90553C3B175B15422089208
:105480000899079A54291AD04FF0500383F31188D2
:10549000BFF36F8FBFF34F8FFEE74FF0500383F3DF
:1054A0001188BFF36F8FBFF34F8FFEE74FF05003AC
:1054B00083F31188BFF36F8FBFF34F8FFEE7022096
:1054C00009A92B6385F851002346CDE900410F4817
:1054D0000F490295FFF7C4FD2846FFF735FD099BEC
:1054E00093B14FF0500383F31188BFF36F8FBFF375
:1054F0004F8F0848084A094B4FF0FF3501210560DE
:1055000011601C6000F0B2FA0BB030BD015200080F
:10551000E0960008DC020020F802002024030020AE
:10552000024A136801331360704700BFA8020020CD
:105530002DE9F84F494B1B68CBB9494B1E68013622
:105540001E600EB3DFF838B1DBF80020B24229D973
:10555000444FDFF830810025D8F80030DB6A03EBD8
:1055600083039B00FB58022B28BF012504E03E4A21
:1055700013680133136000253C4B1B68002B0CBFE4
:1055800028460120BDE8F88F394C23681B68002BA2
:1055900048D04FF0500383F31188BFF36F8FBFF3F0
:1055A0004F8FFEE7324C2F4FDFF8D88000252DE0DB
:1055B0002268D268D2F80C90D9F8041009F1040AD4
:1055C0008E4250462BD3FFF7ABFCD9F8281009F1D7
:1055D000180009B1FFF7A4FC264AD9F82C0013687B
:1055E000012101FA00FC00EB8000514607EB80002E
:1055F0004CEA030CC2F800C0FFF768FCD8F80000C2
:10560000D9F82C10C26A914228BF0125226812687D
:10561000002ACDD14FF0FF32CBF800209CE7CBF829
:10562000001099E7144B2168144A1868206019602B
:1056300013680133136023681B6833B9DFF840B087
:105640004FF0FF32CBF800207EE72268DFF830B061
:10565000D268D2685268CBF8002075E7A802002013
:105660002403002010020020A402002028030020B0
:1056700008020020B00200200C020020E0020020FE
:10568000DC020020040200202DE9F84F384C23688A
:1056900043B94FF0500383F31188BFF36F8FBFF30B
:1056A0004F8FFEE700F046F92368013B2360246832
:1056B0007CBB304B1B6863B32F4DDFF8D4A02F4E5B
:1056C000DFF8D090DFF8D0B0DAF80030012733B33C
:1056D000DAF80C30DC6804F1040804F11800FFF774
:1056E0001FFC4046FFF71CFCE06A326807FA00F333
:1056F00000EB80001343414609EB80003360FFF765
:10570000E5FBDBF80030E26ADB6A9A42DCD32F600B
:10571000DAE7002400F030F92046BDE8F88F3CB10C
:10572000174B1A681268DAB9164B4FF0FF321A603D
:10573000154E34683CB10127FFF7FAFE00B12F6027
:10574000013CF9D134602B68002BE2D00F4B4FF0B5
:1057500080521A60BFF34F8FBFF36F8F0124D9E7D8
:105760001A68084BD268D26852681A60E0E700BF36
:10577000A80200209C02002028030020B002002084
:1057800008020020DC020020A402002004ED00E05A
:10579000E4020020100200200402002008B598B1A5
:1057A0000E4B196841B14FF0500383F31188BFF3DA
:1057B0006F8FBFF34F8FFEE71A6801321A60FFF751
:1057C000D9FCFFF761FF38B9054B4FF080521A60E2
:1057D000BFF34F8FBFF36F8F08BD00BFA80200203B
:1057E00004ED00E0194B1B68EBB91949194A10B4D4
:1057F0000B601368B3FA83F3DBB2C3F11F0303EB4F
:105800008302920014488158841881B1616808327B
:10581000496861600244914212D0104BCA681A6014
:105820005DF8044B70470A4B01221A6070474FF035
:10583000500383F31188BFF36F8FBFF34F8FFEE7E1
:10584000142202FB030349685960E6E7A80200201E
:1058500028030020B00200201002002004020020D3
:105860000E4B1B6882B000220133019208D04FF02A
:10587000500383F31188BFF36F8FBFF34F8FFEE7A1
:105880004FF0500383F31188BFF36F8FBFF34F8F37
:10589000019B002BFCD002B0704700BF1801002014
:1058A00008480068006880F308884FF0000080F323
:1058B000148862B661B6BFF34F8FBFF36F8F00DFFE
:1058C00000BF000008ED00E0DFF80C00016841F4C3
:1058D000700101607047000088ED00E030B421F0F5
:1058E00001014FF08075074C40F80C4C6FF002033B
:1058F00040F8202C40E9021540F8243C30BC4438E4
:10590000704700BF61580008000000000000000060
:10591000074B19680868B0E8F04F80F30988BFF3B7
:105920006F8F4FF0000080F311887047AFF3008055
:10593000040200204FF0500383F31188BFF36F8FF0
:10594000BFF34F8F0A4A13680133012B136000D055
:105950007047084B1B6813F0FF0FF9D04FF050034E
:1059600083F31188BFF36F8FBFF34F8FFEE700BF44
:105970001801002004ED00E0084A136843B94FF015
:10598000500383F31188BFF36F8FBFF34F8FFEE790
:10599000013B13600BB983F3118870471801002095
:1059A000EFF30980BFF36F8F154B1A681EF0100FCD
:1059B00008BF20ED108A20E9F04F10602DE90900A2
:1059C0004FF0500080F31188BFF34F8FBFF36F8FFC
:1059D000FFF708FF4FF0000080F3118809BC196839
:1059E0000868B0E8F04F1EF0100F08BFB0EC108A46
:1059F00080F30988BFF36F8F704700BFAFF300805B
:105A00000402002008B54FF0500383F31188BFF360
:105A10006F8FBFF34F8FFFF78BFD18B1034B4FF024
:105A200080521A60002383F3118808BD04ED00E062
:105A300030B4094A094D0A4B0A4C0B480021116049
:105A400029601B68A4FB03139B09013B072103602A
:105A500030BC1160704700BF10E000E018E000E0CB
:105A60001C010020D34D621014E000E03A4B3B4A89
:105A70001968914240D01A68394B9A4233D010B518
:105A8000384B39481A78394C82B0D2B2FF21019292
:105A900019701B78DBB28DF803309DF803309DF848
:105AA0000320072103F0500301601106237011D574
:105AB000062300E00B469DF803205200D2B28DF879
:105AC00003209DF80320120603F1FF31F2D4032BCB
:105AD00003601AD04FF0500383F31188BFF36F8F28
